:020000040800F2
:100000000050002079250008AD240008B324000822
:10001000B9240008BF240008C5240008000000001F
:10002000000000000000000000000000CB240008D9
:10003000D724000800000000E3240008EF24000893
:10004000C1250008C1250008C1250008C1250008F8
:10005000C1250008C1250008C1250008C1250008E8
:10006000C1250008C1250008FB240008C12500089F
:10007000C1250008C1250008C1250008C1250008C8
:10008000C1250008C1250008C1250008C1250008B8
:10009000C1250008C1250008C1250008C1250008A8
:1000A000C1250008C1250008C1250008C125000898
:1000B000092500081D25000831250008C125000874
:1000C000C1250008C1250008C125000845250008F4
:1000D000C125000859250008C1250008C1250008D0
:1000E000C1250008C1250008C12500080000000046
:1000F0000000000000000000000000000000000000
:0C01000000000000000000005FF808F1A3
:10010C0010B5054C237833B9044B13B10448AFF345
:10011C0000800123237010BD440400200000000067
:10012C002453000808B5034B1BB103490348AFF334
:10013C00008008BD00000000480400202453000883
:10014C00034613F8012B002AFBD1181A013870470B
:10015C0080B584B000AFF860B9607A607B80FB68D2
:10016C0010334FF480720021184605F047F8FB68F5
:10017C0003F588734FF480720021184605F03EF8A1
:10018C00FB68BA681A60FB687A685A60FB687A8800
:10019C009A81FB68BA699A60FB68BA8BDA81FB6852
:1001AC0018461037BD4680BD80B483B000AF786070
:1001BC007B6818460C37BD4680BC704780B582B052
:1001CC0000AF78607B6898687B68DB8900221946F1
:1001DC0002F0BAFD012002F051FA7B6898687B6846
:1001EC00DB890122194602F0AFFD012002F046FA2C
:1001FC0000BF0837BD4680BD80B584B002AF7860C3
:10020C000B46FB707B6800221A747B68FA785A7470
:10021C007B6800229A747B6858687B689B890022F3
:10022C00194602F091FD7B6818687B6803F1100198
:10023C007B6803F588724FF47A730093042303F000
:10024C008FFB7B6858687B689B890122194602F0FA
:10025C007BFD7B6893F8133118460837BD4680BD8B
:10026C0080B586B000AFF860B96011461A460B46EF
:10027C00FB711346BB71FB6800221A74FB68BA79D8
:10028C005A74FB6804229A7400237B61FB797A69A7
:10029C009A420DDA7B69BA681A447B690333117888
:1002AC00FA6813440A461A747B6901337B61EDE7E3
:1002BC00FB685868FB689B890022194602F044FDD4
:1002CC00FB681868FB6803F11001FB799BB20333E0
:1002DC009AB24FF47A7303F007FAFB685868FB681C
:1002EC009B890122194602F02FFD00BF1837BD462D
:1002FC0080BD80B584B002AF78600B46FB701346AE
:10030C00BB707B6800221A747B68BA785A747B685D
:10031C00FA789A747B6858687B689B890022194626
:10032C0002F012FD7B6818687B6803F110017B6892
:10033C0003F588724FF47A730093042303F010FBD7
:10034C007B6858687B689B890122194602F0FCFC8B
:10035C007B6893F8133118460837BD4680BD80B5CD
:10036C0086B002AF78600B46FB701346BB707B689F
:10037C0000221A747B68BA785A747B68FA789A747B
:10038C007B6858687B689B890022194602F0DCFC6C
:10039C007B6818687B6803F110017B6803F5887231
:1003AC004FF47A730093052303F0DAFA7B685868EC
:1003BC007B689B890122194602F0C6FC7B6893F886
:1003CC0014313B737B6893F813317B73BB891846EC
:1003DC001037BD4680BD80B582B000AF786008464E
:1003EC0011461A460346FB700B46BB7013467B70D6
:1003FC007B6800221A747B687A785A74FB7843F015
:10040C000403DAB27B689A747B68BA78DA747B6816
:10041C0058687B689B890022194602F095FC7B6822
:10042C0018687B6803F110014FF47A73042203F00F
:10043C005BF97B6858687B689B890122194602F03E
:10044C0083FC00BF0837BD4680BD80B584B000AFCB
:10045C007860084611461A460346FB700B463B80F3
:10046C001346BB703B88BB817B6800221A747B6887
:10047C00BA785A74FB7843F00403DAB27B689A7446
:10048C007A7B7B68DA743A7B7B681A757B68586870
:10049C007B689B890022194602F056FC7B68186821
:1004AC007B6803F110014FF47A73052203F01CF9F9
:1004BC007B6858687B689B890122194602F044FCD2
:1004CC0000BF1037BD4680BD80B586B000AFF86068
:1004DC007A601A460B46FB721346BB72FB6800220D
:1004EC001A74FB6897F820205A74FB7A43F00403C3
:1004FC00DAB2FB689A7400237B61BB7A7A699A4200
:10050C000DDA7B697A681A447B6903331178FA68CF
:10051C0013440A461A747B6901337B61EDE7FB686F
:10052C005868FB689B890022194602F00DFCFB6899
:10053C001868FB6803F11001BB7A9BB203339AB2C3
:10054C004FF47A7303F0D0F8FB685868FB689B890A
:10055C000122194602F0F8FB00BF1837BD4680BDDA
:10056C0090B589B002AFF8607A601A460B46FB7200
:10057C0013463B8197F82920FB681A7497F82820BA
:10058C00FB685A74FB7A1033DAB2FB689A74FB6816
:10059C005868FB689B890022194602F0D5FBFB6862
:1005AC001868FB6803F11001FB6803F588723B893E
:1005BC0003339BB24FF47A74009403F0D1F9FB68C7
:1005CC005868FB689B890122194602F0BDFB002389
:1005DC007B613B897A699A420DDA7B69DA1C7B690B
:1005EC0079680B44F9680A4492F810211A707B69F7
:1005FC0001337B61EDE700BF1C37BD4690BD80B574
:10060C0086B000AFF8607A601A460B46FB72134650
:10061C003B8197F82120FB681A7497F82020FB681F
:10062C005A74FB7A0833DBB25BB243F004035BB25F
:10063C00DAB2FB689A7400237B613B897A699A422F
:10064C000DDA7B697A681A447B6903331178FA688E
:10065C0013440A461A747B6901337B61EDE7FB682E
:10066C005868FB689B890022194602F06DFBFB68F9
:10067C001868FB6803F110013B8903339AB24FF4FD
:10068C007A7303F031F8FB685868FB689B89012288
:10069C00194602F059FB00BF1837BD4680BD80B526
:1006AC008AB002AFF8607A603B600B46FB72FB7A53
:1006BC0026221946F868FFF752FE0346BB83FB7AE5
:1006CC0026221946F868FFF74AFE03463B83BA8B8D
:1006DC003B8B9A420AD03B8BBB83FB7A2622194672
:1006EC00F868FFF73CFE03463B83F0E7FB7A2822D1
:1006FC001946F868FFF733FE0346BB82BA8BF97ACA
:10070C00BB8AADF8003013467A68F868FFF728FF0B
:10071C00BA8ABB8B13449BB2BB82BA8AF97A282360
:10072C00F868FFF792FEF97A01234022F868FFF788
:10073C0052FEBA8B3B681A8000BF2037BD4680BD85
:10074C0080B588B002AFF8607A601A460B46FB722F
:10075C0013463B81FB7A20221946F868FFF7FFFD10
:10076C000346BB82BB8A3A899A4223D8FB7A24225D
:10077C001946F868FFF7F3FD03463B823A89F97A8C
:10078C003B8AADF8003013467A68F868FFF737FFFC
:10079C003A8A3B8913449BB23B823A8AF97A2423E6
:1007AC00F868FFF752FEF97A01232022F868FFF768
:1007BC0012FE00E000BF1837BD4680BD80B588B082
:1007CC0002AFF8600B467A60FB727868FFF7B8FCF2
:1007DC000346FB82FB7A20221946F868FFF7BFFD1F
:1007EC000346BB82BB8AFA8A9A4223D8FB7A24221C
:1007FC001946F868FFF7B3FD03463B82FA8AF97A8B
:10080C003B8AADF8003013467A68F868FFF7F7FEBC
:10081C003A8AFB8A13449BB23B823A8AF97A2423A4
:10082C00F868FFF712FEF97A01232022F868FFF727
:10083C00D2FD00E000BF1837BD4680BD80B483B048
:10084C0000AF78607B681B78092B06D87B681B7817
:10085C003033DAB27B681A7006E07B681B7837336A
:10086C00DAB27B681A7000BF0C37BD4680BC70478B
:10087C0080B500AFB44BDB7BB44AA2FB03235B090E
:10088C00DBB23033DAB2B24B83F83520AE4BDB7BC4
:10089C00B04AA2FB0323DB08DAB2AE4BA3FB021374
:1008AC00D9080B469B000B445B00D31ADBB23033E8
:1008BC00DAB2A74B83F83620A34BDA7BA54BA3FB0C
:1008CC000213D9080B469B000B445B00D31ADBB216
:1008DC003033DAB29E4B83F837209B4B1B7C9B4A00
:1008EC00A2FB03235B09DBB23033DAB29A4BDA7624
:1008FC00954B1B7C974AA2FB0323DB08DAB2954B82
:10090C00A3FB0213D9080B469B000B445B00D31AC4
:10091C00DBB23033DAB2904B1A778B4B1A7C8D4B9F
:10092C00A3FB0213D9080B469B000B445B00D31AA4
:10093C00DBB23033DAB2884B5A77834B5B7C834A19
:10094C00A2FB03235B09DBB23033DAB2834BDA76DA
:10095C007D4B5B7C7F4AA2FB0323DB08DAB27D4B29
:10096C00A3FB0213D9080B469B000B445B00D31A64
:10097C00DBB23033DAB2794B1A77734B5A7C754B46
:10098C00A3FB0213D9080B469B000B445B00D31A44
:10099C00DBB23033DAB2714B5A776B4B9B7C6B4AC0
:1009AC00A2FB03235B09DBB23033DAB26C4BDA7691
:1009BC00654B9B7C674AA2FB0323DB08DAB2654BD1
:1009CC00A3FB0213D9080B469B000B445B00D31A04
:1009DC00DBB23033DAB2624B1A775B4B9A7C5D4BED
:1009EC00A3FB0213D9080B469B000B445B00D31AE4
:1009FC00DBB23033DAB25A4B5A77534B5B79534AEA
:100A0C00A2FB03235B09DBB23033DAB2554B83F81C
:100A1C0024204D4B5B794F4AA2FB0323DB08DAB24F
:100A2C004C4BA3FB0213D9080B469B000B445B00F9
:100A3C00D31ADBB23033DAB24A4B83F82520424B5F
:100A4C005A79444BA3FB0213D9080B469B000B4469
:100A5C005B00D31ADBB23033DAB2424B83F8262078
:100A6C00394B9B79394AA2FB03235B09DBB2303348
:100A7C00DAB23D4B83F82420334B9B79354AA2FBE9
:100A8C000323DB08DAB2334BA3FB0213D9080B4662
:100A9C009B000B445B00D31ADBB23033DAB2324B1F
:100AAC0083F82520284B9A792A4BA3FB0213D908EB
:100ABC000B469B000B445B00D31ADBB23033DAB22B
:100ACC00294B83F82620204BDB79204AA2FB0323F9
:100ADC005B09DBB23033DAB2244B83F824201A4B97
:100AEC00DB791C4AA2FB0323DB08DAB2194BA3FB0C
:100AFC000213D9080B469B000B445B00D31ADBB2E4
:100B0C003033DAB2194B83F825200F4BDA79114BBD
:100B1C00A3FB0213D9080B469B000B445B00D31AB2
:100B2C00DBB23033DAB2114B83F82620064B1B7A3A
:100B3C00064AA2FB03235B09DBB23033DAB20C4B5F
:100B4C0083F8242016E000BF000000201F85EB5125
:100B5C00C0000020CDCCCCCCFC000020200100201B
:100B6C00440100206801002094010020C0010020F5
:100B7C00EC0100204D4B1B7A4D4AA2FB0323DB08F2
:100B8C00DAB24B4BA3FB0213D9080B469B000B4468
:100B9C005B00D31ADBB23033DAB2464B83F8252034
:100BAC00424B1A7A424BA3FB0213D9080B469B000B
:100BBC000B445B00D31ADBB23033DAB23D4B83F813
:100BCC0026203A4B5B7A1B09DAB23B4B9A773B48AF
:100BDC00FFF734FE354B5B7A03F00F03DAB2364B7A
:100BEC00DA773748FFF72AFE304B9B7A1B09DAB2CB
:100BFC00344B9A773448FFF721FE2C4B9B7A03F049
:100C0C000F03DAB22F4BDA773048FFF717FE274B7A
:100C1C00DB7A1B09DAB22E4B9A772E48FFF70EFEC1
:100C2C00224BDB7A03F00F03DAB2294BDA772A482E
:100C3C00FFF704FE1D4B1B7B1B09DAB2274B9A777F
:100C4C002748FFF7FBFD194B1B7B03F00F03DAB2B0
:100C5C00224BDA772348FFF7F1FD144B5B7B1B0922
:100C6C00DAB2214B9A772148FFF7E8FD0F4B5B7BFB
:100C7C0003F00F03DAB21C4BDA771D48FFF7DEFDE9
:100C8C000A4B9B7B1B09DAB21A4B9A771A48FFF76F
:100C9C00D5FD064B9B7B03F00F03DAB2154BDA77CD
:100CAC001648FFF7CBFD00BF80BD00BF0000002041
:100CBC00CDCCCCCCEC010020180200203602002058
:100CCC00370200203C0200205A0200205B02002068
:100CDC00600200207E0200207F020020840200209F
:100CEC00A2020020A3020020A8020020C6020020BD
:100CFC00C7020020CC020020EA020020EB020020F8
:100D0C0080B400AF8C4B1B68002B36D08A4B1B6811
:100D1C00FF2B32D8884B1B68884AA2FB03235B0944
:100D2C00DBB23033DAB2864B83F82320824B1B685C
:100D3C00844AA2FB0323D908824BA3FB0123DA08C4
:100D4C0013469B0013445B00CA1AD3B23033DAB299
:100D5C007B4B83F82420784B19687A4BA3FB012337
:100D6C00DA0813469B0013445B00CA1AD3B2303323
:100D7C00DAB2734B83F825200EE0714B302283F8E6
:100D8C0023206F4B302283F824206D4B302283F8C4
:100D9C002520694B00221A60674B5B68002B36D00C
:100DAC00654B5B68FF2B32D8634B5B68634AA2FBD5
:100DBC0003235B09DBB23033DAB2614B83F82720B3
:100DCC005D4B5B685F4AA2FB0323D9085D4BA3FB19
:100DDC000123DA0813469B0013445B00CA1AD3B2F2
:100DEC003033DAB2564B83F82820534B5968554BA5
:100DFC00A3FB0123DA0813469B0013445B00CA1AB9
:100E0C00D3B23033DAB24E4B83F829200EE04C4B80
:100E1C00302283F827204A4B302283F82820484B75
:100E2C00302283F82920444B00225A60424B9B68A5
:100E3C00002B36D0404B9B68FF2B32D83E4B9B6827
:100E4C003E4AA2FB03235B09DBB23033DAB23C4BE4
:100E5C0083F82B20384B9B683A4AA2FB0323D90812
:100E6C00384BA3FB0123DA0813469B0013445B00A9
:100E7C00CA1AD3B23033DAB2314B83F82C202E4B52
:100E8C009968304BA3FB0123DA0813469B001344EB
:100E9C005B00CA1AD3B23033DAB2294B83F82D2057
:100EAC000EE0274B302283F82B20254B302283F881
:100EBC002C20234B302283F82D201F4B00229A60CC
:100ECC001D4BDB68002B3FD01B4BDB68FF2B3BD84B
:100EDC00194BDB68194AA2FB03235B09DBB23033E5
:100EEC00DAB2174B83F82F20134BDB68154AA2FBA1
:100EFC000323D908134BA3FB0123DA0813469B00E9
:100F0C0013445B00CA1AD3B23033DAB20C4B83F8F9
:100F1C003020094BD9680B4BA3FB0123DA0813468D
:100F2C009B0013445B00CA1AD3B23033DAB2044BC1
:100F3C0083F8312017E000BF082100201F85EB51FA
:100F4C00F0020020CDCCCCCCA64B302283F82F2045
:100F5C00A44B302283F83020A24B302283F831206E
:100F6C00A14B0022DA60A04B1B69002B36D09E4BA4
:100F7C001B69FF2B32D89C4B1B699C4AA2FB032399
:100F8C005B09DBB23033DAB2964B83F84920964BCF
:100F9C001B69974AA2FB0323D908954BA3FB01239A
:100FAC00DA0813469B0013445B00CA1AD3B23033E1
:100FBC00DAB28C4B83F84A208B4B19698C4BA3FB10
:100FCC000123DA0813469B0013445B00CA1AD3B200
:100FDC003033DAB2834B83F84B200EE0814B302256
:100FEC0083F84D207F4B302283F84E207D4B3022EE
:100FFC0083F84F207C4B00221A617B4B5B69002BE2
:10100C0036D0794B5B69FF2B32D8774B5B69774ACB
:10101C00A2FB03235B09DBB23033DAB2714B83F8EA
:10102C004D20714B5B69724AA2FB0323D908704BAC
:10103C00A3FB0123DA0813469B0013445B00CA1A76
:10104C00D3B23033DAB2674B83F84E20664B596912
:10105C00674BA3FB0123DA0813469B0013445B0088
:10106C00CA1AD3B23033DAB25E4B83F84F200EE09B
:10107C005C4B302283F84D205A4B302283F84E20A3
:10108C00584B302283F84F20574B00225A61564B55
:10109C009B69002B36D0544B9B69FF2B32D8524B9B
:1010AC009B69524AA2FB03235B09DBB23033DAB2F1
:1010BC004C4B83F851204C4B9B694D4AA2FB0323AC
:1010CC00D9084B4BA3FB0123DA0813469B001344AE
:1010DC005B00CA1AD3B23033DAB2424B83F85220D7
:1010EC00414B9969424BA3FB0123DA0813469B0041
:1010FC0013445B00CA1AD3B23033DAB2394B83F8DB
:10110C0053200EE0374B302283F85120354B3022E0
:10111C0083F85220334B302283F85320324B002279
:10112C009A61314BDB69002B36D02F4BDB69FF2BDF
:10113C0032D82D4BDB692D4AA2FB03235B09DBB2B2
:10114C003033DAB2274B83F85520274BDB69284A1A
:10115C00A2FB0323D908264BA3FB0123DA08134671
:10116C009B0013445B00CA1AD3B23033DAB21D4B66
:10117C0083F856201C4BD9691D4BA3FB0123DA08BD
:10118C0013469B0013445B00CA1AD3B23033DAB255
:10119C00144B83F857200EE0124B302283F8552065
:1011AC00104B302283F856200E4B302283F85720F8
:1011BC000D4B0022DA610F4B1B782F2B03D90D4BF3
:1011CC001B78392B07D90B4B1B78402B14D9094BA7
:1011DC001B78462B10D8074B1A78024B83F86620E5
:1011EC0011E000BFF0020020082100201F85EB5108
:1011FC00CDCCCCCC48210020824B302283F8662009
:10120C00814B30221A70804B5B782F2B03D97E4B8D
:10121C005B78392B07D97C4B5B78402B09D97A4BFF
:10122C005B78462B05D8784B5A78764B83F8672039
:10123C0006E0744B302283F86720734B30225A70CF
:10124C00714B9B782F2B03D96F4B9B78392B07D97C
:10125C006D4B9B78402B09D96B4B9B78462B05D853
:10126C00694B9A78674B83F8692006E0654B30220E
:10127C0083F86920644B30229A70634BDB782F2BF8
:10128C0003D9614BDB78392B07D95F4BDB78402BCB
:10129C0009D95D4BDB78462B05D85B4BDA78594B7B
:1012AC0083F86A2006E0574B302283F86A20564BAD
:1012BC003022DA70544B1B792F2B03D9524B1B79EC
:1012CC00392B07D9504B1B79402B09D94E4B1B7925
:1012DC00462B05D84C4B1A794A4B83F86C2006E008
:1012EC00484B302283F86C20474B30221A71464B06
:1012FC005B792F2B03D9444B5B79392B07D9424BA4
:10130C005B79402B09D9404B5B79462B05D83E4B7A
:10131C005A793C4B83F86D2006E03A4B302283F827
:10132C006D20394B30225A71374B9B792F2B03D9B7
:10133C00354B9B79392B07D9334B9B79402B09D9EA
:10134C00314B9B79462B05D82F4B9A792D4B83F833
:10135C006F2006E02B4B302283F86F202A4B302273
:10136C009A71294BDB792F2B03D9274BDB79392B3E
:10137C0007D9254BDB79402B09D9234BDB79462B3D
:10138C0005D8214BDA791F4B83F8702006E01D4BF2
:10139C00302283F870201C4B3022DA711A4B1B7AE6
:1013AC002F2B03D9184B1B7A392B07D9164B1B7AC9
:1013BC00402B09D9144B1B7A462B05D8124B1A7AA1
:1013CC00104B83F8722006E00E4B302283F872200B
:1013DC000D4B30221A720C4B5B7A2F2B03D90A4B14
:1013EC005B7A392B07D9084B5B7A402B0ED9064B0D
:1013FC005B7A462B0AD8044B5A7A024B83F873203B
:10140C000BE000BFF002002048210020224B3022CC
:10141C0083F87320214B30225A72204B9B7A2F2B4E
:10142C0003D91E4B9B7A392B07D91C4B9B7A402B2B
:10143C0009D91A4B9B7A462B05D8184B9A7A164B1E
:10144C0083F8752006E0144B302283F87520134B7B
:10145C0030229A72114BDB7A2F2B03D90F4BDB7A8C
:10146C00392B07D90D4BDB7A402B09D90B4BDB7A87
:10147C00462B05D8094BDA7A074B83F8762006E021
:10148C00054B302283F87620044B3022DA7200BFF1
:10149C00BD4680BC704700BFF002002048210020F0
:1014AC0080B400AF00BFBD4680BC704780B584B02F
:1014BC0002AF01F081F800F08FFA00F05BFC00F055
:1014CC00DBFA00F029FC00F0CBFB00F06DFB00F028
:1014DC000FFBFFF7CDF9AC48FEF770FE00232F226F
:1014EC00AA49A948FEF7BCFE0A2001F0C7F8002360
:1014FC0002220821A448FEF76EFF00238122282136
:10150C00A148FEF768FF0023812248219E48FEF780
:10151C0062FF2C23EF2208219B48FEF75CFF2C2353
:10152C00EE2228219848FEF756FF2C23EF22482163
:10153C009548FEF750FF0A2001F0A0F80423009311
:10154C000E23934A08219048FEF7BEFF0423009314
:10155C000E23904A28218C48FEF7B6FF04230093F3
:10156C000E238D4A48218848FEF7AEFF0A2001F071
:10157C0085F80123012208218348FEF72CFF012363
:10158C00012228218048FEF726FF01230122482151
:10159C007D48FEF720FF012001F070F8032228217E
:1015AC007948FEF7A6FE0346132B0CBF012300233C
:1015BC00DBB2002B05D00123022228217248FEF752
:1015CC000AFF032248217048FEF793FE0346132BB3
:1015DC000CBF01230023DBB2002B05D00123022218
:1015EC0048216948FEF7F7FE012001F047F8012277
:1015FC006A496B4803F0B1F96A4B1B69694A23F0DD
:10160C0001031361684B1B69674A23F001031361E3
:10161C00664B1B78002B22D0614803F08DFB0346F0
:10162C00202B05D05E4803F087FB0346222B01D10B
:10163C00012300E00023002B11D000224FF4007195
:10164C005B4801F081FB5B4B1B88083B9BB21A4645
:10165C005949534803F03DF9544B00221A70574B2B
:10166C001B78002B20D04E4803F066FB0346202B42
:10167C0005D04B4803F060FB0346222B01D101231C
:10168C0000E00023002B0FD000224FF400714848DB
:10169C0001F05AFB4A4B1B881A464A49404803F052
:1016AC0018F9464B00221A70474B1B78002B00F0A0
:1016BC00078100237B60454B1B881A467B6893424D
:1016CC0015DA434B1A68434B1B689A420BD8404BB4
:1016DC001B6841497A680A4412781A703C4B1B68A3
:1016EC0001333B4A13607B6801337B60E3E7384B83
:1016FC001B68013B1B780A2B40F0DF80374B1B78B3
:10170C00072B16D8364B1B68184603F049FD0146CB
:10171C00324B1B781A46334B43F822102F4B1B7855
:10172C000133DAB22D4B1A70294B1B682C4A13600B
:10173C00ACE02A4B1B780D2B00F298800023FB7039
:10174C00274B1A68224B1B689A4200F08880FB7862
:10175C00012B7ED8224B1B681B782F2B46D9204B94
:10176C001B681B78392B41D81D4B1A681B4B1B78F7
:10177C00083B5900FB780B4411781B4AD154FB7879
:10178C000133FB7065E000BF5821002000000020F1
:10179C00340000206400002094000020D4050020B8
:1017AC00900500200004004000080040E1070020E4
:1017BC00000C0140EA0F0020EC070020EC0F002089
:1017CC00F6170020F00F0020F81700200220002050
:1017DC00CC030020D0030020FC1700205421002053
:1017EC00C803002008210020482100206C4B1B68F6
:1017FC001B78402B13D96A4B1B681B78462B0ED8D1
:10180C00674B1A68674B1B78083B5900FB780B44F5
:10181C001178654AD154FB780133FB7019E0604BA9
:10182C001B681B78602B14D95D4B1B681B78662BCF
:10183C000FD85B4B1B681A785A4B1B78083B590026
:10184C00FB780B44203AD1B2574AD154FB78013380
:10185C00FB70534B1B680133514A136070E7514BBB
:10186C001B780133DAB24F4B1A700FE04D4B1B78DB
:10187C000E2B0BD14A4B1B681B78592B04D0484BB1
:10188C001B681B78792B01D1FFF70AFE474B1B789D
:10189C000D2B01D1FFF734FA444B1B781A46444BFD
:1018AC0053F822301A4648214248FEF787FF3F4B37
:1018BC001B780133DAB23D4B1A703F4B00221A7081
:1018CC003E4B1B78002B23D03D4B1B78002B0DD0AF
:1018DC003C4B1B789BB23C4A08213648FEF730FF44
:1018EC00364B00221A70364B00221A70374B1B787D
:1018FC00002B0DD0334B1B789BB2334A28212D483B
:10190C00FEF71EFF2D4B00221A70304B00221A706E
:10191C002F4B1B78002B1ED0012301222821254898
:10192C00FEF759FD012000F0A9FE032228212148D1
:10193C00FEF7DFFC0346132B0CBF01230023DBB2A5
:10194C00002B05D00123022228211A48FEF743FD63
:10195C001F4B00221A701F4B1B78002B3FF458AE04
:10196C000123012248211348FEF735FD012000F028
:10197C0085FE032248210F48FEF7BBFC0346132BC0
:10198C000CBF01230023DBB2002B05D00123022264
:10199C0048210848FEF71FFD0E4B00221A7037E64F
:1019AC00C8030020542100204821002004210020DD
:1019BC009003002058210020F8170020D9060020A1
:1019CC00DD070020DC070020DC060020DE070020FD
:1019DC00DF070020E007002080B590B000AF07F1D2
:1019EC00180328220021184603F008FC3B1D002296
:1019FC001A605A609A60DA601A610123BB614FF475
:101A0C008033FB6100233B620123BB6202237B63B7
:101A1C004FF48033BB634FF40023FB6307F11803CF
:101A2C00184601F0C1F90346002B14BF0123002313
:101A3C00DBB2002B01D000F0BDFB0F237B60022337
:101A4C00BB600023FB604FF480633B6100237B6130
:101A5C003B1D0121184601F029FC0346002B14BF45
:101A6C0001230023DBB2002B01D000F0A3FB00BF4D
:101A7C004037BD4680BD000080B500AF1A4B1B4AF5
:101A8C001A60194B4FF482725A60174B00229A60FD
:101A9C00154B0022DA60144B00221A61124B002203
:101AAC005A61114B4FF400729A610F4B0822DA61A4
:101ABC000D4B00221A620C4B00225A620A4B002278
:101ACC009A62094B0A22DA62074801F089FD034643
:101ADC00002B14BF01230023DBB2002B01D000F03C
:101AEC0069FB00BF80BD00BF6004002000300140D6
:101AFC0080B586B000AF07F1080300221A605A6067
:101B0C009A60DA603B4600221A605A60254B4FF00F
:101B1C0080421A60234B64225A60224B00229A6046
:101B2C00204B4BF68032DA601E4B00221A611D4BA3
:101B3C0000229A611B4802F05FFA0346002B14BF87
:101B4C0001230023DBB2002B01D000F033FB4FF458
:101B5C008053BB6007F108031946124802F01CFCC5
:101B6C000346002B14BF01230023DBB2002B01D052
:101B7C0000F020FB00233B6000237B603B461946B2
:101B8C00084802F0E9FD0346002B14BF0123002393
:101B9C00DBB2002B01D000F00DFB00BF1837BD46A7
:101BAC0080BD00BFB804002080B586B000AF07F13F
:101BBC00080300221A605A609A60DA603B460022E1
:101BCC001A605A60244B254A1A60234B01225A6032
:101BDC00214B00229A60204B4BF68032DA601E4B70
:101BEC0000221A611C4B00229A611B4802F004FA75
:101BFC000346002B14BF01230023DBB2002B01D0C2
:101C0C0000F0D8FA4FF48053BB6007F10803194673
:101C1C00114802F0C1FB0346002B14BF0123002323
:101C2C00DBB2002B01D000F0C5FA00233B6000238F
:101C3C007B603B461946084802F08EFD0346002B9C
:101C4C0014BF01230023DBB2002B01D000F0B2FA49
:101C5C0000BF1837BD4680BD0005002000040040C1
:101C6C0080B586B000AF07F1080300221A605A60F5
:101C7C009A60DA603B4600221A605A60244B254A6F
:101C8C001A60234B03225A60214B00229A60204B8E
:101C9C0042F6E062DA601E4B00221A611C4B0022F5
:101CAC009A611B4802F0A8F90346002B14BF0123CC
:101CBC000023DBB2002B01D000F07CFA4FF48053F0
:101CCC00BB6007F108031946114802F065FB034697
:101CDC00002B14BF01230023DBB2002B01D000F03A
:101CEC0069FA00233B6000237B603B461946084899
:101CFC0002F032FD0346002B14BF01230023DBB29C
:101D0C00002B01D000F056FA00BF1837BD4680BD3D
:101D1C00480500200008004080B500AF134B144A62
:101D2C001A60124B4FF416525A60104B00229A60F4
:101D3C000E4B0022DA600D4B00221A610B4B0C2269
:101D4C005A610A4B00229A61084B0022DA6107485B
:101D5C0002F072FD0346002B14BF01230023DBB2FB
:101D6C00002B01D000F026FA00BF80BD90050020AA
:101D7C000038014080B588B000AF07F11003002295
:101D8C001A605A609A60DA60484B9B69474A43F084
:101D9C0010039361454B9B6903F01003FB60FB68D8
:101DAC00424B9B69414A43F0200393613F4B9B6933
:101DBC0003F02003BB60BB683C4B9B693B4A43F080
:101DCC0004039361394B9B6903F004037B607B68CC
:101DDC00364B9B69354A43F008039361334B9B693F
:101DEC0003F008033B603B6801221021304800F0EF
:101DFC00ABFF002220212E4800F0A6FF01224FF459
:101E0C0040712C4800F0A0FF4FF400433B610023CD
:101E1C007B610123BB6107F110031946244800F0D4
:101E2C000FFE10233B61244B7B610023BB6107F148
:101E3C0010031946214800F003FE30233B610123B7
:101E4C007B610023BB610223FB6107F11003194680
:101E5C00174800F0F5FD4FF480733B6111237B6153
:101E6C000023BB610223FB6107F1100319461148E3
:101E7C0000F0E6FD4FF400733B6101237B6100230E
:101E8C00BB610223FB6107F110031946094800F0FE
:101E9C00D7FD002200210A2000F0EBFC0A2000F004
:101EAC0004FD00BF2037BD4680BD00BF00100240BE
:101EBC0000100140000C01400000211000080140FE
:101ECC0080B582B000AF78607B68144A934221D110
:101EDC0000224FF48071124800F036FF114802F0D6
:101EEC0001F9114B1B6800225A620F4802F0FAF8F4
:101EFC000E4B1B781A460E4B19780E4B99540B4B04
:101F0C001B780133DAB2094B1A70012208490348D5
:101F1C0002F023FD00BF0837BD4680BD90050020B0
:101F2C00000C01404805002000050020D8060020C8
:101F3C00D4050020D805002080B582B000AF7860B1
:101F4C007B68064A934205D101224FF40071044884
:101F5C0000F0FAFE00BF0837BD4680BD900500209A
:101F6C00000C014080B584B000AF78607B681B68C2
:101F7C001B4A934221D11B4802F08DF80023FB60D1
:101F8C00194B1B781A46FB6893420CDA174AFB680C
:101F9C0013441978164AFB6813440A461A70FB68F6
:101FAC000133FB60ECE7104B1A78124B1A70124B92
:101FBC0001221A700C4B00221A707B681B680F4AA6
:101FCC00934208D10E4802F066F801224FF480715A
:101FDC000C4800F0B9FE00BF1037BD4680BD00BFF5
:101FEC000004004000050020D8060020D805002081
:101FFC00DC060020DC070020D90600200008004089
:10200C0048050020000C014080B584B000AF0346A9
:10201C00FB80FB88102B40F0AA8017215648FEF756
:10202C00EBF80346FB730023BB73FB7B002B00F028
:10203C009E80FB7B03F00103002B1DD002220821A4
:10204C004D48FEF756F90346BB73BB7B03F0040304
:10205C00002B11D0494B4A4A08214748FEF71FFB79
:10206C00484B01221A70484B01221A700223042299
:10207C0008214148FEF7AFF9FB7B03F00203002B6C
:10208C0031D0022228213C48FEF733F90346BB73BA
:10209C00BB7B03F00403002B11D03C4B3C4A2821A2
:1020AC003548FEF7FCFA3B4B01221A703A4B0122E1
:1020BC001A700223042228212F48FEF78CF9BB7BCF
:1020CC0003F00203002B0ED00123082228212A48FA
:1020DC00FEF781F9314B01221A70022302222821CA
:1020EC002548FEF778F9FB7B03F00403002B3ED068
:1020FC00022248212048FEF7FCF80346BB73BB7B49
:10210C0003F00403002B0ED0254B264A48211A4815
:10211C00FEF7C5FA244B01221A700223042248212F
:10212C001548FEF758F9BB7B03F00103002B0AD0CE
:10213C001E4A48211048FEF741FB02230122482188
:10214C000D48FEF748F9BB7B03F00203002B0ED0C1
:10215C000123082248210848FEF73DF9144B0122BF
:10216C001A700223022248210348FEF734F900BFFB
:10217C001037BD4680BD00BF58210020EA0F00205B
:10218C00E4070020E1070020DD070020F6170020FF
:10219C00F00F0020EC0F0020DE070020DF070020EE
:1021AC0002200020FC170020F8170020C00000209F
:1021BC00E007002080B400AF72B600BFFEE700005D
:1021CC0080B584B002AF786039607B68012B0ED18A
:1021DC003B684FF6FF72934209D1102301930B4BCE
:1021EC0000932023094A0A490A48FDF7B1FF7B688E
:1021FC00002B07D13B684FF6FF72934202D1054882
:10220C00FDF7D2FF00BF0837BD4680BD001001406E
:10221C00600400205821002080B500AF4FF6FF71FC
:10222C000120FFF7CDFF80BD80B500AF4FF6FF71E9
:10223C000020FFF7C5FF80BD80B485B000AF154B03
:10224C009B69144A43F001039361124B9B6903F0A1
:10225C000103BB60BB680F4BDB690E4A43F0805334
:10226C00D3610C4BDB6903F080537B607B680A4BBA
:10227C005B68FB60FB6823F0E063FB60FB6843F08A
:10228C000073FB60044AFB68536000BF1437BD4603
:10229C0080BC7047001002400000014080B588B03F
:1022AC0000AF786007F1100300221A605A609A6040
:1022BC00DA607B681B681F4A934237D11E4B9B69BF
:1022CC001D4A43F4805393611B4B9B6903F4805369
:1022DC00FB60FB68184B9B69174A43F0040393613E
:1022EC00154B9B6903F00403BB60BB68A0233B61E7
:1022FC0002237B610323FB6107F1100319460F488E
:10230C0000F09EFB40233B6100237B610023BB61FB
:10231C0007F110031946094800F092FB0022002136
:10232C00232000F0A6FA232000F0BFFA00BF2037CC
:10233C00BD4680BD00300140001002400008014045
:10234C0080B586B000AF78607B681B68B3F1804FB6
:10235C0014D1264BDB69254A43F00103D361234B8F
:10236C00DB6903F001037B617B69002200211C20E7
:10237C0000F07FFA1C2000F098FA32E07B681B68B2
:10238C001B4A934214D1194BDB69184A43F00203E0
:10239C00D361164BDB6903F002033B613B690022FE
:1023AC0000211D2000F065FA1D2000F07EFA18E0D7
:1023BC007B681B680F4A934213D10C4BDB690B4AA9
:1023CC0043F00403D361094BDB6903F00403FB60A6
:1023DC00FB68002200211E2000F04BFA1E2000F0AA
:1023EC0064FA00BF1837BD4680BD00BF0010024024
:1023FC00000400400008004080B588B000AF786051
:10240C0007F1100300221A605A609A60DA607B6848
:10241C001B68204A934239D11F4B9B691E4A43F4D7
:10242C00804393611C4B9B6903F48043FB60FB6806
:10243C00194B9B69184A43F004039361164B9B6933
:10244C0003F00403BB60BB684FF400733B610223D1
:10245C007B610323FB6107F1100319460F4800F061
:10246C00EFFA4FF480633B6100237B610023BB6177
:10247C0007F110031946094800F0E2FA0022002186
:10248C00252000F0F6F9252000F00FFA00BF2037C8
:10249C00BD4680BD003801400010024000080140DC
:1024AC0080B400AFFEE780B400AFFEE780B400AFAD
:1024BC00FEE780B400AFFEE780B400AFFEE780B467
:1024CC0000AF00BFBD4680BC704780B400AF00BFFA
:1024DC00BD4680BC704780B400AF00BFBD4680BC19
:1024EC00704780B500AF00F0ADF800BF80BD80B57F
:1024FC0000AF102000F040FC00BF80BD80B500AFE5
:10250C00024801F041FE00BF80BD00BFB8040020AE
:10251C0080B500AF024801F037FE00BF80BD00BFA0
:10252C000005002080B500AF024801F02DFE00BF71
:10253C0080BD00BF4805002080B500AF024801F007
:10254C00B1FB00BF80BD00BF6004002080B500AFB0
:10255C00024802F033FA00BF80BD00BF9005002096
:10256C0080B400AF00BFBD4680BC70470C480D491D
:10257C000D4A002302E0D458C4500433C4188C42D2
:10258C00F9D30A4A0A4C002301E013600432A24238
:10259C00FBD3FFF7E5FF02F00DFEFEF787FF704758
:1025AC00000000204404002078540008440400205B
:1025BC006C230020FEE7000080B500AF084B1B68C1
:1025CC00074A43F010031360032000F047F90F2073
:1025DC0000F008F8FFF730FE0023184680BD00BF5E
:1025EC000020024080B582B000AF7860124B1A68B0
:1025FC00124B1B7819464FF47A73B3FBF1F3B2FB11
:10260C00F3F3184600F05FF90346002B01D00123C9
:10261C000EE07B680F2B0AD8002279684FF0FF3050
:10262C0000F027F9064A7B681360002300E00123C1
:10263C0018460837BD4680BDD4030020DC030020BB
:10264C00D803002080B400AF054B1B781A46054B0D
:10265C001B681344034A136000BFBD4680BC70471F
:10266C00DC0300206823002080B400AF024B1B6801
:10267C001846BD4680BC70476823002080B584B0E6
:10268C0000AF7860FFF7F0FFB8607B68FB60FB6819
:10269C00B3F1FF3F05D00A4B1B781A46FB68134475
:1026AC00FB6000BFFFF7E0FF0246BB68D31AFA6875
:1026BC009A42F7D800BF00BF1037BD4680BD00BF9F
:1026CC00DC03002080B485B000AF78607B6803F039
:1026DC000703FB600C4BDB68BB60BA684FF6FF036B
:1026EC001340BB60FB681A02BB68134343F0BF6323
:1026FC0043F40033BB60044ABB68D36000BF14379B
:10270C00BD4680BC704700BF00ED00E080B400AF58
:10271C00044BDB681B0A03F007031846BD4680BC5C
:10272C00704700BF00ED00E080B483B000AF0346FB
:10273C00FB7197F90730002B0BDBFB7903F01F02C1
:10274C00064997F907305B09012000FA02F241F8BB
:10275C00232000BF0C37BD4680BC704700E100E071
:10276C0080B483B000AF03463960FB7197F9073032
:10277C00002B0ADB3B68DAB20C4997F907301201DF
:10278C00D2B20B4483F800230AE03B68DAB2084962
:10279C00FB7903F00F03043B1201D2B20B441A76FF
:1027AC0000BF0C37BD4680BC704700BF00E100E0A5
:1027BC0000ED00E080B489B000AFF860B9607A60D9
:1027CC00FB6803F00703FB61FB69C3F10703042BF0
:1027DC0028BF0423BB61FB690433062B02D9FB69B8
:1027EC00033B00E000237B614FF0FF32BB6902FA30
:1027FC0003F3DA43BB681A407B699A404FF0FF3110
:10280C007B6901FA03F3D9437B680B4013431846E9
:10281C002437BD4680BC704780B582B000AF78606D
:10282C007B68013BB3F1807F01D301230FE00A4A9F
:10283C007B68013B53600F214FF0FF30FFF790FF97
:10284C00054B00229A60044B07221A60002318469D
:10285C000837BD4680BD00BF10E000E080B582B0F7
:10286C0000AF78607868FFF72DFF00BF0837BD46D2
:10287C0080BD80B586B000AF0346B9607A60FB734B
:10288C0000237B61FFF742FF78617A68B968786949
:10289C00FFF790FF024697F90F3011461846FFF7E5
:1028AC005FFF00BF1837BD4680BD80B582B000AF5A
:1028BC000346FB7197F907301846FFF735FF00BF49
:1028CC000837BD4680BD80B582B000AF78607868AF
:1028DC00FFF7A2FF034618460837BD4680BD80B4FB
:1028EC0085B000AF78600023FB737B6893F82130D0
:1028FC00022B08D07B6804229A637B68002283F841
:10290C002020012320E07B681B681A687B681B6809
:10291C0022F00E021A607B681B681A687B681B68C1
:10292C0022F001021A607B681A6C7B68DB6B012158
:10293C0001FA02F25A607B68012283F821207B683D
:10294C00002283F82020FB7B18461437BD4680BC40
:10295C007047000080B584B000AF78600023FB7333
:10296C007B6893F82130022B05D07B6804229A6394
:10297C000123FB7351E07B681B681A687B681B683A
:10298C0022F00E021A607B681B681A687B681B6851
:10299C0022F001021A607B681B68224A934229D0FC
:1029AC007B681B68204A934222D07B681B681F4AB5
:1029BC0093421AD07B681B681D4A934212D07B68E5
:1029CC001B681C4A93420AD07B681B681A4A9342C4
:1029DC0002D14FF480130EE04FF080730BE04FF4F4
:1029EC00803308E04FF4805305E04FF4807302E02D
:1029FC00102300E00123114A53607B68012283F805
:102A0C0021207B68002283F820207B685B6B002BE5
:102A1C0003D07B685B6B78689847FB7B1846103754
:102A2C00BD4680BD080002401C0002403000024040
:102A3C0044000240580002406C000240000002407A
:102A4C0080B48BB000AF7860396000237B620023C8
:102A5C003B6269E101227B6A02FA03F3FB613B688A
:102A6C001B68FA691340BB61BA69FB699A4240F072
:102A7C0058813B685B689A4A93425ED0984A93426D
:102A8C0075D8984A934258D0964A93426FD8964A32
:102A9C00934252D0944A934269D8944A93424CD070
:102AAC00924A934263D8924A934246D0904A9342B8
:102ABC005DD8122B2AD8122B59D801A252F823F028
:102ACC00472B0008212B0008332B0008752B00081E
:102ADC007B2B00087B2B00087B2B00087B2B000832
:102AEC007B2B00087B2B00087B2B00087B2B000822
:102AFC007B2B00087B2B00087B2B00087B2B000812
:102B0C007B2B0008292B00083D2B0008794A9342A7
:102B1C0013D02CE03B68DB683B6229E03B68DB6848
:102B2C0004333B6224E03B68DB6808333B621FE004
:102B3C003B68DB680C333B621AE03B689B68002BFC
:102B4C0002D104233B6213E03B689B68012B05D147
:102B5C0008233B627B68FA691A6109E008233B622F
:102B6C007B68FA695A6103E000233B6200E000BF16
:102B7C00BB69FF2B01D87B6801E07B6804337B6168
:102B8C00BB69FF2B02D87B6A9B0002E07B6A083B87
:102B9C009B003B617B691A680F213B6901FA03F3C7
:102BAC00DB431A40396A3B6901FA03F31A437B6928
:102BBC001A603B685B6803F08053002B00F0B18017
:102BCC004D4B9B694C4A43F0010393614A4B9B6903
:102BDC0003F00103BB60BB68484A7B6A9B08023365
:102BEC0052F82330FB607B6A03F003039B000F2237
:102BFC0002FA03F3DB43FA681340FB607B68404A3C
:102C0C00934213D07B683F4A93420DD07B683E4A77
:102C1C00934207D07B683D4A934201D1032306E0DF
:102C2C00042304E0022302E0012300E000237A6A7B
:102C3C0002F0030292009340FA681343FB602F49A1
:102C4C007B6A9B080233FA6841F823203B685B6877
:102C5C0003F48033002B06D02D4B1A682C49BB692A
:102C6C0013430B6006E02A4B1A68BB69DB43284907
:102C7C0013400B603B685B6803F40033002B06D0F9
:102C8C00234B5A682249BB6913434B6006E0204B27
:102C9C005A68BB69DB431E4913404B603B685B6859
:102CAC0003F48013002B06D0194B9A681849BB69A2
:102CBC0013438B6006E0164B9A68BB69DB431449DF
:102CCC0013408B603B685B6803F40013002B21D02E
:102CDC000F4BDA680E49BB691343CB6021E000BF90
:102CEC0000003210000031100000221000002110F2
:102CFC0000001210000011100010024000000140F2
:102D0C0000080140000C014000100140001401407B
:102D1C00000401400B4BDA68BB69DB4309491340E3
:102D2C00CB607B6A01337B623B681A687B6A22FA50
:102D3C0003F3002B7FF48EAE00BF00BF2C37BD46D3
:102D4C0080BC70470004014080B483B000AF786051
:102D5C000B467B8013467B707B78002B03D07A88E4
:102D6C007B681A6103E07B881A047B681A6100BFD8
:102D7C000C37BD4680BC704780B582B000AF0346AF
:102D8C00FB80084B5A69FB881340002B06D0054A80
:102D9C00FB885361FB881846FFF736F900BF0837EC
:102DAC00BD4680BD0004014080B586B000AF7860A0
:102DBC007B68002B01D1012372E27B681B6803F056
:102DCC000103002B00F08780924B5B6803F00C032F
:102DDC00042B0CD08F4B5B6803F00C03082B12D127
:102DEC008C4B5B6803F48033B3F5803F0BD1894B7C
:102DFC001B6803F40033002B6CD07B685B68002BE2
:102E0C0068D101234CE27B685B68B3F5803F06D147
:102E1C00804B1B687F4A43F4803313602EE07B6841
:102E2C005B68002B0CD17B4B1B687A4A23F48033F4
:102E3C001360784B1B68774A23F4802313601DE0E2
:102E4C007B685B68B3F5A02F0CD1724B1B68714A81
:102E5C0043F4802313606F4B1B686E4A43F480333A
:102E6C0013600BE06B4B1B686A4A23F480331360CE
:102E7C00684B1B68674A23F4802313607B685B688C
:102E8C00002B13D0FFF7F0FB386108E0FFF7ECFBE9
:102E9C0002463B69D31A642B01D9032300E25D4B34
:102EAC001B6803F40033002BF0D014E0FFF7DCFBBD
:102EBC00386108E0FFF7D8FB02463B69D31A642B54
:102ECC0001D90323ECE1534B1B6803F40033002BB3
:102EDC00F0D100E000BF7B681B6803F00203002BFD
:102EEC0063D04C4B5B6803F00C03002B0BD0494BAD
:102EFC005B6803F00C03082B1CD1464B5B6803F496
:102F0C008033002B16D1434B1B6803F00203002BBC
:102F1C0005D07B681B69012B01D00123C0E13D4B1F
:102F2C001B6823F0F8027B685B69DB0039491343AB
:102F3C000B603AE07B681B69002B20D0364B0122DA
:102F4C001A60FFF791FB386108E0FFF78DFB024632
:102F5C003B69D31A022B01D90323A1E12D4B1B682A
:102F6C0003F00203002BF0D02A4B1B6823F0F8026D
:102F7C007B685B69DB00274913430B6015E0264B2C
:102F8C0000221A60FFF770FB386108E0FFF76CFB5A
:102F9C0002463B69D31A022B01D9032380E11D4B56
:102FAC001B6803F00203002BF0D17B681B6803F055
:102FBC000803002B3AD07B689B69002B19D0174B68
:102FCC0001221A60FFF750FB386108E0FFF74CFB59
:102FDC0002463B69D31A022B01D9032360E10D4B46
:102FEC005B6A03F00203002BF0D0012000F0DAFA48
:102FFC001CE00A4B00221A60FFF736FB38610FE029
:10300C00FFF732FB02463B69D31A022B08D9032384
:10301C0046E100BF001002400000424280044242E0
:10302C00924B5B6A03F00203002BE9D17B681B68AF
:10303C0003F00403002B00F0A6800023FB758B4BE0
:10304C00DB6903F08053002B0DD1884BDB69874A79
:10305C0043F08053D361854BDB6903F08053BB6035
:10306C00BB680123FB75824B1B6803F48073002B38
:10307C0018D17F4B1B687E4A43F480731360FFF7B3
:10308C00F3FA386108E0FFF7EFFA02463B69D31A0E
:10309C00642B01D9032303E1754B1B6803F4807384
:1030AC00002BF0D07B68DB68012B06D16F4B1B6AC1
:1030BC006E4A43F0010313622DE07B68DB68002B42
:1030CC000CD16A4B1B6A694A23F001031362674BEC
:1030DC001B6A664A23F0040313621CE07B68DB68FE
:1030EC00052B0CD1614B1B6A604A43F0040313623D
:1030FC005E4B1B6A5D4A43F0010313620BE05B4BB2
:10310C001B6A5A4A23F001031362584B1B6A574A35
:10311C0023F0040313627B68DB68002B15D0FFF7E8
:10312C00A3FA38610AE0FFF79FFA02463B69D31A0B
:10313C0041F28832934201D90323B1E04B4B1B6A15
:10314C0003F00203002BEED014E0FFF78DFA386188
:10315C000AE0FFF789FA02463B69D31A41F288323A
:10316C00934201D903239BE0404B1B6A03F00203FB
:10317C00002BEED1FB7D012B05D13C4BDB693B4A8F
:10318C0023F08053D3617B68DB69002B00F08780D0
:10319C00364B5B6803F00C03082B61D07B68DB6952
:1031AC00022B46D1334B00221A60FFF75DFA3861CF
:1031BC0008E0FFF759FA02463B69D31A022B01D9F2
:1031CC0003236DE0294B1B6803F00073002BF0D137
:1031DC007B681B6AB3F5803F08D1244B5B6823F4F2
:1031EC0000327B689B68214913434B601F4B5B6823
:1031FC0023F474127B68196A7B685B6A0B431B4966
:10320C0013434B601B4B01221A60FFF72DFA3861F8
:10321C0008E0FFF729FA02463B69D31A022B01D9C1
:10322C0003233DE0114B1B6803F00073002BF0D01F
:10323C0035E0104B00221A60FFF716FA386108E0EF
:10324C00FFF712FA02463B69D31A022B01D903236A
:10325C0026E0064B1B6803F00073002BF0D11EE038
:10326C007B68DB69012B07D1012319E000100240B8
:10327C0000700040600042420B4B5B68FB60FB68D7
:10328C0003F480327B681B6A9A4206D1FB6803F414
:10329C0070127B685B6A9A4201D0012300E0002324
:1032AC0018461837BD4680BD0010024080B584B06A
:1032BC0000AF786039607B68002B01D10123D0E02E
:1032CC006A4B1B6803F007033A689A4210D9674BA4
:1032DC001B6823F0070265493B6813430B60634B83
:1032EC001B6803F007033A689A4201D00123B8E047
:1032FC007B681B6803F00203002B20D07B681B68E3
:10330C0003F00403002B05D0594B5B68584A43F477
:10331C00E06353607B681B6803F00803002B05D047
:10332C00534B5B68524A43F460535360504B5B6899
:10333C0023F0F0027B689B684D4913434B607B681C
:10334C001B6803F00103002B40D07B685B68012BEA
:10335C0007D1474B1B6803F40033002B15D1012315
:10336C007FE07B685B68022B07D1414B1B6803F045
:10337C000073002B09D1012373E03D4B1B6803F054
:10338C000203002B01D101236BE0394B5B6823F066
:10339C0003027B685B68364913434B60FFF764F9A3
:1033AC00F8600AE0FFF760F90246FB68D31A41F2B5
:1033BC008832934201D9032353E02D4B5B6803F011
:1033CC000C027B685B689B009A42EBD1274B1B6815
:1033DC0003F007033A689A4210D2244B1B6823F07F
:1033EC00070222493B6813430B60204B1B6803F018
:1033FC0007033A689A4201D0012332E07B681B68CC
:10340C0003F00403002B08D0194B5B6823F4E06233
:10341C007B68DB68164913434B607B681B6803F0C1
:10342C000803002B09D0124B5B6823F460527B68B5
:10343C001B69DB000E4913434B6000F021F8024678
:10344C000B4B5B681B0903F00F030A49CB5C22FA98
:10345C0003F3094A1360094B1B681846FFF7C2F8BF
:10346C00002318461037BD4680BD00BF0020024027
:10347C00001002404C530008D4030020D803002055
:10348C0090B48AB000AF294B3C1D0FCB84E80F00E1
:10349C0040F201233B800023FB610023BB6100232E
:1034AC007B6200237B6100233B62214B5B68FB61E9
:1034BC00FB6903F00C03042B02D0082B03D02BE088
:1034CC001C4B3B622BE0FB699B0C03F00F03283376
:1034DC003B4413F8243C7B61FB6903F48033002BE1
:1034EC0012D0134B5B685B0C03F0010328333B4495
:1034FC0013F8283CBB617B690E4A03FB02F2BB69E3
:10350C00B2FBF3F37B6204E07B690B4A02FB03F32F
:10351C007B627B6A3B6202E0084B3B6200BF3B6A0A
:10352C0018462837BD4690BC704700BF3C53000876
:10353C0000100240001BB70000093D0000127A0089
:10354C0080B400AF024B1B681846BD4680BC704768
:10355C00D403002080B500AFFFF7F2FF0246054B05
:10356C005B681B0A03F007030349CB5C22FA03F3E5
:10357C00184680BD001002405C53000880B500AFB7
:10358C00FFF7DEFF0246054B5B68DB0A03F007031F
:10359C000349CB5C22FA03F3184680BD00100240AD
:1035AC005C53000880B485B000AF78600A4B1B6890
:1035BC000A4AA2FB03235B0A7A6802FB03F3FB6053
:1035CC0000BFFB685A1EFA60002BF9D100BF00BF88
:1035DC001437BD4680BC7047D4030020D34D621015
:1035EC0080B582B000AF78607B68002B01D10123DD
:1035FC0076E07B685B6A002B08D17B685B68B3F56F
:10360C00827F09D07B680022DA6105E07B680022AA
:10361C001A617B6800225A617B6800229A627B687F
:10362C0093F85130DBB2002B06D17B68002283F873
:10363C0050207868FEF732FE7B68022283F8512016
:10364C007B681B681A687B681B6822F040021A6052
:10365C007B685B6803F482727B689B6803F40443A9
:10366C001A437B68DB6803F400631A437B681B69AD
:10367C0003F002031A437B685B6903F001031A43EE
:10368C007B689B6903F400731A437B68DB6903F066
:10369C0038031A437B681B6A03F0800342EA030178
:1036AC007B689B6A03F400527B681B680A431A60B0
:1036BC007B689B691A0C7B681B6802F004025A60D9
:1036CC007B681B68DA697B681B6822F40062DA612C
:1036DC007B6800225A657B68012283F85120002305
:1036EC0018460837BD4680BD80B588B000AFF8607D
:1036FC00B9603B601346FB800023FB77FB6893F8B3
:10370C005030012B01D1022326E1FB68012283F802
:10371C005020FEF7A9FFB861FB88FB82FB6893F889
:10372C005130DBB2012B02D00223FB770BE1BB68DB
:10373C00002B02D0FB88002B02D10123FB7702E186
:10374C00FB68032283F85120FB6800225A65FB6852
:10375C00BA681A63FB68FA889A86FB68FA88DA8674
:10376C00FB6800229A63FB6800229A87FB680022A0
:10377C00DA87FB6800225A64FB6800221A64FB6833
:10378C009B68B3F5004F0FD1FB681B681A68FB6888
:10379C001B6822F040021A60FB681B681A68FB6801
:1037AC001B6842F480421A60FB681B681B6803F0BC
:1037BC004003402B07D0FB681B681A68FB681B682A
:1037CC0042F040021A60FB68DB68B3F5006F4BD126
:1037DC00FB685B68002B02D0FB8A012B3ED1FB6897
:1037EC001B6B1A88FB681B68DA60FB681B6B9A1CE6
:1037FC00FB681A63FB68DB8E9BB2013B9AB2FB68D9
:10380C00DA862BE0FB681B689B6803F00203022B33
:10381C0012D1FB681B6B1A88FB681B68DA60FB68AB
:10382C001B6B9A1CFB681A63FB68DB8E9BB2013B1B
:10383C009AB2FB68DA8611E0FEF716FF0246BB6906
:10384C00D31A3A689A4203D83B68B3F1FF3F02D1CE
:10385C003B68002B02D10323FB7774E0FB68DB8E03
:10386C009BB2002BCED14CE0FB685B68002B02D0E6
:10387C00FB8A012B40D1FB681A6BFB681B680C336D
:10388C0012781A70FB681B6B5A1CFB681A63FB6876
:10389C00DB8E9BB2013B9AB2FB68DA862CE0FB68AC
:1038AC001B689B6803F00203022B13D1FB681A6B95
:1038BC00FB681B680C3312781A70FB681B6B5A1C64
:1038CC00FB681A63FB68DB8E9BB2013B9AB2FB6808
:1038DC00DA8611E0FEF7C8FE0246BB69D31A3A68D5
:1038EC009A4203D83B68B3F1FF3F02D13B68002BEF
:1038FC0002D10323FB7726E0FB68DB8E9BB2002B07
:10390C00CDD1BA693968F86800F058FB0346002B32
:10391C0002D0FB6820225A65FB689B68002B0AD1F9
:10392C0000233B61FB681B68DB683B61FB681B6821
:10393C009B683B613B69FB685B6D002B02D00123EC
:10394C00FB7700E000BFFB68012283F85120FB6885
:10395C00002283F85020FB7F18462037BD4680BDDF
:10396C0080B58CB000AFF860B9607A607B800123C1
:10397C00FB62002387F82B30FB6893F85030012B47
:10398C0001D102238AE1FB68012283F85020FEF763
:10399C006BFE7862FB6893F8513087F82330FB6834
:1039AC005B68FB617B887B8397F82330012B0FD0FE
:1039BC00FB69B3F5827F07D1FB689B68002B03D1B1
:1039CC0097F82330042B03D0022387F82B305BE1CC
:1039DC00BB68002B05D07B68002B02D07B88002BAA
:1039EC0003D1012387F82B304EE1FB6893F851305B
:1039FC00DBB2042B03D0FB68052283F85120FB6853
:103A0C0000225A65FB687A689A63FB687A88DA87C1
:103A1C00FB687A889A87FB68BA681A63FB687A88AD
:103A2C00DA86FB687A889A86FB6800221A64FB683F
:103A3C0000225A64FB681B681B6803F04003402B90
:103A4C0007D0FB681B681A68FB681B6842F04002D1
:103A5C001A60FB68DB68B3F5006F78D1FB685B68B4
:103A6C00002B02D07B8B012B66D1FB681B6B1A8859
:103A7C00FB681B68DA60FB681B6B9A1CFB681A639B
:103A8C00FB68DB8E9BB2013B9AB2FB68DA8653E093
:103A9C00FB681B689B6803F00203022B1BD1FB68BD
:103AAC00DB8E9BB2002B16D0FB6A012B13D1FB686B
:103ABC001B6B1A88FB681B68DA60FB681B6B9A1C13
:103ACC00FB681A63FB68DB8E9BB2013B9AB2FB6806
:103ADC00DA860023FB62FB681B689B6803F001031A
:103AEC00012B19D1FB68DB8F9BB2002B14D0FB6828
:103AFC001B68DA68FB689B6B92B21A80FB689B6B45
:103B0C009A1CFB689A63FB68DB8F9BB2013B9AB2F1
:103B1C00FB68DA870123FB62FEF7A6FD02467B6A8F
:103B2C00D31ABA6B9A4207D8BB6BB3F1FF3F03D0E1
:103B3C00032387F82B30A7E0FB68DB8E9BB2002BAE
:103B4C00A6D1FB68DB8F9BB2002BA1D17CE0FB687C
:103B5C005B68002B02D07B8B012B6BD1FB681A6B43
:103B6C00FB681B680C3312781A70FB681B6B5A1CB1
:103B7C00FB681A63FB68DB8E9BB2013B9AB2FB6855
:103B8C00DA8657E0FB681B689B6803F00203022B84
:103B9C001CD1FB68DB8E9BB2002B17D0FB6A012B70
:103BAC0014D1FB681A6BFB681B680C3312781A7003
:103BBC00FB681B6B5A1CFB681A63FB68DB8E9BB2A1
:103BCC00013B9AB2FB68DA860023FB62FB681B6838
:103BDC009B6803F00103012B19D1FB68DB8F9BB2AF
:103BEC00002B14D0FB681B68DA68FB689B6BD2B2A5
:103BFC001A70FB689B6B5A1CFB689A63FB68DB8F23
:103C0C009BB2013B9AB2FB68DA870123FB62FEF799
:103C1C002BFD02467B6AD31ABA6B9A4203D8BB6B54
:103C2C00B3F1FF3F02D1BB6B002B03D1032387F809
:103C3C002B3029E0FB68DB8E9BB2002BA2D1FB68FA
:103C4C00DB8F9BB2002B9DD17A6AB96BF86800F0C0
:103C5C00B5F90346002B06D0012387F82B30FB68FF
:103C6C0020225A6510E0FB689B68002B0BD10023C7
:103C7C007B61FB681B68DB687B61FB681B689B686E
:103C8C007B617B6900E000BFFB68012283F8512057
:103C9C00FB68002283F8502097F82B3018463037F9
:103CAC00BD4680BD80B588B000AF78607B681B686E
:103CBC005B68FB617B681B689B68BB61BB699B098C
:103CCC0003F00103002B0FD1BB6903F00103002BA0
:103CDC000AD0FB699B0903F00103002B04D07B681D
:103CEC001B6C78689847BEE0BB695B0803F0010366
:103CFC00002B0AD0FB69DB0903F00103002B04D075
:103D0C007B685B6C78689847ADE0BB695B0903F036
:103D1C000103002B06D1BB699B0903F00103002BA7
:103D2C0000F0A180FB695B0903F00103002B00F09C
:103D3C009A80BB699B0903F00103002B23D07B689D
:103D4C0093F85130DBB2032B11D07B685B6D43F0E1
:103D5C0004027B685A6500237B617B681B68DB6807
:103D6C007B617B681B689B687B617B690BE0002334
:103D7C003B617B681B68DB683B617B681B689B68ED
:103D8C003B613B696FE0BB695B0903F00103002BEE
:103D9C0014D07B685B6D43F001027B685A6500238D
:103DAC00FB607B681B689B68FB607B681B681A6800
:103DBC007B681B6822F040021A60FB687B685B6DB5
:103DCC00002B4FD07B681B685A687B681B6822F0FD
:103DDC00E0025A607B68012283F85120FB6903F0F2
:103DEC000203002B04D1FB6903F00103002B34D038
:103DFC007B681B685A687B681B6822F003025A6058
:103E0C007B68DB6C002B11D07B68DB6C174A5A6328
:103E1C007B68DB6C1846FEF79DFD0346002B05D036
:103E2C007B685B6D43F040027B685A657B689B6CDA
:103E3C00002B16D07B689B6C0C4A5A637B689B6C7E
:103E4C001846FEF787FD0346002B0AD07B685B6D96
:103E5C0043F040027B685A6503E0786800F008F88C
:103E6C0000E000BF00BF2037BD4680BD8F3E00087C
:103E7C0080B483B000AF786000BF0C37BD4680BC07
:103E8C00704780B584B000AF78607B685B6AFB607C
:103E9C00FB680022DA87FB680022DA86F868FFF7F5
:103EAC00E7FF00BF1037BD4680BD000080B588B06D
:103EBC0000AFF860B9603B601346FB71FEF7D4FBB2
:103ECC000246BB6A9B1A3A681344FB61FEF7CCFBB3
:103EDC00B861394B1B685B011B0DFA6902FB03F3DC
:103EEC007B6154E03B68B3F1FF3F50D0FEF7BCFB65
:103EFC000246BB69D31AFA699A4202D9FB69002BB4
:103F0C003DD1FB681B685A68FB681B6822F0E00215
:103F1C005A60FB685B68B3F5827F11D1FB689B68C4
:103F2C00B3F5004F04D0FB689B68B3F5806F07D1E5
:103F3C00FB681B681A68FB681B6822F040021A6059
:103F4C00FB689B6AB3F5005F0FD1FB681B681A68AE
:103F5C00FB681B6822F400521A60FB681B681A6825
:103F6C00FB681B6842F400521A60FB68012283F85C
:103F7C005120FB68002283F85020032317E07B6953
:103F8C00002B01D10023FB617B69013B7B61FB684A
:103F9C001B689A68BB681340BA689A420CBF01232D
:103FAC000023DBB21A46FB799A429BD100231846B8
:103FBC002037BD4680BD00BFD403002080B586B03D
:103FCC0002AFF860B9607A607B680093BB6800222E
:103FDC008021F868FFF76AFF0346002B07D0FB68C7
:103FEC005B6D43F02002FB685A65032300E000235D
:103FFC0018461037BD4680BD80B582B000AF7860E2
:10400C007B68002B01D1012341E07B6893F83D30A4
:10401C00DBB2002B06D17B68002283F83C20786849
:10402C00FEF78EF97B68022283F83D207B681A68C4
:10403C007B6804331946104600F096FA7B6801221F
:10404C0083F846207B68012283F83E207B6801229E
:10405C0083F83F207B68012283F840207B68012293
:10406C0083F841207B68012283F842207B6801227F
:10407C0083F843207B68012283F844207B6801226B
:10408C0083F845207B68012283F83D2000231846E5
:10409C000837BD4680BD80B483B000AF78607B68C4
:1040AC001B681A6A41F211131340002B0FD17B6865
:1040BC001B681A6A40F244431340002B07D17B68FB
:1040CC001B681A687B681B6822F001021A607B6807
:1040DC00012283F83D20002318460C37BD4680BCD6
:1040EC007047000080B485B000AF78607B6893F8AF
:1040FC003D30DBB2012B01D001233AE07B68022278
:10410C0083F83D207B681B68DA687B681B6842F08B
:10411C000102DA607B681B68184A93420ED07B68F8
:10412C001B68B3F1804F09D07B681B68144A93421B
:10413C0004D07B681B68134A934211D17B681B68BF
:10414C009B6803F00703FB60FB68062B10D07B68B1
:10415C001B681A687B681B6842F001021A6007E052
:10416C007B681B681A687B681B6842F001021A6046
:10417C00002318461437BD4680BC7047002C014004
:10418C00000400400008004080B582B000AF7860A9
:10419C007B681B681B6903F00203022B22D17B682E
:1041AC001B68DB6803F00203022B1BD17B681B68C6
:1041BC006FF002021A617B6801221A777B681B6818
:1041CC009B6903F00303002B03D0786800F0B1F96E
:1041DC0005E0786800F0A4F9786800F0B3F97B6822
:1041EC0000221A777B681B681B6903F00403042BFD
:1041FC0022D17B681B68DB6803F00403042B1BD102
:10420C007B681B686FF004021A617B6802221A77C4
:10421C007B681B689B6903F44073002B03D07868A0
:10422C0000F087F905E0786800F07AF9786800F01A
:10423C0089F97B6800221A777B681B681B6903F07D
:10424C000803082B22D17B681B68DB6803F008038A
:10425C00082B1BD17B681B686FF008021A617B6806
:10426C0004221A777B681B68DB6903F00303002BBD
:10427C0003D0786800F05DF905E0786800F050F93B
:10428C00786800F05FF97B6800221A777B681B68FE
:10429C001B6903F01003102B22D17B681B68DB68B1
:1042AC0003F01003102B1BD17B681B686FF01002FE
:1042BC001A617B6808221A777B681B68DB6903F438
:1042CC004073002B03D0786800F033F905E0786870
:1042DC0000F026F9786800F035F97B6800221A772F
:1042EC007B681B681B6903F00103012B0ED17B68F3
:1042FC001B68DB6803F00103012B07D17B681B688B
:10430C006FF001021A617868FDF72CFE7B681B6860
:10431C001B6903F08003802B0ED17B681B68DB6864
:10432C0003F08003802B07D17B681B686FF0800241
:10433C001A61786800F077FA7B681B681B6903F0D8
:10434C004003402B0ED17B681B68DB6803F04003F5
:10435C00402B07D17B681B686FF040021A617868AC
:10436C0000F0F9F87B681B681B6903F02003202B15
:10437C000ED17B681B68DB6803F02003202B07D170
:10438C007B681B686FF020021A61786800F042FAB3
:10439C0000BF0837BD4680BD80B584B000AF7860E3
:1043AC0039607B6893F83C30012B01D10223B3E0D8
:1043BC007B68012283F83C207B68022283F83D2035
:1043CC007B681B689B68FB60FB6823F07703FB60D2
:1043DC00FB6823F47F43FB607B681B68FA689A6078
:1043EC003B681B68B3F5005F3ED0B3F5005F00F28D
:1043FC008780B3F5805F00F08580B3F5805F7FD850
:10440C00702B1AD0702B7BD8602B50D0602B77D8A8
:10441C00502B3CD0502B73D8402B58D0402B6FD8FE
:10442C00302B64D0302B6BD8202B60D0202B67D84E
:10443C00002B5CD0102B5AD062E07B6818683B686C
:10444C0099683B685A683B68DB6800F066F97B68E2
:10445C001B689B68FB60FB6843F07703FB607B6821
:10446C001B68FA689A604EE07B6818683B6899682C
:10447C003B685A683B68DB6800F04FF97B681B6847
:10448C009A687B681B6842F480429A603BE07B68C8
:10449C0018683B6859683B68DB681A4600F0C6F838
:1044AC007B681B685021184600F01DF92BE07B68D7
:1044BC0018683B6859683B68DB681A4600F0E4F8FA
:1044CC007B681B686021184600F00DF91BE07B68C7
:1044DC0018683B6859683B68DB681A4600F0A6F818
:1044EC007B681B684021184600F0FDF80BE07B68E8
:1044FC001A683B681B681946104600F0F4F802E095
:10450C0000BF00E000BF7B68012283F83D207B6880
:10451C00002283F83C20002318461037BD4680BD8E
:10452C0080B483B000AF786000BF0C37BD4680BC50
:10453C00704780B483B000AF786000BF0C37BD46C5
:10454C0080BC704780B483B000AF786000BF0C377C
:10455C00BD4680BC704780B483B000AF786000BFAC
:10456C000C37BD4680BC704780B485B000AF786016
:10457C0039607B681B68FB607B68294A93420BD0CF
:10458C007B68B3F1804F07D07B68264A934203D0F7
:10459C007B68254A934208D1FB6823F07003FB60CB
:1045AC003B685B68FA681343FB607B681C4A934268
:1045BC000BD07B68B3F1804F07D07B68194A9342CC
:1045CC0003D07B68184A934208D1FB6823F44073EC
:1045DC00FB603B68DB68FA681343FB60FB6823F005
:1045EC0080023B685B691343FB607B68FA681A6066
:1045FC003B689A687B68DA623B681A687B689A62E7
:10460C007B68074A934203D13B681A697B681A633B
:10461C007B6801225A6100BF1437BD4680BC7047CD
:10462C00002C0140000400400008004080B487B01A
:10463C0000AFF860B9607A60FB681B6A7B61FB684D
:10464C001B6A23F00102FB681A62FB689B693B61E1
:10465C003B6923F0F0033B617B681B013A69134310
:10466C003B617B6923F00A037B617A69BB68134366
:10467C007B61FB683A699A61FB687A691A6200BFD0
:10468C001C37BD4680BC704780B487B000AFF86063
:10469C00B9607A60FB681B6A23F01002FB681A622F
:1046AC00FB689B697B61FB681B6A3B617B6923F43C
:1046BC0070437B617B681B037A6913437B613B69A5
:1046CC0023F0A0033B61BB681B013A6913433B61B8
:1046DC00FB687A699A61FB683A691A6200BF1C37F9
:1046EC00BD4680BC704780B485B000AF786039603F
:1046FC007B689B68FB60FB6823F07003FB603A6887
:10470C00FB68134343F00703FB607B68FA689A600D
:10471C0000BF1437BD4680BC704780B487B000AF73
:10472C00F860B9607A603B60FB689B687B617B6971
:10473C0023F47F437B613B681A027B681A43BB6896
:10474C0013437A6913437B61FB687A699A6000BFF3
:10475C001C37BD4680BC704780B485B000AF786014
:10476C0039607B6893F83C30012B01D1022346E081
:10477C007B68012283F83C207B68022283F83D2071
:10478C007B681B685B68FB607B681B689B68BB6015
:10479C00FB6823F07003FB603B681B68FA681343EB
:1047AC00FB607B681B68FA685A607B681B68164A5A
:1047BC0093420ED07B681B68B3F1804F09D07B68A5
:1047CC001B68124A934204D07B681B68104A9342C0
:1047DC000CD1BB6823F08003BB603B685B68BA6894
:1047EC001343BB607B681B68BA689A607B680122C4
:1047FC0083F83D207B68002283F83C200023184678
:10480C001437BD4680BC7047002C014000040040AA
:10481C000008004080B483B000AF786000BF0C3754
:10482C00BD4680BC704780B483B000AF786000BFD9
:10483C000C37BD4680BC704780B582B000AF786045
:10484C007B68002B01D101233FE07B6893F83D305E
:10485C00DBB2002B06D17B68002283F83C20786801
:10486C00FDF7CAFD7B68242283F83D207B681B681A
:10487C00DA687B681B6822F40052DA60786800F012
:10488C0001FC7B681B681A697B681B6822F49042E8
:10489C001A617B681B685A697B681B6822F02A02C4
:1048AC005A617B681B68DA687B681B6842F40052AB
:1048BC00DA607B6800221A647B68202283F83D2032
:1048CC007B68202283F83E20002318460837BD461B
:1048DC0080BD80B485B000AFF860B9601346FB8032
:1048EC00FB6893F83D30DBB2202B30D1BB68002B3A
:1048FC0002D0FB88002B01D1012329E0FB6893F83F
:10490C003C30012B01D1022322E0FB68012283F809
:10491C003C20FB68BA681A62FB68FA889A84FB68C8
:10492C00FA88DA84FB6800221A64FB68212283F877
:10493C003D20FB68002283F83C20FB681B68DA688A
:10494C00FB681B6842F08002DA60002300E002235F
:10495C0018461437BD4680BC704780B584B000AF94
:10496C00F860B9601346FB80FB6893F83E30DBB20D
:10497C00202B1DD1BB68002B02D0FB88002B01D152
:10498C00012316E0FB6893F83C30012B01D1022384
:10499C000FE0FB68012283F83C20FB6800221A63BD
:1049AC00FB881A46B968F86800F0E3F9034600E0A2
:1049BC00022318461037BD4680BD000080B58AB072
:1049CC0000AF78607B681B681B687B627B681B6828
:1049DC00DB683B627B681B685B69FB610023BB6126
:1049EC0000237B617B6A03F00F03BB61BB69002B67
:1049FC000DD17B6A03F02003002B08D03B6A03F037
:104A0C002003002B03D0786800F093FA7BE1BB699C
:104A1C00002B00F0B180FB6903F00103002B05D1E2
:104A2C003B6A03F49073002B00F0A6807B6A03F0C2
:104A3C000103002B0AD03B6A03F48073002B05D0D2
:104A4C007B681B6C43F001027B681A647B6A03F081
:104A5C000403002B0AD0FB6903F00103002B05D0E3
:104A6C007B681B6C43F002027B681A647B6A03F060
:104A7C000203002B0AD0FB6903F00103002B05D0C5
:104A8C007B681B6C43F004027B681A647B6A03F03E
:104A9C000803002B0FD03B6A03F02003002B04D13A
:104AAC00FB6903F00103002B05D07B681B6C43F002
:104ABC0008027B681A647B681B6C002B00F01E815B
:104ACC007B6A03F02003002B07D03B6A03F0200322
:104ADC00002B02D0786800F02CFA7B681B685B69AD
:104AEC0003F04003002B14BF01230023DBB27B61D6
:104AFC007B681B6C03F00803002B02D17B69002B35
:104B0C0031D0786800F06EF97B681B685B6903F044
:104B1C004003002B23D07B681B685A697B681B6899
:104B2C0022F040025A617B689B6B002B13D07B6890
:104B3C009B6B764A5A637B689B6B1846FDF70AFFA2
:104B4C000346002B16D07B689B6B5B6B7A68926B71
:104B5C00104698470EE0786800F0DAF80AE07868BA
:104B6C0000F0D6F806E0786800F0D2F87B680022F6
:104B7C001A64C3E000BFC1E07B681B6B012B40F0E3
:104B8C00A1807B6A03F01003002B00F09B803B6A32
:104B9C0003F01003002B00F095800023FB607B6872
:104BAC001B681B68FB607B681B685B68FB60FB68B1
:104BBC007B681B685B6903F04003002B4ED07B685D
:104BCC009B6B1B685B683B823B8A002B00F09880D8
:104BDC007B689B8D3A8A9A4280F092807B683A8AF5
:104BEC00DA857B689B6B9B69202B2BD07B681B68C1
:104BFC00DA687B681B6822F48072DA607B681B6859
:104C0C005A697B681B6822F001025A617B681B6839
:104C1C005A697B681B6822F040025A617B6820222B
:104C2C0083F83E207B6800221A637B681B68DA6875
:104C3C007B681B6822F01002DA607B689B6B18465D
:104C4C00FDF74DFE7B689A8D7B68DB8D9BB2D31A8A
:104C5C009BB21946786800F064F851E07B689A8D35
:104C6C007B68DB8D9BB2D31A7B827B68DB8D9BB21E
:104C7C00002B47D07B8A002B44D07B681B68DA68FA
:104C8C007B681B6822F49072DA607B681B685A6937
:104C9C007B681B6822F001025A617B68202283F832
:104CAC003E207B6800221A637B681B68DA687B688D
:104CBC001B6822F01002DA607B8A1946786800F0D3
:104CCC0030F81FE07B6A03F08003002B08D03B6AAE
:104CDC0003F08003002B03D0786800F0C3F812E0D7
:104CEC007B6A03F04003002B0DD03B6A03F04003BA
:104CFC00002B08D0786800F004F904E000BF02E053
:104D0C0000BF00E000BF2837BD4680BD494E0008FB
:104D1C0080B483B000AF786000BF0C37BD4680BC58
:104D2C00704780B483B000AF78600B467B8000BFC7
:104D3C000C37BD4680BC704780B485B000AF78603E
:104D4C000023FB600023BB607B6893F83D30DBB233
:104D5C00FB607B6893F83E30DBB2BB60FB68DAB279
:104D6C00BB68DBB21343DBB218461437BD4680BCBC
:104D7C00704780B485B000AFF860B9601346FB8013
:104D8C00FB68BA689A62FB68FA889A85FB68FA88AD
:104D9C00DA85FB6800221A64FB68222283F83E2025
:104DAC00FB68002283F83C20FB681B68DA68FB6810
:104DBC001B6842F48072DA60FB681B685A69FB68F6
:104DCC001B6842F001025A61FB681B68DA68FB68D9
:104DDC001B6842F02002DA60002318461437BD46E7
:104DEC0080BC704780B483B000AF78607B681B6870
:104DFC00DA687B681B6822F49072DA607B681B6847
:104E0C005A697B681B6822F001025A617B681B6B34
:104E1C00012B07D17B681B68DA687B681B6822F062
:104E2C001002DA607B68202283F83E207B68002227
:104E3C001A6300BF0C37BD4680BC704780B584B088
:104E4C0000AF78607B685B6AFB60FB680022DA85E8
:104E5C00FB680022DA84F868FFF75AFF00BF1037AE
:104E6C00BD4680BD80B485B000AF78607B6893F898
:104E7C003D30DBB2212B3ED17B689B68B3F5805F64
:104E8C0014D17B681B69002B10D17B681B6AFB60FB
:104E9C00FB681B881A467B681B68C2F308025A60C1
:104EAC007B681B6A9A1C7B681A6208E07B681B6A29
:104EBC00591C7A6811621A787B681B685A607B6887
:104ECC00DB8C9BB2013B9BB27A681946D184002BD8
:104EDC000FD17B681B68DA687B681B6822F0800244
:104EEC00DA607B681B68DA687B681B6842F04002FA
:104EFC00DA60002300E0022318461437BD4680BC5C
:104F0C00704780B582B000AF78607B681B68DA6848
:104F1C007B681B6822F04002DA607B68202283F8F1
:104F2C003D207868FDF708F8002318460837BD4681
:104F3C0080BD80B586B000AF78607B6893F83E305A
:104F4C00DBB2222B40F099807B689B68B3F5805FC5
:104F5C0017D17B681B69002B13D100237B617B6805
:104F6C009B6A3B617B681B685B689BB2C3F308035D
:104F7C009AB23B691A807B689B6A9A1C7B689A621E
:104F8C0026E07B689B6A7B6100233B617B689B68A6
:104F9C00B3F5805F07D07B689B68002B0AD17B68D8
:104FAC001B69002B06D17B681B685B68DAB27B69D6
:104FBC001A7008E07B681B685B68DBB203F07F0348
:104FCC00DAB27B691A707B689B6A5A1C7B689A629E
:104FDC007B68DB8D9BB2013B9BB27A681946D1850D
:104FEC00002B48D17B681B68DA687B681B6822F051
:104FFC002002DA607B681B68DA687B681B6822F425
:10500C008072DA607B681B685A697B681B6822F0C7
:10501C0001025A617B68202283F83E207B681B6B5F
:10502C00012B23D17B6800221A637B681B68DA682A
:10503C007B681B6822F01002DA607B681B681B68B7
:10504C0003F01003102B0AD10023FB607B681B6854
:10505C001B68FB607B681B685B68FB60FB687B689C
:10506C009B8D19467868FFF75CFE02E07868FCF7C8
:10507C0027FF002302E0002300E002231846183724
:10508C00BD4680BD80B584B000AF78607B681B687E
:10509C001B6923F440517B68DA687B681B680A4300
:1050AC001A617B689A687B681B691A437B685B6929
:1050BC001343BB607B681B68DB6823F4B05323F09D
:1050CC000C037A681268B9680B43D3607B681B6861
:1050DC005B6923F440717B689A697B681B680A439F
:1050EC005A617B681B682C4A934203D1FEF746FA3F
:1050FC00F86002E0FEF72EFAF860FA6813469B009F
:10510C0013449A001A447B685B689B00B2FBF3F370
:10511C00224AA2FB03235B091901FA6813469B0080
:10512C0013449A001A447B685B689B00B2FBF3F251
:10513C001A4BA3FB02035B09642000FB03F3D31A95
:10514C001B013233154AA2FB03235B0903F0F00366
:10515C001944FA6813469B0013449A001A447B685E
:10516C005B689B00B2FBF3F20C4BA3FB02035B09E5
:10517C00642000FB03F3D31A1B013233074AA2FB52
:10518C0003235B0903F00F027B681B680A449A60D7
:10519C0000BF1037BD4680BD003801401F85EB5164
:1051AC000A22002100F0AEB8014B1868704700BF0E
:1051BC00E003002070B500260C4D0D4C641BA410B0
:1051CC00A64209D100F0A8F800260A4D0A4C641B2F
:1051DC00A410A64205D170BD55F8043B9847013682
:1051EC00EEE755F8043B98470136F2E7685400089F
:1051FC0068540008685400087054000803460244C0
:10520C00934200D1704703F8011BF9E7012B2DE9FC
:10521C00F047804601D0242B06D9FFF7C5FF162393
:10522C0003600020BDE8F0870D46354F284615F881
:10523C00014BE65D16F00806F8D12D2C2FD1012676
:10524C002C78851C002B57D0102B09D1302C07D172
:10525C00287800F0DF00582849D110236C780235EB
:10526C00002706F1004E0EF1FF3EBEFBF3F9384667
:10527C0003FB19EAA4F1300CBCF1090F14D86446F5
:10528C00A34222DD002F1DDB81451BD301D1A2459A
:10529C0018DB012700FB034015F8014BEAE72B2C28
:1052AC0004BF2C78851CCDE7A4F1410CBCF1190F7F
:1052BC0001D8373CE4E7A4F1610CBCF1190F04D818
:1052CC00573CDDE74FF0FF37E6E7002F07DA2223E4
:1052DC007046C8F80030002AA4D0691E05E006B15B
:1052EC004042002A9ED0002FF7D111609AE730245B
:1052FC00002BB5D10823B3E7302CA9D00A23AFE794
:10530C006553000813460A46014602480068FFF739
:10531C007DBF00BFE0030020F8B500BFF8BC08BC9F
:10532C009E467047F8B500BFF8BC08BC9E46704757
:10533C0002030405060708090A0B0C0D0E0F1010CA
:10534C000000000000000000010203040607080929
:10535C000000000001020304002020202020202057
:10536C002020282828282820202020202020202009
:10537C002020202020202020208810101010101019
:10538C001010101010101010100404040404040465
:10539C0004040410101010101010414141414141FF
:1053AC0001010101010101010101010101010101E1
:1053BC0001010101101010101010424242424242F1
:1053CC0002020202020202020202020202020202B1
:1053DC000202020210101010200000000000000059
:1053EC0000000000000000000000000000000000B1
:1053FC0000000000000000000000000000000000A1
:10540C000000000000000000000000000000000090
:10541C000000000000000000000000000000000080
:10542C000000000000000000000000000000000070
:10543C000000000000000000000000000000000060
:10544C000000000000000000000000000000000050
:0C545C0000000000000000000000000044
:085468003101000825220008B3
:085470000D01000835220008BF
:105478000000000000FFFFFF0000204AEB03380A8D
:105488000F2167000000C0000707D00828000000AF
:10549800000000000000FFFF000000000000B8004E
:1054A800000000001964FFFFFFFFFFFF0A0F210142
:1054B8001D4C0000000080000000000000000202F7
:1054C800080000000000000000000000FF4000008D
:1054D80000000000196550EBF64DBA120A0F2101C1
:1054E8001D4C0000000080000000000000000202C7
:1054F800080000000000000000000000FF4000005D
:10550800000000001E6150EBF64DBA120A0F21018F
:1055180000170000000080000000000000000202E8
:10552800080000000000000000000000FF4000002C
:1055380053657474696E6720414354412E3436387C
:105548003335332E3032300A0A0D547970652049CC
:10555800502061646472657373202831737420620B
:10556800697429205B2020205D3A200054797065F9
:1055780020495020416464726573732028326E6438
:105588002062697429205B2020205D3A20000000F9
:1055980054797065204950204164647265737320A2
:1055A800283372642062697429205B2020205D3AC8
:1055B80020000000547970652049502041646472CD
:1055C80065737320283474682062697429205B200D
:1055D80020205D3A200000005479706520537562E0
:1055E8006E6574204D61736B2041646472657373DA
:1055F80020283173742062697429205B2020205D83
:105608003A20000054797065205375626E657420E5
:105618004D61736B20416464726573732028326E28
:10562800642062697429205B2020205D3A200000F4
:1056380054797065205375626E6574204D61736B83
:105648002041646472657373202833726420626930
:105658007429205B2020205D3A2000005479706571
:10566800205375626E6574204D61736B20416464CC
:105678007265737320283474682062697429205B0A
:105688002020205D3A20000054797065204D414368
:1056980020416464726573732028317374206F63CA
:1056A80074657429205B20205D3A20005479706568
:1056B800204D414320416464726573732028326E23
:1056C80064206F6374657429205B20205D3A200094
:1056D80054797065204D4143204164647265737349
:1056E8002028337264206F6374657429205B20203E
:1056F8005D3A200054797065204D4143204164642F
:10570800726573732028347468206F637465742914
:10571800205B20205D3A200054797065204D41437C
:1057280020416464726573732028357468206F6340
:1057380074657429205B20205D3A200054797065D7
:10574800204D414320416464726573732028367488
:1057580068206F6374657429205B20205D3A2000FF
:105768000A0D536F2C20796F7572207365747469F4
:105778006E672069733A0A0D495020416464726566
:105788007373207878782E7878782E7878782E78D1
:1057980078780A0D5375626E6574204D61736B20BD
:1057A800416464726573733A207878782E787878D3
:1057B8002E7878782E7878780A0D4D414320416408
:1057C80064726573732078783A78783A78783A789A
:1057D800783A78783A78780A0A0D446F20796F75A4
:1057E8002077616E7420746F20736176652073650D
:1057F8007474696E673F5B792F6E5D3A2000000014
:10580800FC00002020010020440100206801002045
:1058180094010020C0010020EC01002018020020A3
:105828003C0200206002002084020020A802002020
:10583800CC020020F00200200420002004200020D8
:10584800042100200024F4001000000001000000E2
:10585800E403002000000000000000000000000039
:105868000000000000000000000000000000000030
:105878000000000000000000000000000000000020
:105888000000000000000000000000000000000010
:105898000000000000000000000000000000000000
:1058A80000000000000000000000000000000000F0
:0458B80000000000EC
:040000050800257951
:00000001FF
