:020000040800F2
:10000000005000206D0E0008B50D0008BB0D000863
:10001000C10D0008C70D0008CD0D0008000000004C
:10002000000000000000000000000000D30D0008E8
:10003000DF0D000800000000EB0D0008F70D0008C0
:10004000B50E0008B50E0008B50E0008B50E000884
:10005000B50E0008B50E0008B50E0008B50E000874
:10006000B50E0008B50E0008030E0008B50E000816
:10007000B50E0008B50E0008B50E0008B50E000854
:10008000B50E0008B50E0008B50E0008B50E000844
:10009000B50E0008B50E0008B50E0008B50E000834
:1000A000B50E0008B50E0008B50E0008B50E000824
:1000B000B50E0008110E0008250E0008B50E000848
:1000C000B50E0008B50E0008B50E0008390E000880
:1000D000B50E00084D0E0008B50E0008B50E00085C
:1000E000B50E0008B50E0008B50E000800000000AF
:1000F0000000000000000000000000000000000000
:0C01000000000000000000005FF808F1A3
:10010C0010B5054C237833B9044B13B10448AFF345
:10011C0000800123237010BD70000020000000003F
:10012C005C3C000808B5034B1BB103490348AFF313
:10013C00008008BD00000000740000205C3C00083A
:10014C0080B584B000AFF860B9607A607B80FB68E2
:10015C00103340220021184603F072FDFB68503327
:10016C0040220021184603F06BFDFB68BA681A6048
:10017C00FB687A685A60FB687A889A81FB68BA696E
:10018C009A60FB68BA8BDA81FB6818461037BD465B
:10019C0080BD80B582B000AF78607B6898687B6862
:1001AC00DB890122194601F049FC00BF0837BD4626
:1001BC0080BD80B584B002AF78607B6800221A7471
:1001CC007B6839225A747B6800229A747B68586861
:1001DC007B689B890022194601F030FC7B6818680B
:1001EC007B6803F110017B6803F1500264230093D8
:1001FC00042302F0FDF87B6858687B689B89012218
:10020C00194601F01BFC7B6893F8533018460837ED
:10021C00BD4680BD80B584B002AF786039607B6824
:10022C0000221A747B6809225A747B6800229A7423
:10023C007B6858687B689B890022194601F0FEFB9D
:10024C007B6818687B6803F110017B6803F150022E
:10025C0064230093092302F0CBF87B6858687B6811
:10026C009B890122194601F0E9FB7B6893F8532026
:10027C003B681A703B6801337A6892F854201A7004
:10028C003B6802337A6892F855201A703B68033346
:10029C007A6892F856201A703B6804337A6892F8A0
:1002AC0057201A703B6805337A6892F858201A70F8
:1002BC0000BF0837BD4680BD80B586B000AF01F0E9
:1002CC00A9F80023BB60204B3B6101237B61002319
:1002DC007B603A1D07F108031146184601F082F9BC
:1002EC0006221A49184800F053F8062218491948F2
:1002FC0000F04EF806221849184800F049F806227A
:10030C001749184800F044F806221749174800F01E
:10031C003FF806221649174800F03AF8062216490B
:10032C00164800F035F806221549164800F030F84A
:10033C0006221549154800F02BF801F091F800BF82
:10034C001837BD4680BD00BF00FC0108000000202E
:10035C00C001002040FC0108F001002078FC0108DD
:10036C0020020020B0FC010850020020E8FC01082B
:10037C008002002020FD0108B002002058FD010879
:10038C00E002002090FD010830000020C8FD0108AB
:10039C0080B586B000AFF860B9607A6000237B61ED
:1003AC007A697B689A4217D27B69DA00FB68D118AC
:1003BC00BB6803F10802BA60D3E90023032000F004
:1003CC00B9FF0346FB74FB7C002B03D17B69013323
:1003DC007B61E5E700BF00BF00BF1837BD4680BD9D
:1003EC0080B500AF0C221749174800F04FF80C22CB
:1003FC001649174800F04AF80C221649164800F026
:10040C0045F80C221549164800F040F80C22154905
:10041C00154800F03BF80C221449154800F036F84A
:10042C000C221449144800F031F80C2213491448DA
:10043C0000F02CF80C221349134800F027F800BFE9
:10044C0080BD00BF0000002000FC0108C00100209E
:10045C0040FC0108F001002078FC0108200200207B
:10046C00B0FC010850020020E8FC010880020020CA
:10047C0020FD0108B002002058FD0108E002002018
:10048C0090FD010830000020C8FD010880B487B041
:10049C0000AFF860B9607A6000237B617A697B6891
:1004AC009A420ED27B699A00FB68134419467B6909
:1004BC009B00BA6813440A681A607B6901337B613C
:1004CC00ECE700BF1C37BD4680BC704780B483B0DE
:1004DC0000AF78607B6800221A607B6800225A604B
:1004EC007B6800229A607B680022DA607B680022BD
:1004FC001A747B68084A1A60084A7B685A607B68E1
:10050C00054A9A607B68044ADA607B6818460C37A7
:10051C00BD4680BC704700BF8C00002094000020BA
:10052C0080B5A6B002AF00F0C1FC00F067F800F097
:10053C00D7F900F0B3F800F0A5F900F047F900F096
:10054C00E9F8FFF7B9FEFFF74BFF3846102301938C
:10055C00214B00932023204A2049FFF7F1FD3B4615
:10056C001846FFF716FE01221D491E4802F03DFFFA
:10057C001D4B1B78002B02D01C4B1B78412B4FF4CE
:10058C007A7000F0F5FC3B461846FFF712FE034666
:10059C001A46174B1A7000224FF48071154801F05F
:1005AC004DFA012212490F4802F0DBFE4FF47A702B
:1005BC0000F0DEFC3B4610491846FFF72BFE0022EC
:1005CC004FF480710B4801F039FA06220A490548AC
:1005DC0002F0C7FECCE700BF0010014094000020E1
:1005EC00100300207C010020950300201403002040
:1005FC0011030020000C01409803002080B590B03E
:10060C0000AF07F1180328220021184603F018FB4D
:10061C003B1D00221A605A609A60DA601A6101234D
:10062C00BB614FF48033FB6100233B620123BB624F
:10063C0002237B634FF48033BB634FF40023FB63D3
:10064C0007F11803184601F033FA0346002B14BFC8
:10065C0001230023DBB2002B01D000F067FA0F233B
:10066C007B600223BB600023FB604FF480633B6123
:10067C0000237B613B1D0121184601F09BFC0346C6
:10068C00002B14BF01230023DBB2002B01D000F0A0
:10069C004DFA00BF4037BD4680BD000080B500AFAD
:1006AC001A4B1B4A1A60194B4FF482725A60174B43
:1006BC0000229A60154B0022DA60144B00221A615A
:1006CC00124B00225A61114B4FF400729A610F4B7E
:1006DC000822DA610D4B00221A620C4B00225A627E
:1006EC000A4B00229A62094B0A22DA62074801F08F
:1006FC00FBFD0346002B14BF01230023DBB2002BB0
:10070C0001D000F013FA00BF80BD00BF94000020A0
:10071C000030014080B586B000AF07F1080300221D
:10072C001A605A609A60DA603B4600221A605A607E
:10073C00244B254A1A60234B0B225A60214B002272
:10074C009A60204B44F62062DA601E4B00221A613C
:10075C001C4B00229A611B4802F096F90346002BB1
:10076C0014BF01230023DBB2002B01D000F0DEF913
:10077C004FF48053BB6007F108031946114802F08F
:10078C0053FB0346002B14BF01230023DBB2002BC9
:10079C0001D000F0CBF900233B6000237B603B468B
:1007AC001946084802F020FD0346002B14BF012314
:1007BC000023DBB2002B01D000F0B8F900BF1837D2
:1007CC00BD4680BDEC0000200004004080B586B022
:1007DC0000AF07F1080300221A605A609A60DA60D1
:1007EC003B4600221A605A60244B254A1A60234B60
:1007FC0003225A60214B00229A60204B42F6E062A1
:10080C00DA601E4B00221A611C4B00229A611B48B5
:10081C0002F03AF90346002B14BF01230023DBB28C
:10082C00002B01D000F082F94FF48053BB6007F12C
:10083C0008031946114802F0F7FA0346002B14BFBF
:10084C0001230023DBB2002B01D000F06FF9002351
:10085C003B6000237B603B461946084802F0C4FC11
:10086C000346002B14BF01230023DBB2002B01D065
:10087C0000F05CF900BF1837BD4680BD3401002084
:10088C000008004080B500AF134B144A1A60124B9D
:10089C004FF416525A60104B00229A600E4B0022F5
:1008AC00DA600D4B00221A610B4B0C225A610A4B79
:1008BC0000229A61084B0022DA61074802F004FD1D
:1008CC000346002B14BF01230023DBB2002B01D005
:1008DC0000F02CF900BF80BD7C01002000380140E5
:1008EC0080B588B000AF07F1100300221A605A607F
:1008FC009A60DA603F4B9B693E4A43F02003936158
:10090C003C4B9B6903F02003FB60FB68394B9B69F4
:10091C00384A43F004039361364B9B6903F004039C
:10092C00BB60BB68334B9B69324A43F01003936145
:10093C00304B9B6903F010037B607B682D4B9B69EC
:10094C002C4A43F0080393612A4B9B6903F008037C
:10095C003B603B6800223021274801F06FF80122F0
:10096C004FF44071254801F069F810233B61244B8A
:10097C007B610023BB6107F110031946214800F08D
:10098C00D9FE30233B6101237B610023BB61022331
:10099C00FB6107F110031946174800F0CBFE4FF42A
:1009AC0080733B6111237B610023BB610223FB61DC
:1009BC0007F110031946114800F0BCFE4FF4007308
:1009CC003B6101237B610023BB610223FB6107F1C7
:1009DC0010031946094800F0ADFE002200210A2040
:1009EC0000F0C1FB0A2000F0DAFB00BF2037BD4647
:1009FC0080BD00BF0010024000100140000C0140FF
:100A0C00000021100008014080B582B000AF786072
:100A1C007B68144A934221D100224FF40071124892
:100A2C0001F00CF8114802F0A5F8114B1B680022DC
:100A3C005A620F4802F09EF80E4B1B781A460E4B6A
:100A4C0019780E4B99540B4B1B780133DAB2094BC6
:100A5C001A7001220849034802F0C7FC00BF08378E
:100A6C00BD4680BD7C010020000C014034010020FB
:100A7C00EC0000209403002010030020140300203D
:100A8C0080B582B000AF78607B68064A934205D18E
:100A9C0001224FF48071044800F0D0FF00BF0837EA
:100AAC00BD4680BD7C010020000C014080B582B0A9
:100ABC0000AF78607B681B68144A934213D11448CA
:100ACC0002F031F800224FF48071124800F0B6FFAA
:100ADC00114B1B789BB21A461049114802F041FC8D
:100AEC000D4B00221A707B681B680E4A934208D18A
:100AFC000D4802F018F801224FF40071054800F07F
:100B0C009DFF00BF0837BD4680BD00BF00040040FC
:100B1C00EC000020000C0140940300201403002082
:100B2C007C010020000800403401002080B400AF9C
:100B3C0072B600BFFEE7000080B582B000AF7860EF
:100B4C0039607B68012B07D13B684FF6FF729342EB
:100B5C0002D10348FFF7BAFC00BF0837BD4680BD81
:100B6C00A003002080B500AF4FF6FF710120FFF706
:100B7C00E3FF80BD80B485B000AF154B9B69144A70
:100B8C0043F001039361124B9B6903F00103BB60BB
:100B9C00BB680F4BDB690E4A43F08053D3610C4B9F
:100BAC00DB6903F080537B607B680A4B5B68FB60FE
:100BBC00FB6823F0E063FB60FB6843F00073FB60B1
:100BCC00044AFB68536000BF1437BD4680BC7047B5
:100BDC00001002400000014080B588B000AF786082
:100BEC0007F1100300221A605A609A60DA607B6881
:100BFC001B681F4A934237D11E4B9B691D4A43F415
:100C0C00805393611B4B9B6903F48053FB60FB681F
:100C1C00184B9B69174A43F004039361154B9B696E
:100C2C0003F00403BB60BB68A0233B6102237B6120
:100C3C000323FB6107F1100319460F4800F07AFDFE
:100C4C0040233B6100237B610023BB6107F1100350
:100C5C001946094800F06EFD00220021232000F007
:100C6C0082FA232000F09BFA00BF2037BD4680BDDE
:100C7C0000300140001002400008014080B584B0F3
:100C8C0000AF78607B681B681A4A934214D11A4BE8
:100C9C00DB69194A43F00203D361174BDB6903F09C
:100CAC000203FB60FB68002200211D2000F05BFAB0
:100CBC001D2000F074FA18E07B681B680F4A934201
:100CCC0013D10D4BDB690C4A43F00403D3610A4B7F
:100CDC00DB6903F00403BB60BB68002200211E200B
:100CEC0000F041FA1E2000F05AFA00BF1037BD4642
:100CFC0080BD00BF0004004000100240000800400E
:100D0C0080B588B000AF786007F1100300221A603C
:100D1C005A609A60DA607B681B68204A934239D12A
:100D2C001F4B9B691E4A43F4804393611C4B9B6988
:100D3C0003F48043FB60FB68194B9B69184A43F032
:100D4C0004039361164B9B6903F00403BB60BB68FF
:100D5C004FF400733B6102237B610323FB6107F1BA
:100D6C00100319460F4800F0E5FC4FF480633B611B
:100D7C0000237B610023BB6107F11003194609486E
:100D8C0000F0D8FC00220021252000F0ECF92520F1
:100D9C0000F005FA00BF2037BD4680BD0038014089
:100DAC00001002400008014080B400AFFEE780B4A0
:100DBC0000AFFEE780B400AFFEE780B400AFFEE703
:100DCC0080B400AFFEE780B400AF00BFBD4680BC6E
:100DDC00704780B400AF00BFBD4680BC704780B484
:100DEC0000AF00BFBD4680BC704780B500AF00F0BF
:100DFC00A3F800BF80BD80B500AF102000F036FE18
:100E0C0000BF80BD80B500AF024801F005FF00BFF8
:100E1C0080BD00BFEC00002080B500AF024801F09F
:100E2C00FBFE00BF80BD00BF3401002080B500AFC9
:100E3C00024801F07FFC00BF80BD00BF9400002081
:100E4C0080B500AF024802F001FB00BF80BD00BFBF
:100E5C007C01002080B400AF00BFBD4680BC704751
:100E6C000C480D490D4A002302E0D458C4500433F9
:100E7C00C4188C42F9D30A4A0A4C002301E01360CF
:100E8C000432A242FBD3FFF7E5FF02F0B5FEFFF7F9
:100E9C0047FB7047000000206C000020A83C0008B5
:100EAC0070000020D8030020FEE7000080B500AFE2
:100EBC00084B1B68074A43F010031360032000F033
:100ECC0047F90F2000F008F8FFF754FE00231846EE
:100EDC0080BD00BF0020024080B582B000AF7860BA
:100EEC00124B1A68124B1B7819464FF47A73B3FBEA
:100EFC00F1F3B2FBF3F3184600F05FF90346002B55
:100F0C0001D001230EE07B680F2B0AD800227968F0
:100F1C004FF0FF3000F027F9064A7B68136000237E
:100F2C0000E0012318460837BD4680BD6000002054
:100F3C00680000206400002080B400AF054B1B78D3
:100F4C001A46054B1B681344034A136000BFBD4689
:100F5C0080BC704768000020B403002080B400AF50
:100F6C00024B1B681846BD4680BC7047B40300207A
:100F7C0080B584B000AF7860FFF7F0FFB8607B6895
:100F8C00FB60FB68B3F1FF3F05D00A4B1B781A4698
:100F9C00FB681344FB6000BFFFF7E0FF0246BB6831
:100FAC00D31AFA689A42F7D800BF00BF1037BD4673
:100FBC0080BD00BF6800002080B485B000AF7860B1
:100FCC007B6803F00703FB600C4BDB68BB60BA6803
:100FDC004FF6FF031340BB60FB681A02BB68134358
:100FEC0043F0BF6343F40033BB60044ABB68D36077
:100FFC0000BF1437BD4680BC704700BF00ED00E059
:10100C0080B400AF044BDB681B0A03F007031846DF
:10101C00BD4680BC704700BF00ED00E080B483B0DB
:10102C0000AF0346FB7197F90730002B0BDBFB7904
:10103C0003F01F02064997F907305B09012000FAFB
:10104C0002F241F8232000BF0C37BD4680BC70472C
:10105C0000E100E080B483B000AF03463960FB715F
:10106C0097F90730002B0ADB3B68DAB20C4997F989
:10107C0007301201D2B20B4483F800230AE03B681C
:10108C00DAB20849FB7903F00F03043B1201D2B228
:10109C000B441A7600BF0C37BD4680BC704700BFAE
:1010AC0000E100E000ED00E080B489B000AFF86032
:1010BC00B9607A60FB6803F00703FB61FB69C3F15D
:1010CC000703042B28BF0423BB61FB690433062BE5
:1010DC0002D9FB69033B00E000237B614FF0FF3238
:1010EC00BB6902FA03F3DA43BB681A407B699A4086
:1010FC004FF0FF317B6901FA03F3D9437B680B4056
:10110C00134318462437BD4680BC704780B582B067
:10111C0000AF78607B68013BB3F1807F01D3012382
:10112C000FE00A4A7B68013B53600F214FF0FF3000
:10113C00FFF790FF054B00229A60044B07221A60C0
:10114C00002318460837BD4680BD00BF10E000E004
:10115C0080B582B000AF78607868FFF72DFF00BFD4
:10116C000837BD4680BD80B586B000AF0346B96078
:10117C007A60FB7300237B61FFF742FF78617A682A
:10118C00B9687869FFF790FF024697F90F3011465E
:10119C001846FFF75FFF00BF1837BD4680BD80B50E
:1011AC0082B000AF0346FB7197F907301846FFF782
:1011BC0035FF00BF0837BD4680BD80B582B000AF9B
:1011CC0078607868FFF7A2FF034618460837BD46DB
:1011DC0080BD80B485B000AF78600023FB737B6862
:1011EC0093F82130022B08D07B6804229A637B6829
:1011FC00002283F82020012320E07B681B681A68FA
:10120C007B681B6822F00E021A607B681B681A68E8
:10121C007B681B6822F001021A607B681A6C7B6881
:10122C00DB6B012101FA02F25A607B68012283F820
:10123C0021207B68002283F82020FB7B1846143782
:10124C00BD4680BC7047000080B584B000AF7860AC
:10125C000023FB737B6893F82130022B05D07B684D
:10126C0004229A630123FB7351E07B681B681A68A4
:10127C007B681B6822F00E021A607B681B681A6878
:10128C007B681B6822F001021A607B681B68224A8B
:10129C00934229D07B681B68204A934222D07B68FA
:1012AC001B681F4A93421AD07B681B681D4A9342E5
:1012BC0012D07B681B681C4A93420AD07B681B685F
:1012CC001A4A934202D14FF480130EE04FF0807310
:1012DC000BE04FF4803308E04FF4805305E04FF4FB
:1012EC00807302E0102300E00123114A53607B68F5
:1012FC00012283F821207B68002283F820207B6860
:10130C005B6B002B03D07B685B6B78689847FB7B2F
:10131C0018461037BD4680BD080002401C00024034
:10132C003000024044000240580002406C00024071
:10133C0000000240F0B587B000AFF860B960C7E9B3
:10134C0000230123FB750023BB7500237B752F4BFA
:10135C001B7E012B01D1022354E02C4B01221A7667
:10136C004CF2503000F0A8F80346FB75FB7D002BC7
:10137C0044D1FB68012B02D101237B7507E0FB688C
:10138C00022B02D102237B7501E004237B75002321
:10139C00BB752DE0BB7D5A00BB6802EB030CBB7D1B
:1013AC001901D7E90023C1F12006A1F1200022FA8E
:1013BC0001F403FA06F6344323FA00F0044323FA4B
:1013CC0001F5A3B21946604600F05AF84CF25030C1
:1013DC0000F072F80346FB750D4B1B690C4A23F0A9
:1013EC0001031361FB7D002B07D1BB7D0133BB7562
:1013FC00BA7D7B7D9A42CDD300E000BF034B002227
:10140C001A76FB7D18461C37BD46F0BDB80300208C
:10141C000020024080B483B000AF0023FB710D4B61
:10142C001B6903F08003002B0DD00A4B0A4A5A604B
:10143C00084B0A4A5A60074B1B6903F08003002BC8
:10144C0001D00123FB71FB7918460C37BD4680BCDB
:10145C00704700BF0020024023016745AB89EFCDE8
:10146C0080B400AF054B1B69044A43F08003136141
:10147C0000231846BD4680BC704700BF00200240C8
:10148C0080B483B000AF78600B467B80084B0022A1
:10149C00DA61084B1B69074A43F0010313617B684F
:1014AC007A881A8000BF0C37BD4680BC704700BFDD
:1014BC00B80300200020024080B584B000AF7860F3
:1014CC00FFF74CFDF86010E07B68B3F1FF3F0CD0E8
:1014DC007B68002B07D0FFF741FD0246FB68D31A4F
:1014EC007A689A4201D2032325E0154BDB6803F09E
:1014FC000103002BE8D1124BDB6803F02003002B17
:10150C0002D00F4B2022DA600D4BDB6803F0100386
:10151C00002B0BD10A4BDB6903F00103002B05D127
:10152C00074BDB6803F00403002B03D000F00AF830
:10153C00012300E0002318461037BD4680BD00BFD4
:10154C000020024080B483B000AF00237B60234BAB
:10155C00DB6803F01003002B09D0214BDB6943F04F
:10156C0002031F4AD3617B6843F010037B601B4B63
:10157C00DB6803F00403002B09D0194BDB6943F043
:10158C000103174AD3617B6843F004037B60134B60
:10159C00DB6903F00103002B0BD0114BDB6943F02B
:1015AC0004030F4AD3610D4BDB690C4A23F0010392
:1015BC00D3617B6840F20112934206D1074BDB6981
:1015CC00064A23F00103D36102E0044A7B68D3602E
:1015DC0000BF0C37BD4680BC704700BF00200240E6
:1015EC00B803002080B584B000AF78603960012367
:1015FC00FB730023BB602F4B1B7E012B01D10223FD
:10160C0053E02C4B01221A767B681B68022B16D1F7
:10161C004CF25030FFF750FF0346002B41D1012014
:10162C0000F04CF84CF25030FFF746FF0346FB73CA
:10163C00214B1B69204A23F00403136131E04CF267
:10164C005030FFF739FF0346002B2AD13B684FF08F
:10165C00FF321A607B689B68BB6019E0B86800F0C9
:10166C0049F84CF25030FFF727FF0346FB73124B3F
:10167C001B69114A23F002031361FB7B002B03D07F
:10168C003B68BA681A600CE0BB6803F58063BB600A
:10169C007B68DB689A027B689B681344BA689A4241
:1016AC00DCD3044B00221A76FB7B18461037BD4660
:1016BC0080BD00BFB80300200020024080B483B07E
:1016CC0000AF7860094B0022DA61094B1B69084AAC
:1016DC0043F004031361064B1B69054A43F04003B6
:1016EC00136100BF0C37BD4680BC7047B8030020A7
:1016FC000020024080B483B000AF78600B4B002216
:10170C00DA610B4B1B690A4A43F002031361084A66
:10171C007B685361064B1B69054A43F04003136118
:10172C0000BF0C37BD4680BC704700BFB80300201B
:10173C000020024080B48BB000AF78603960002389
:10174C007B6200233B6269E101227B6A02FA03F3AC
:10175C00FB613B681B68FA691340BB61BA69FB69A2
:10176C009A4240F058813B685B689A4A93425ED03B
:10177C00984A934275D8984A934258D0964A9342C5
:10178C006FD8964A934252D0944A934269D8944A5D
:10179C0093424CD0924A934263D8924A934246D099
:1017AC00904A93425DD8122B2AD8122B59D801A2F9
:1017BC0052F823F03B1800081518000827180008E9
:1017CC00691800086F1800086F1800086F180008D7
:1017DC006F1800086F1800086F1800086F180008C1
:1017EC006F1800086F1800086F1800086F180008B1
:1017FC006F1800086F1800081D1800083118000831
:10180C00794A934213D02CE03B68DB683B6229E0B9
:10181C003B68DB6804333B6224E03B68DB680833DD
:10182C003B621FE03B68DB680C333B621AE03B68B1
:10183C009B68002B02D104233B6213E03B689B683E
:10184C00012B05D108233B627B68FA691A6109E018
:10185C0008233B627B68FA695A6103E000233B6210
:10186C0000E000BFBB69FF2B01D87B6801E07B68FF
:10187C0004337B61BB69FF2B02D87B6A9B0002E0BF
:10188C007B6A083B9B003B617B691A680F213B69B3
:10189C0001FA03F3DB431A40396A3B6901FA03F39B
:1018AC001A437B691A603B685B6803F08053002B1A
:1018BC0000F0B1804D4B9B694C4A43F0010393619E
:1018CC004A4B9B6903F00103BB60BB68484A7B6AC7
:1018DC009B08023352F82330FB607B6A03F003034E
:1018EC009B000F2202FA03F3DB43FA681340FB6000
:1018FC007B68404A934213D07B683F4A93420DD099
:10190C007B683E4A934207D07B683D4A934201D1A3
:10191C00032306E0042304E0022302E0012300E099
:10192C0000237A6A02F0030292009340FA68134390
:10193C00FB602F497B6A9B080233FA6841F823202D
:10194C003B685B6803F48033002B06D02D4B1A6880
:10195C002C49BB6913430B6006E02A4B1A68BB6920
:10196C00DB43284913400B603B685B6803F400338E
:10197C00002B06D0234B5A682249BB6913434B609A
:10198C0006E0204B5A68BB69DB431E4913404B6091
:10199C003B685B6803F48013002B06D0194B9A68E4
:1019AC001849BB6913438B6006E0164B9A68BB69F8
:1019BC00DB43144913408B603B685B6803F40013F2
:1019CC00002B21D00F4BDA680E49BB691343CB6057
:1019DC0021E000BF00003210000031100000221086
:1019EC000000211000001210000011100010024025
:1019FC000000014000080140000C014000100140B3
:101A0C0000140140000401400B4BDA68BB69DB4356
:101A1C0009491340CB607B6A01337B623B681A68CF
:101A2C007B6A22FA03F3002B7FF48EAE00BF00BF5B
:101A3C002C37BD4680BC70470004014080B483B095
:101A4C0000AF78600B467B8013467B707B78002B55
:101A5C0003D07A887B681A6103E07B881A047B6860
:101A6C001A6100BF0C37BD4680BC704780B582B090
:101A7C0000AF0346FB80084B5A69FB881340002BD0
:101A8C0006D0054AFB885361FB88184600F006F81F
:101A9C0000BF0837BD4680BD0004014080B483B050
:101AAC0000AF0346FB8000BF0C37BD4680BC7047BF
:101ABC0080B586B000AF78607B68002B01D1012324
:101ACC0072E27B681B6803F00103002B00F0878037
:101ADC00924B5B6803F00C03042B0CD08F4B5B68B0
:101AEC0003F00C03082B12D18C4B5B6803F480338E
:101AFC00B3F5803F0BD1894B1B6803F40033002BEB
:101B0C006CD07B685B68002B68D101234CE27B684E
:101B1C005B68B3F5803F06D1804B1B687F4A43F46A
:101B2C00803313602EE07B685B68002B0CD17B4B01
:101B3C001B687A4A23F480331360784B1B68774A0E
:101B4C0023F4802313601DE07B685B68B3F5A02F42
:101B5C000CD1724B1B68714A43F4802313606F4B9A
:101B6C001B686E4A43F4803313600BE06B4B1B68AD
:101B7C006A4A23F480331360684B1B68674A23F46A
:101B8C00802313607B685B68002B13D0FFF7E6F9AA
:101B9C00386108E0FFF7E2F902463B69D31A642B7F
:101BAC0001D9032300E25D4B1B6803F40033002BC7
:101BBC00F0D014E0FFF7D2F9386108E0FFF7CEF966
:101BCC0002463B69D31A642B01D90323ECE1534B36
:101BDC001B6803F40033002BF0D100E000BF7B68DE
:101BEC001B6803F00203002B63D04C4B5B6803F0C3
:101BFC000C03002B0BD0494B5B6803F00C03082B38
:101C0C001CD1464B5B6803F48033002B16D1434B3D
:101C1C001B6803F00203002B05D07B681B69012BAA
:101C2C0001D00123C0E13D4B1B6823F0F8027B6817
:101C3C005B69DB00394913430B603AE07B681B6935
:101C4C00002B20D0364B01221A60FFF787F9386140
:101C5C0008E0FFF783F902463B69D31A022B01D93E
:101C6C000323A1E12D4B1B6803F00203002BF0D0E2
:101C7C002A4B1B6823F0F8027B685B69DB00274961
:101C8C0013430B6015E0264B00221A60FFF766F930
:101C9C00386108E0FFF762F902463B69D31A022B60
:101CAC0001D9032380E11D4B1B6803F00203002BB9
:101CBC00F0D17B681B6803F00803002B3AD07B68DB
:101CCC009B69002B19D0174B01221A60FFF746F9BC
:101CDC00386108E0FFF742F902463B69D31A022B40
:101CEC0001D9032360E10D4B5B6A03F00203002B67
:101CFC00F0D0012000F0DAFA1CE00A4B00221A6046
:101D0C00FFF72CF938610FE0FFF728F902463B6921
:101D1C00D31A022B08D9032346E100BF001002405E
:101D2C000000424280044242924B5B6A03F0020381
:101D3C00002BE9D17B681B6803F00403002B00F037
:101D4C00A6800023FB758B4BDB6903F08053002BC3
:101D5C000DD1884BDB69874A43F08053D361854BA7
:101D6C00DB6903F08053BB60BB680123FB75824BBE
:101D7C001B6803F48073002B18D17F4B1B687E4AC1
:101D8C0043F480731360FFF7E9F8386108E0FFF75C
:101D9C00E5F802463B69D31A642B01D9032303E10E
:101DAC00754B1B6803F48073002BF0D07B68DB68E9
:101DBC00012B06D16F4B1B6A6E4A43F00103136271
:101DCC002DE07B68DB68002B0CD16A4B1B6A694ADF
:101DDC0023F001031362674B1B6A664A23F004036A
:101DEC0013621CE07B68DB68052B0CD1614B1B6A12
:101DFC00604A43F0040313625E4B1B6A5D4A43F076
:101E0C00010313620BE05B4B1B6A5A4A23F001037C
:101E1C001362584B1B6A574A23F0040313627B6806
:101E2C00DB68002B15D0FFF799F838610AE0FFF753
:101E3C0095F802463B69D31A41F28832934201D994
:101E4C000323B1E04B4B1B6A03F00203002BEED0D3
:101E5C0014E0FFF783F838610AE0FFF77FF80246D9
:101E6C003B69D31A41F28832934201D903239BE098
:101E7C00404B1B6A03F00203002BEED1FB7D012BC0
:101E8C0005D13C4BDB693B4A23F08053D3617B6823
:101E9C00DB69002B00F08780364B5B6803F00C038A
:101EAC00082B61D07B68DB69022B46D1334B0022B7
:101EBC001A60FFF753F8386108E0FFF74FF8024655
:101ECC003B69D31A022B01D903236DE0294B1B6804
:101EDC0003F00073002BF0D17B681B6AB3F5803FD5
:101EEC0008D1244B5B6823F400327B689B68214942
:101EFC0013434B601F4B5B6823F474127B68196AA5
:101F0C007B685B6A0B431B4913434B601B4B0122E1
:101F1C001A60FFF723F8386108E0FFF71FF8024654
:101F2C003B69D31A022B01D903233DE0114B1B68EB
:101F3C0003F00073002BF0D035E0104B00221A6038
:101F4C00FFF70CF8386108E0FFF708F802463B6928
:101F5C00D31A022B01D9032326E0064B1B6803F08E
:101F6C000073002BF0D11EE07B68DB69012B07D1DD
:101F7C00012319E000100240007000406000424252
:101F8C000B4B5B68FB60FB6803F480327B681B6A5D
:101F9C009A4206D1FB6803F470127B685B6A9A4222
:101FAC0001D0012300E0002318461837BD4680BD40
:101FBC000010024080B584B000AF786039607B6857
:101FCC00002B01D10123D0E06A4B1B6803F00703FF
:101FDC003A689A4210D9674B1B6823F0070265498F
:101FEC003B6813430B60634B1B6803F007033A68B1
:101FFC009A4201D00123B8E07B681B6803F002030E
:10200C00002B20D07B681B6803F00403002B05D049
:10201C00594B5B68584A43F4E06353607B681B6818
:10202C0003F00803002B05D0534B5B68524A43F472
:10203C0060535360504B5B6823F0F0027B689B68E5
:10204C004D4913434B607B681B6803F00103002B65
:10205C0040D07B685B68012B07D1474B1B6803F4AE
:10206C000033002B15D101237FE07B685B68022BCA
:10207C0007D1414B1B6803F00073002B09D10123DE
:10208C0073E03D4B1B6803F00203002B01D10123CD
:10209C006BE0394B5B6823F003027B685B68364965
:1020AC0013434B60FEF75AFFF8600AE0FEF756FF49
:1020BC000246FB68D31A41F28832934201D90323BA
:1020CC0053E02D4B5B6803F00C027B685B689B0054
:1020DC009A42EBD1274B1B6803F007033A689A42EC
:1020EC0010D2244B1B6823F0070222493B68134390
:1020FC000B60204B1B6803F007033A689A4201D02F
:10210C00012332E07B681B6803F00403002B08D02A
:10211C00194B5B6823F4E0627B68DB681649134358
:10212C004B607B681B6803F00803002B09D0124B33
:10213C005B6823F460527B681B69DB000E49134318
:10214C004B6000F021F802460B4B5B681B0903F057
:10215C000F030A49CB5C22FA03F3094A1360094BBB
:10216C001B681846FEF7B8FE002318461037BD460C
:10217C0080BD00BF0020024000100240843C0008DB
:10218C00600000206400002090B48AB000AF294B9E
:10219C003C1D0FCB84E80F0040F201233B80002351
:1021AC00FB610023BB6100237B6200237B61002366
:1021BC003B62214B5B68FB61FB6903F00C03042B56
:1021CC0002D0082B03D02BE01C4B3B622BE0FB69AD
:1021DC009B0C03F00F0328333B4413F8243C7B6126
:1021EC00FB6903F48033002B12D0134B5B685B0C40
:1021FC0003F0010328333B4413F8283CBB617B6993
:10220C000E4A03FB02F2BB69B2FBF3F37B6204E000
:10221C007B690B4A02FB03F37B627B6A3B6202E045
:10222C00084B3B6200BF3B6A18462837BD4690BC42
:10223C00704700BF743C000800100240001BB70040
:10224C0000093D0000127A0080B400AF024B1B68FD
:10225C001846BD4680BC70476000002080B500AFBA
:10226C00FFF7F2FF0246054B5B681B0A03F00703FE
:10227C000349CB5C22FA03F3184680BD00100240E0
:10228C00943C000880B500AFFFF7DEFF0246054B1B
:10229C005B68DB0A03F007030349CB5C22FA03F308
:1022AC00184680BD00100240943C000880B485B0F4
:1022BC0000AF78600A4B1B680A4AA2FB03235B0A37
:1022CC007A6802FB03F3FB6000BFFB685A1EFA60DE
:1022DC00002BF9D100BF00BF1437BD4680BC70473E
:1022EC0060000020D34D621080B582B000AF7860E2
:1022FC007B68002B01D1012376E07B685B6A002BA5
:10230C0008D17B685B68B3F5827F09D07B680022BB
:10231C00DA6105E07B6800221A617B6800225A6151
:10232C007B6800229A627B6893F85130DBB2002BF9
:10233C0006D17B68002283F850207868FEF74CFCAD
:10234C007B68022283F851207B681B681A687B68C3
:10235C001B6822F040021A607B685B6803F482728F
:10236C007B689B6803F404431A437B68DB6803F4C3
:10237C0000631A437B681B6903F002031A437B68F2
:10238C005B6903F001031A437B689B6903F40073D8
:10239C001A437B68DB6903F038031A437B681B6ABA
:1023AC0003F0800342EA03017B689B6A03F400524A
:1023BC007B681B680A431A607B689B691A0C7B68F4
:1023CC001B6802F004025A607B681B68DA697B6840
:1023DC001B6822F40062DA617B6800225A657B6814
:1023EC00012283F85120002318460837BD4680BDD2
:1023FC0080B58CB000AFF860B9607A607B80012347
:10240C00FB62002387F82B30FB6893F85030012BCC
:10241C0001D102238AE1FB68012283F85020FEF7E8
:10242C009DFD7862FB6893F8513087F82330FB6888
:10243C005B68FB617B887B8397F82330012B0FD083
:10244C00FB69B3F5827F07D1FB689B68002B03D136
:10245C0097F82330042B03D0022387F82B305BE151
:10246C00BB68002B05D07B68002B02D07B88002B2F
:10247C0003D1012387F82B304EE1FB6893F85130E0
:10248C00DBB2042B03D0FB68052283F85120FB68D8
:10249C0000225A65FB687A689A63FB687A88DA8747
:1024AC00FB687A889A87FB68BA681A63FB687A8833
:1024BC00DA86FB687A889A86FB6800221A64FB68C5
:1024CC0000225A64FB681B681B6803F04003402B16
:1024DC0007D0FB681B681A68FB681B6842F0400257
:1024EC001A60FB68DB68B3F5006F78D1FB685B683A
:1024FC00002B02D07B8B012B66D1FB681B6B1A88DF
:10250C00FB681B68DA60FB681B6B9A1CFB681A6320
:10251C00FB68DB8E9BB2013B9AB2FB68DA8653E018
:10252C00FB681B689B6803F00203022B1BD1FB6842
:10253C00DB8E9BB2002B16D0FB6A012B13D1FB68F0
:10254C001B6B1A88FB681B68DA60FB681B6B9A1C98
:10255C00FB681A63FB68DB8E9BB2013B9AB2FB688B
:10256C00DA860023FB62FB681B689B6803F001039F
:10257C00012B19D1FB68DB8F9BB2002B14D0FB68AD
:10258C001B68DA68FB689B6B92B21A80FB689B6BCA
:10259C009A1CFB689A63FB68DB8F9BB2013B9AB277
:1025AC00FB68DA870123FB62FEF7D8FC02467B6AE4
:1025BC00D31ABA6B9A4207D8BB6BB3F1FF3F03D067
:1025CC00032387F82B30A7E0FB68DB8E9BB2002B34
:1025DC00A6D1FB68DB8F9BB2002BA1D17CE0FB6802
:1025EC005B68002B02D07B8B012B6BD1FB681A6BC9
:1025FC00FB681B680C3312781A70FB681B6B5A1C37
:10260C00FB681A63FB68DB8E9BB2013B9AB2FB68DA
:10261C00DA8657E0FB681B689B6803F00203022B09
:10262C001CD1FB68DB8E9BB2002B17D0FB6A012BF5
:10263C0014D1FB681A6BFB681B680C3312781A7088
:10264C00FB681B6B5A1CFB681A63FB68DB8E9BB226
:10265C00013B9AB2FB68DA860023FB62FB681B68BD
:10266C009B6803F00103012B19D1FB68DB8F9BB234
:10267C00002B14D0FB681B68DA68FB689B6BD2B22A
:10268C001A70FB689B6B5A1CFB689A63FB68DB8FA8
:10269C009BB2013B9AB2FB68DA870123FB62FEF71F
:1026AC005DFC02467B6AD31ABA6B9A4203D8BB6BA9
:1026BC00B3F1FF3F02D1BB6B002B03D1032387F88F
:1026CC002B3029E0FB68DB8E9BB2002BA2D1FB6880
:1026DC00DB8F9BB2002B9DD17A6AB96BF86800F046
:1026EC00B5F90346002B06D0012387F82B30FB6885
:1026FC0020225A6510E0FB689B68002B0BD100234D
:10270C007B61FB681B68DB687B61FB681B689B68F3
:10271C007B617B6900E000BFFB68012283F85120DC
:10272C00FB68002283F8502097F82B30184630377E
:10273C00BD4680BD80B588B000AF78607B681B68F3
:10274C005B68FB617B681B689B68BB61BB699B0911
:10275C0003F00103002B0FD1BB6903F00103002B25
:10276C000AD0FB699B0903F00103002B04D07B68A2
:10277C001B6C78689847BEE0BB695B0803F00103EB
:10278C00002B0AD0FB69DB0903F00103002B04D0FA
:10279C007B685B6C78689847ADE0BB695B0903F0BC
:1027AC000103002B06D1BB699B0903F00103002B2D
:1027BC0000F0A180FB695B0903F00103002B00F022
:1027CC009A80BB699B0903F00103002B23D07B6823
:1027DC0093F85130DBB2032B11D07B685B6D43F067
:1027EC0004027B685A6500237B617B681B68DB688D
:1027FC007B617B681B689B687B617B690BE00023BA
:10280C003B617B681B68DB683B617B681B689B6872
:10281C003B613B696FE0BB695B0903F00103002B73
:10282C0014D07B685B6D43F001027B685A65002312
:10283C00FB607B681B689B68FB607B681B681A6885
:10284C007B681B6822F040021A60FB687B685B6D3A
:10285C00002B4FD07B681B685A687B681B6822F082
:10286C00E0025A607B68012283F85120FB6903F077
:10287C000203002B04D1FB6903F00103002B34D0BD
:10288C007B681B685A687B681B6822F003025A60DD
:10289C007B68DB6C002B11D07B68DB6C174A5A63AE
:1028AC007B68DB6C1846FEF7CFFC0346002B05D08B
:1028BC007B685B6D43F040027B685A657B689B6C60
:1028CC00002B16D07B689B6C0C4A5A637B689B6C04
:1028DC001846FEF7B9FC0346002B0AD07B685B6DEB
:1028EC0043F040027B685A6503E0786800F008F812
:1028FC0000E000BF00BF2037BD4680BD1F29000887
:10290C0080B483B000AF786000BF0C37BD4680BC8C
:10291C00704780B584B000AF78607B685B6AFB6001
:10292C00FB680022DA87FB680022DA86F868FFF77A
:10293C00E7FF00BF1037BD4680BD000080B588B0F2
:10294C0000AFF860B9603B601346FB71FEF706FB05
:10295C000246BB6A9B1A3A681344FB61FEF7FEFA07
:10296C00B861394B1B685B011B0DFA6902FB03F361
:10297C007B6154E03B68B3F1FF3F50D0FEF7EEFAB9
:10298C000246BB69D31AFA699A4202D9FB69002B39
:10299C003DD1FB681B685A68FB681B6822F0E0029B
:1029AC005A60FB685B68B3F5827F11D1FB689B684A
:1029BC00B3F5004F04D0FB689B68B3F5806F07D16B
:1029CC00FB681B681A68FB681B6822F040021A60DF
:1029DC00FB689B6AB3F5005F0FD1FB681B681A6834
:1029EC00FB681B6822F400521A60FB681B681A68AB
:1029FC00FB681B6842F400521A60FB68012283F8E2
:102A0C005120FB68002283F85020032317E07B69D8
:102A1C00002B01D10023FB617B69013B7B61FB68CF
:102A2C001B689A68BB681340BA689A420CBF0123B2
:102A3C000023DBB21A46FB799A429BD1002318463D
:102A4C002037BD4680BD00BF6000002080B586B039
:102A5C0002AFF860B9607A607B680093BB680022B3
:102A6C008021F868FFF76AFF0346002B07D0FB684C
:102A7C005B6D43F02002FB685A65032300E00023E2
:102A8C0018461037BD4680BD80B582B000AF786067
:102A9C007B68002B01D1012341E07B6893F83D302A
:102AAC00DBB2002B06D17B68002283F83C207868CF
:102ABC00FEF7E4F87B68022283F83D207B681A68F5
:102ACC007B6804331946104600F096FA7B680122A5
:102ADC0083F846207B68012283F83E207B68012224
:102AEC0083F83F207B68012283F840207B68012219
:102AFC0083F841207B68012283F842207B68012205
:102B0C0083F843207B68012283F844207B680122F0
:102B1C0083F845207B68012283F83D20002318466A
:102B2C000837BD4680BD80B483B000AF78607B6849
:102B3C001B681A6A41F211131340002B0FD17B68EA
:102B4C001B681A6A40F244431340002B07D17B6880
:102B5C001B681A687B681B6822F001021A607B688C
:102B6C00012283F83D20002318460C37BD4680BC5B
:102B7C007047000080B485B000AF78607B6893F834
:102B8C003D30DBB2012B01D001233AE07B680222FD
:102B9C0083F83D207B681B68DA687B681B6842F011
:102BAC000102DA607B681B68184A93420ED07B687E
:102BBC001B68B3F1804F09D07B681B68144A9342A1
:102BCC0004D07B681B68134A934211D17B681B6845
:102BDC009B6803F00703FB60FB68062B10D07B6837
:102BEC001B681A687B681B6842F001021A6007E0D8
:102BFC007B681B681A687B681B6842F001021A60CC
:102C0C00002318461437BD4680BC7047002C014089
:102C1C00000400400008004080B582B000AF78602E
:102C2C007B681B681B6903F00203022B22D17B68B3
:102C3C001B68DB6803F00203022B1BD17B681B684B
:102C4C006FF002021A617B6801221A777B681B689D
:102C5C009B6903F00303002B03D0786800F0B1F9F3
:102C6C0005E0786800F0A4F9786800F0B3F97B68A7
:102C7C0000221A777B681B681B6903F00403042B82
:102C8C0022D17B681B68DB6803F00403042B1BD187
:102C9C007B681B686FF004021A617B6802221A774A
:102CAC007B681B689B6903F44073002B03D0786826
:102CBC0000F087F905E0786800F07AF9786800F0A0
:102CCC0089F97B6800221A777B681B681B6903F003
:102CDC000803082B22D17B681B68DB6803F0080310
:102CEC00082B1BD17B681B686FF008021A617B688C
:102CFC0004221A777B681B68DB6903F00303002B43
:102D0C0003D0786800F05DF905E0786800F050F9C0
:102D1C00786800F05FF97B6800221A777B681B6883
:102D2C001B6903F01003102B22D17B681B68DB6836
:102D3C0003F01003102B1BD17B681B686FF0100283
:102D4C001A617B6808221A777B681B68DB6903F4BD
:102D5C004073002B03D0786800F033F905E07868F5
:102D6C0000F026F9786800F035F97B6800221A77B4
:102D7C007B681B681B6903F00103012B0ED17B6878
:102D8C001B68DB6803F00103012B07D17B681B6810
:102D9C006FF001021A617868FDF788FE7B681B688A
:102DAC001B6903F08003802B0ED17B681B68DB68EA
:102DBC0003F08003802B07D17B681B686FF08002C7
:102DCC001A61786800F077FA7B681B681B6903F05E
:102DDC004003402B0ED17B681B68DB6803F040037B
:102DEC00402B07D17B681B686FF040021A61786832
:102DFC0000F0F9F87B681B681B6903F02003202B9B
:102E0C000ED17B681B68DB6803F02003202B07D1F5
:102E1C007B681B686FF020021A61786800F042FA38
:102E2C0000BF0837BD4680BD80B584B000AF786068
:102E3C0039607B6893F83C30012B01D10223B3E05D
:102E4C007B68012283F83C207B68022283F83D20BA
:102E5C007B681B689B68FB60FB6823F07703FB6057
:102E6C00FB6823F47F43FB607B681B68FA689A60FD
:102E7C003B681B68B3F5005F3ED0B3F5005F00F212
:102E8C008780B3F5805F00F08580B3F5805F7FD8D5
:102E9C00702B1AD0702B7BD8602B50D0602B77D82E
:102EAC00502B3CD0502B73D8402B58D0402B6FD884
:102EBC00302B64D0302B6BD8202B60D0202B67D8D4
:102ECC00002B5CD0102B5AD062E07B6818683B68F2
:102EDC0099683B685A683B68DB6800F066F97B6868
:102EEC001B689B68FB60FB6843F07703FB607B68A7
:102EFC001B68FA689A604EE07B6818683B689968B2
:102F0C003B685A683B68DB6800F04FF97B681B68CC
:102F1C009A687B681B6842F480429A603BE07B684D
:102F2C0018683B6859683B68DB681A4600F0C6F8BD
:102F3C007B681B685021184600F01DF92BE07B685C
:102F4C0018683B6859683B68DB681A4600F0E4F87F
:102F5C007B681B686021184600F00DF91BE07B684C
:102F6C0018683B6859683B68DB681A4600F0A6F89D
:102F7C007B681B684021184600F0FDF80BE07B686D
:102F8C001A683B681B681946104600F0F4F802E01A
:102F9C0000BF00E000BF7B68012283F83D207B6806
:102FAC00002283F83C20002318461037BD4680BD14
:102FBC0080B483B000AF786000BF0C37BD4680BCD6
:102FCC00704780B483B000AF786000BF0C37BD464B
:102FDC0080BC704780B483B000AF786000BF0C3702
:102FEC00BD4680BC704780B483B000AF786000BF32
:102FFC000C37BD4680BC704780B485B000AF78609C
:10300C0039607B681B68FB607B68294A93420BD054
:10301C007B68B3F1804F07D07B68264A934203D07C
:10302C007B68254A934208D1FB6823F07003FB6050
:10303C003B685B68FA681343FB607B681C4A9342ED
:10304C000BD07B68B3F1804F07D07B68194A934251
:10305C0003D07B68184A934208D1FB6823F4407371
:10306C00FB603B68DB68FA681343FB60FB6823F08A
:10307C0080023B685B691343FB607B68FA681A60EB
:10308C003B689A687B68DA623B681A687B689A626C
:10309C007B68074A934203D13B681A697B681A63C1
:1030AC007B6801225A6100BF1437BD4680BC704753
:1030BC00002C0140000400400008004080B487B0A0
:1030CC0000AFF860B9607A60FB681B6A7B61FB68D3
:1030DC001B6A23F00102FB681A62FB689B693B6167
:1030EC003B6923F0F0033B617B681B013A69134396
:1030FC003B617B6923F00A037B617A69BB681343EC
:10310C007B61FB683A699A61FB687A691A6200BF55
:10311C001C37BD4680BC704780B487B000AFF860E8
:10312C00B9607A60FB681B6A23F01002FB681A62B4
:10313C00FB689B697B61FB681B6A3B617B6923F4C1
:10314C0070437B617B681B037A6913437B613B692A
:10315C0023F0A0033B61BB681B013A6913433B613D
:10316C00FB687A699A61FB683A691A6200BF1C377E
:10317C00BD4680BC704780B485B000AF78603960C4
:10318C007B689B68FB60FB6823F07003FB603A680C
:10319C00FB68134343F00703FB607B68FA689A6093
:1031AC0000BF1437BD4680BC704780B487B000AFF9
:1031BC00F860B9607A603B60FB689B687B617B69F7
:1031CC0023F47F437B613B681A027B681A43BB681C
:1031DC0013437A6913437B61FB687A699A6000BF79
:1031EC001C37BD4680BC704780B485B000AF78609A
:1031FC0039607B6893F83C30012B01D1022346E007
:10320C007B68012283F83C207B68022283F83D20F6
:10321C007B681B685B68FB607B681B689B68BB609A
:10322C00FB6823F07003FB603B681B68FA68134370
:10323C00FB607B681B68FA685A607B681B68164ADF
:10324C0093420ED07B681B68B3F1804F09D07B682A
:10325C001B68124A934204D07B681B68104A934245
:10326C000CD1BB6823F08003BB603B685B68BA6819
:10327C001343BB607B681B68BA689A607B68012249
:10328C0083F83D207B68002283F83C2000231846FD
:10329C001437BD4680BC7047002C01400004004030
:1032AC000008004080B483B000AF786000BF0C37DA
:1032BC00BD4680BC704780B483B000AF786000BF5F
:1032CC000C37BD4680BC704780B582B000AF7860CB
:1032DC007B68002B01D101233FE07B6893F83D30E4
:1032EC00DBB2002B06D17B68002283F83C20786887
:1032FC00FDF706FD7B68242283F83D207B681B6864
:10330C00DA687B681B6822F40052DA60786800F097
:10331C00E5FB7B681B681A697B681B6822F490428A
:10332C001A617B681B685A697B681B6822F02A0249
:10333C005A617B681B68DA687B681B6842F4005230
:10334C00DA607B6800221A647B68202283F83D20B7
:10335C007B68202283F83E20002318460837BD46A0
:10336C0080BD80B485B000AFF860B9601346FB80B7
:10337C00FB6893F83D30DBB2202B30D1BB68002BBF
:10338C0002D0FB88002B01D1012329E0FB6893F8C4
:10339C003C30012B01D1022322E0FB68012283F88F
:1033AC003C20FB68BA681A62FB68FA889A84FB684E
:1033BC00FA88DA84FB6800221A64FB68212283F8FD
:1033CC003D20FB68002283F83C20FB681B68DA6810
:1033DC00FB681B6842F08002DA60002300E00223E5
:1033EC0018461437BD4680BC704780B584B000AF1A
:1033FC00F860B9601346FB80FB6893F83E30DBB293
:10340C00202B1DD1BB68002B02D0FB88002B01D1D7
:10341C00012316E0FB6893F83C30012B01D1022309
:10342C000FE0FB68012283F83C20FB6800221A6342
:10343C00FB881A46B968F86800F0C6F9034600E044
:10344C00022318461037BD4680BD000080B58AB0F7
:10345C0000AF78607B681B681B687B627B681B68AD
:10346C00DB683B627B681B685B69FB610023BB61AB
:10347C0000237B617B6A03F00F03BB61BB69002BEC
:10348C000DD17B6A03F02003002B08D03B6A03F0BC
:10349C002003002B03D0786800F076FA7BE1BB693F
:1034AC00002B00F0B180FB6903F00103002B05D168
:1034BC003B6A03F49073002B00F0A6807B6A03F048
:1034CC000103002B0AD03B6A03F48073002B05D058
:1034DC007B681B6C43F001027B681A647B6A03F007
:1034EC000403002B0AD0FB6903F00103002B05D069
:1034FC007B681B6C43F002027B681A647B6A03F0E6
:10350C000203002B0AD0FB6903F00103002B05D04A
:10351C007B681B6C43F004027B681A647B6A03F0C3
:10352C000803002B0FD03B6A03F02003002B04D1BF
:10353C00FB6903F00103002B05D07B681B6C43F087
:10354C0008027B681A647B681B6C002B00F01E81E0
:10355C007B6A03F02003002B07D03B6A03F02003A7
:10356C00002B02D0786800F00FFA7B681B685B694F
:10357C0003F04003002B14BF01230023DBB27B615B
:10358C007B681B6C03F00803002B02D17B69002BBA
:10359C0031D0786800F051F97B681B685B6903F0E7
:1035AC004003002B23D07B681B685A697B681B681F
:1035BC0022F040025A617B689B6B002B13D07B6816
:1035CC009B6B764A5A637B689B6B1846FDF73CFEF7
:1035DC000346002B16D07B689B6B5B6B7A68926BF7
:1035EC00104698470EE0786800F0DAF80AE0786840
:1035FC0000F0D6F806E0786800F0D2F87B6800227C
:10360C001A64C3E000BFC1E07B681B6B012B40F068
:10361C00A1807B6A03F01003002B00F09B803B6AB7
:10362C0003F01003002B00F095800023FB607B68F7
:10363C001B681B68FB607B681B685B68FB60FB6836
:10364C007B681B685B6903F04003002B4ED07B68E2
:10365C009B6B1B685B683B823B8A002B00F098805D
:10366C007B689B8D3A8A9A4280F092807B683A8A7A
:10367C00DA857B689B6B9B69202B2BD07B681B6846
:10368C00DA687B681B6822F48072DA607B681B68DE
:10369C005A697B681B6822F001025A617B681B68BF
:1036AC005A697B681B6822F040025A617B682022B1
:1036BC0083F83E207B6800221A637B681B68DA68FB
:1036CC007B681B6822F01002DA607B689B6B1846E3
:1036DC00FDF77FFD7B689A8D7B68DB8D9BB2D31ADF
:1036EC009BB21946786800F064F851E07B689A8DBB
:1036FC007B68DB8D9BB2D31A7B827B68DB8D9BB2A4
:10370C00002B47D07B8A002B44D07B681B68DA687F
:10371C007B681B6822F49072DA607B681B685A69BC
:10372C007B681B6822F001025A617B68202283F8B7
:10373C003E207B6800221A637B681B68DA687B6812
:10374C001B6822F01002DA607B8A1946786800F058
:10375C0030F81FE07B6A03F08003002B08D03B6A33
:10376C0003F08003002B03D0786800F0A6F812E079
:10377C007B6A03F04003002B0DD03B6A03F040033F
:10378C00002B08D0786800F0E7F804E000BF02E0F6
:10379C0000BF00E000BF2837BD4680BD9F38000841
:1037AC0080B483B000AF786000BF0C37BD4680BCDE
:1037BC00704780B483B000AF78600B467B8000BF4D
:1037CC000C37BD4680BC704780B485B000AFF86044
:1037DC00B9601346FB80FB68BA689A62FB68FA888A
:1037EC009A85FB68FA88DA85FB6800221A64FB6804
:1037FC00222283F83E20FB68002283F83C20FB68E1
:10380C001B68DA68FB681B6842F48072DA60FB683C
:10381C001B685A69FB681B6842F001025A61FB681D
:10382C001B68DA68FB681B6842F02002DA60002330
:10383C0018461437BD4680BC704780B483B000AFC7
:10384C0078607B681B68DA687B681B6822F490726E
:10385C00DA607B681B685A697B681B6822F001027E
:10386C005A617B681B6B012B07D17B681B68DA687C
:10387C007B681B6822F01002DA607B68202283F8D8
:10388C003E207B6800221A6300BF0C37BD4680BC0B
:10389C00704780B584B000AF78607B685B6AFB6072
:1038AC00FB680022DA85FB680022DA84F868FFF7EF
:1038BC0077FF00BF1037BD4680BD80B485B000AF28
:1038CC0078607B6893F83D30DBB2212B3ED17B686E
:1038DC009B68B3F5805F14D17B681B69002B10D1FA
:1038EC007B681B6AFB60FB681B881A467B681B683D
:1038FC00C2F308025A607B681B6A9A1C7B681A62C6
:10390C0008E07B681B6A591C7A6811621A787B681C
:10391C001B685A607B68DB8C9BB2013B9BB27A685C
:10392C001946D184002B0FD17B681B68DA687B6841
:10393C001B6822F08002DA607B681B68DA687B689F
:10394C001B6842F04002DA60002300E002231846B4
:10395C001437BD4680BC704780B582B000AF78602C
:10396C007B681B68DA687B681B6822F04002DA60AF
:10397C007B68202283F83D207868FDF781F80023CE
:10398C0018460837BD4680BD80B586B000AF78605C
:10399C007B6893F83E30DBB2222B40F099807B6839
:1039AC009B68B3F5805F17D17B681B69002B13D123
:1039BC0000237B617B689B6A3B617B681B685B684F
:1039CC009BB2C3F308039AB23B691A807B689B6A6B
:1039DC009A1C7B689A6226E07B689B6A7B61002359
:1039EC003B617B689B68B3F5805F07D07B689B6805
:1039FC00002B0AD17B681B69002B06D17B681B68E6
:103A0C005B68DAB27B691A7008E07B681B685B68DC
:103A1C00DBB203F07F03DAB27B691A707B689B6AB6
:103A2C005A1C7B689A627B68DB8D9BB2013B9BB214
:103A3C007A681946D185002B48D17B681B68DA68F7
:103A4C007B681B6822F02002DA607B681B68DA68EE
:103A5C007B681B6822F48072DA607B681B685A6989
:103A6C007B681B6822F001025A617B68202283F874
:103A7C003E207B681B6B012B23D17B6800221A63D1
:103A8C007B681B68DA687B681B6822F01002DA60BE
:103A9C007B681B681B6803F01003102B0AD10023F2
:103AAC00FB607B681B681B68FB607B681B685B6842
:103ABC00FB60FB687B689B8D19467868FFF779FE85
:103ACC0002E07868FCF7A0FF002302E0002300E08E
:103ADC00022318461837BD4680BD000080B584B05F
:103AEC0000AF78607B681B681B6923F440517B68CE
:103AFC00DA687B681B680A431A617B689A687B6882
:103B0C001B691A437B685B691343BB607B681B684A
:103B1C00DB6823F4B05323F00C037A681268B9689D
:103B2C000B43D3607B681B685B6923F440717B6833
:103B3C009A697B681B680A435A617B681B682C4A2C
:103B4C00934203D1FEF79EFBF86002E0FEF786FB82
:103B5C00F860FA6813469B0013449A001A447B6879
:103B6C005B689B00B2FBF3F3224AA2FB03235B09C5
:103B7C001901FA6813469B0013449A001A447B6897
:103B8C005B689B00B2FBF3F21A4BA3FB02035B09CD
:103B9C00642000FB03F3D31A1B013233154AA2FB3A
:103BAC0003235B0903F0F0031944FA6813469B00E6
:103BBC0013449A001A447B685B689B00B2FBF3F2D7
:103BCC000C4BA3FB02035B09642000FB03F3D31A29
:103BDC001B013233074AA2FB03235B0903F00F02DC
:103BEC007B681B680A449A6000BF1037BD4680BDD5
:103BFC00003801401F85EB5170B500260C4D0D4C63
:103C0C00641BA410A64209D100F022F800260A4D2C
:103C1C000A4C641BA410A64205D170BD55F8043B98
:103C2C0098470136EEE755F8043B98470136F2E722
:103C3C009C3C00089C3C00089C3C0008A43C0008F0
:103C4C0003460244934200D1704703F8011BF9E785
:103C5C00F8B500BFF8BC08BC9E467047F8B500BF6D
:083C6C00F8BC08BC9E4670473D
:103C740002030405060708090A0B0C0D0E0F1010A9
:103C84000000000000000000010203040607080908
:083C940000000000010203041E
:083C9C0031010008710B000862
:043CA4000D01000806
:103CA800000000000000000000000000000000000C
:103CB80000000000000000000007D00828000000F5
:103CC800000000000000FFFF000000000000B80036
:103CD800000000000000FFFFFFFFFFFF00000000E2
:103CE8000000000000008000000000000000020248
:103CF800080000000000000000000000FF40000075
:0C3D08000024F400100000000100000086
:0400000508000E6D74
:00000001FF
