:020000040800F2
:1000000000500020591700088D16000893160008AC
:10001000991600089F160008A516000800000000A9
:10002000000000000000000000000000AB16000807
:10003000B716000800000000C3160008CF1600081D
:10004000A1170008A1170008A1170008A1170008B0
:10005000A1170008A1170008A1170008A1170008A0
:10006000A1170008A1170008DB160008A117000857
:10007000A1170008A1170008A1170008A117000880
:10008000A1170008A1170008A1170008A117000870
:10009000A1170008A1170008A1170008A117000860
:1000A000A1170008A1170008A1170008A117000850
:1000B000E9160008FD16000811170008A11700082E
:1000C000A1170008A1170008A117000825170008AC
:1000D000A117000839170008A1170008A117000888
:1000E000A1170008A1170008A117000800000000D0
:1000F0000000000000000000000000000000000000
:0C01000000000000000000005FF808F1A3
:10010C0010B5054C237833B9044B13B10448AFF345
:10011C0000800123237010BD0002002000000000AD
:10012C000445000808B5034B1BB103490348AFF362
:10013C00008008BD000000000402002004450008F7
:10014C0080B584B000AFF860B9607A607B80FB68E2
:10015C0010334FF480720021184604F03FF9FB680D
:10016C0003F588734FF480720021184604F036F9B9
:10017C00FB68BA681A60FB687A685A60FB687A8810
:10018C009A81FB68BA699A60FB68BA8BDA81FB6862
:10019C0018461037BD4680BD80B483B000AF786080
:1001AC007B6818460C37BD4680BC704780B582B062
:1001BC0000AF78607B6898687B68DB890022194601
:1001CC0001F0B2FE012001F049FB7B6898687B6866
:1001DC00DB890122194601F0A7FE012001F03EFB4C
:1001EC0000BF0837BD4680BD80B584B002AF7860D3
:1001FC000B46FB707B6800221A747B68FA785A7481
:10020C007B6800229A747B6858687B689B89002203
:10021C00194601F089FE7B6818687B6803F11001B0
:10022C007B6803F588724FF47A730093042302F011
:10023C0087FC7B6858687B689B890122194601F012
:10024C0073FE7B6893F8133118460837BD4680BDA2
:10025C0080B586B000AFF860B96011461A460B46FF
:10026C00FB711346BB71FB6800221A74FB68BA79E8
:10027C005A74FB6804229A7400237B61FB797A69B7
:10028C009A420DDA7B69BA681A447B690333117898
:10029C00FA6813440A461A747B6901337B61EDE7F3
:1002AC00FB685868FB689B890022194601F03CFEEC
:1002BC00FB681868FB6803F11001FB799BB20333F0
:1002CC009AB24FF47A7302F0FFFAFB685868FB6835
:1002DC009B890122194601F027FE00BF1837BD4645
:1002EC0080BD80B584B002AF78600B46FB701346BE
:1002FC00BB707B6800221A747B68BA785A747B686E
:10030C00FA789A747B6858687B689B890022194636
:10031C0001F00AFE7B6818687B6803F110017B68AA
:10032C0003F588724FF47A730093042302F008FCEF
:10033C007B6858687B689B890122194601F0F4FDA3
:10034C007B6893F8133118460837BD4680BD80B5DD
:10035C0086B002AF78600B46FB701346BB707B68AF
:10036C0000221A747B68BA785A747B68FA789A748B
:10037C007B6858687B689B890022194601F0D4FD84
:10038C007B6818687B6803F110017B6803F5887241
:10039C004FF47A730093052302F0D2FB7B68586804
:1003AC007B689B890122194601F0BEFD7B6893F89E
:1003BC0014313B737B6893F813317B73BB891846FC
:1003CC001037BD4680BD80B582B000AF786008465E
:1003DC0011461A460346FB700B46BB7013467B70E6
:1003EC007B6800221A747B687A785A74FB7843F025
:1003FC000403DAB27B689A747B68BA78DA747B6827
:10040C0058687B689B890022194601F08DFD7B683A
:10041C0018687B6803F110014FF47A73042202F020
:10042C0053FA7B6858687B689B890122194601F056
:10043C007BFD00BF0837BD4680BD80B584B000AFE2
:10044C007860084611461A460346FB700B463B8003
:10045C001346BB703B88BB817B6800221A747B6897
:10046C00BA785A74FB7843F00403DAB27B689A7456
:10047C007A7B7B68DA743A7B7B681A757B68586880
:10048C007B689B890022194601F04EFD7B68186839
:10049C007B6803F110014FF47A73052202F014FA11
:1004AC007B6858687B689B890122194601F03CFDEA
:1004BC0000BF1037BD4680BD80B586B000AFF86078
:1004CC007A601A460B46FB721346BB72FB6800221D
:1004DC001A74FB6897F820205A74FB7A43F00403D3
:1004EC00DAB2FB689A7400237B61BB7A7A699A4210
:1004FC000DDA7B697A681A447B6903331178FA68E0
:10050C0013440A461A747B6901337B61EDE7FB687F
:10051C005868FB689B890022194601F005FDFB68B1
:10052C001868FB6803F11001BB7A9BB203339AB2D3
:10053C004FF47A7302F0C8F9FB685868FB689B8922
:10054C000122194601F0F0FC00BF1837BD4680BDF2
:10055C0090B589B002AFF8607A601A460B46FB7210
:10056C0013463B8197F82920FB681A7497F82820CA
:10057C00FB685A74FB7A1033DAB2FB689A74FB6826
:10058C005868FB689B890022194601F0CDFCFB687A
:10059C001868FB6803F11001FB6803F588723B894E
:1005AC0003339BB24FF47A74009402F0C9FAFB68DF
:1005BC005868FB689B890122194601F0B5FC0023A1
:1005CC007B613B897A699A420DDA7B69DA1C7B691B
:1005DC0079680B44F9680A4492F810211A707B6907
:1005EC0001337B61EDE700BF1C37BD4690BD80B584
:1005FC0086B000AFF8607A601A460B46FB72134661
:10060C003B8197F82120FB681A7497F82020FB682F
:10061C005A74FB7A0833DBB25BB243F004035BB26F
:10062C00DAB2FB689A7400237B613B897A699A423F
:10063C000DDA7B697A681A447B6903331178FA689E
:10064C0013440A461A747B6901337B61EDE7FB683E
:10065C005868FB689B890022194601F065FCFB6811
:10066C001868FB6803F110013B8903339AB24FF40D
:10067C007A7302F029F9FB685868FB689B890122A0
:10068C00194601F051FC00BF1837BD4680BD80B53E
:10069C008AB002AFF8607A603B600B46FB72FB7A63
:1006AC0026221946F868FFF752FE0346BB83FB7AF5
:1006BC0026221946F868FFF74AFE03463B83BA8B9D
:1006CC003B8B9A420AD03B8BBB83FB7A2622194682
:1006DC00F868FFF73CFE03463B83F0E7FB7A2822E1
:1006EC001946F868FFF733FE0346BB82BA8BF97ADA
:1006FC00BB8AADF8003013467A68F868FFF728FF1C
:10070C00BA8ABB8B13449BB2BB82BA8AF97A282370
:10071C00F868FFF792FEF97A01234022F868FFF798
:10072C0052FEBA8B3B681A8000BF2037BD4680BD95
:10073C0080B588B002AFF8607A601A460B46FB723F
:10074C0013463B81FB7A20221946F868FFF7FFFD20
:10075C000346BB82BB8A3A899A4223D8FB7A24226D
:10076C001946F868FFF7F3FD03463B823A89F97A9C
:10077C003B8AADF8003013467A68F868FFF737FF0C
:10078C003A8A3B8913449BB23B823A8AF97A2423F6
:10079C00F868FFF752FEF97A01232022F868FFF778
:1007AC0012FE00E000BF1837BD4680BD80B584B096
:1007BC0002AF00F0F1FF00F0FFF900F0CBFB00F00E
:1007CC004BFA00F099FB00F03BFB00F0DDFA00F077
:1007DC007FFA8548FFF7EAFC00232F2283498248E1
:1007EC00FFF736FD0A2001F039F800230222082118
:1007FC007D48FFF7E8FD0023812228217A48FFF786
:10080C00E2FD0023812248217748FFF7DCFD2C23F1
:10081C00EF2208217448FFF7D6FD2C23EE22282165
:10082C007148FFF7D0FD2C23EF2248216E48FFF7CB
:10083C00CAFD0A2001F012F8042300930E236C4A1F
:10084C0008216948FFF738FE042300930E23694AF8
:10085C0028216548FFF730FE042300930E23664AD7
:10086C0048216148FFF728FE0A2000F0F7FF01231A
:10087C00012208215C48FFF7A6FD01230122282153
:10088C005948FFF7A0FD0123012248215648FFF7E4
:10089C009AFD012000F0E2FF032228215248FFF7C5
:1008AC0020FD0346132B0CBF01230023DBB2002BCE
:1008BC0005D00123022228214B48FFF784FD032297
:1008CC0048214948FFF70DFD0346132B0CBF0123AC
:1008DC000023DBB2002B05D0012302224821424821
:1008EC00FFF771FD012000F0B9FF01224349444894
:1008FC0003F023F9434B1B69424A23F001031361B4
:10090C00414B1B69404A23F0010313613F4B1B7899
:10091C00002B22D03A4803F0FFFA0346202B05D0D7
:10092C00374803F0F9FA0346222B01D1012300E0EA
:10093C000023002B11D000224FF40071344801F039
:10094C00F3FA344B1B88083B9BB21A4632492C48AD
:10095C0003F0AFF82D4B00221A70304B1B78002B94
:10096C0020D0274803F0D8FA0346202B05D0244882
:10097C0003F0D2FA0346222B01D1012300E000231D
:10098C00002B0FD000224FF40071214801F0CCFA5B
:10099C00234B1B881A462349194803F08AF81F4B2E
:1009AC0000221A70204B1B78002B77D000237B6021
:1009BC001E4B1B881A467B6893423FDA1C4B1A6805
:1009CC001C4B1B689A420BD8194B1B681A497A6846
:1009DC000A4412781A70164B1B680133144A1360C0
:1009EC007B6801337B60E3E7E81E002000000020F9
:1009FC0034000020640000209400002090030020AC
:100A0C004C03002000040040000800409D0500201D
:100A1C00000C0140A60D0020A8050020A80D002008
:100A2C00B2150020AC0D0020B4150020BE1D002016
:100A3C00880100208C010020B81500204F4B1B684A
:100A4C00013B1B780A2B26D14D4B1B68184603F033
:100A5C0097FC01464B4B1B781A464B4B43F8221024
:100A6C00484B1B780133DAB2464B1A70434B1B6868
:100A7C00434A1360454B1B781A46454B53F82220CA
:100A8C00042348214348FFF753FE404B1B780133A6
:100A9C00DAB23E4B1A70404B00221A703F4B1B7857
:100AAC00002B23D03E4B1B78002B0DD03D4B1B78DD
:100ABC009BB23D4A08213748FFF73AFE374B0022DC
:100ACC001A70374B00221A70384B1B78002B0DD044
:100ADC00344B1B789BB2344A28212E48FFF728FE52
:100AEC002E4B00221A70314B00221A70304B1B789F
:100AFC00002B1ED00123012228212648FFF763FC7E
:100B0C00012000F0ABFE032228212248FFF7E9FB6D
:100B1C000346132B0CBF01230023DBB2002B05D0A3
:100B2C000123022228211B48FFF74DFC204B0022F9
:100B3C001A70204B1B78002B3FF4E8AE01230122E6
:100B4C0048211448FFF73FFC012000F087FE0322E8
:100B5C0048211048FFF7C5FB0346132B0CBF01239C
:100B6C000023DBB2002B05D00123022248210948C7
:100B7C00FFF729FC0F4B00221A70C7E688010020F2
:100B8C0084010020E41E0020C41E0020C01E002092
:100B9C0074010020E81E0020B415002095040020EC
:100BAC009905002098050020980400209A05002043
:100BBC009B0500209C05002080B590B000AF07F18C
:100BCC00180328220021184603F008FC3B1D0022C4
:100BDC001A605A609A60DA601A610123BB614FF4A3
:100BEC008033FB6100233B620123BB6202237B63E6
:100BFC004FF48033BB634FF40023FB6307F11803FE
:100C0C00184601F0C1F90346002B14BF0123002341
:100C1C00DBB2002B01D000F0BDFB0F237B60022365
:100C2C00BB600023FB604FF480633B6100237B615E
:100C3C003B1D0121184601F029FC0346002B14BF73
:100C4C0001230023DBB2002B01D000F0A3FB00BF7B
:100C5C004037BD4680BD000080B500AF1A4B1B4A23
:100C6C001A60194B4FF482725A60174B00229A602B
:100C7C00154B0022DA60144B00221A61124B002231
:100C8C005A61114B4FF400729A610F4B0822DA61D2
:100C9C000D4B00221A620C4B00225A620A4B0022A6
:100CAC009A62094B0A22DA62074801F089FD034671
:100CBC00002B14BF01230023DBB2002B01D000F06A
:100CCC0069FB00BF80BD00BF1C020020003001404A
:100CDC0080B586B000AF07F1080300221A605A6095
:100CEC009A60DA603B4600221A605A60254B4FF03E
:100CFC0080421A60234B64225A60224B00229A6075
:100D0C00204B4BF68032DA601E4B00221A611D4BD1
:100D1C0000229A611B4802F05FFA0346002B14BFB5
:100D2C0001230023DBB2002B01D000F033FB4FF486
:100D3C008053BB6007F108031946124802F01CFCF3
:100D4C000346002B14BF01230023DBB2002B01D080
:100D5C0000F020FB00233B6000237B603B461946E0
:100D6C00084802F0E9FD0346002B14BF01230023C1
:100D7C00DBB2002B01D000F00DFB00BF1837BD46D5
:100D8C0080BD00BF7402002080B586B000AF07F1B3
:100D9C00080300221A605A609A60DA603B4600220F
:100DAC001A605A60244B254A1A60234B01225A6060
:100DBC00214B00229A60204B4BF68032DA601E4B9E
:100DCC0000221A611C4B00229A611B4802F004FAA3
:100DDC000346002B14BF01230023DBB2002B01D0F0
:100DEC0000F0D8FA4FF48053BB6007F108031946A2
:100DFC00114802F0C1FB0346002B14BF0123002352
:100E0C00DBB2002B01D000F0C5FA00233B600023BD
:100E1C007B603B461946084802F08EFD0346002BCA
:100E2C0014BF01230023DBB2002B01D000F0B2FA77
:100E3C0000BF1837BD4680BDBC0200200004004036
:100E4C0080B586B000AF07F1080300221A605A6023
:100E5C009A60DA603B4600221A605A60244B254A9D
:100E6C001A60234B03225A60214B00229A60204BBC
:100E7C0042F6E062DA601E4B00221A611C4B002223
:100E8C009A611B4802F0A8F90346002B14BF0123FA
:100E9C000023DBB2002B01D000F07CFA4FF480531E
:100EAC00BB6007F108031946114802F065FB0346C5
:100EBC00002B14BF01230023DBB2002B01D000F068
:100ECC0069FA00233B6000237B603B4619460848C7
:100EDC0002F032FD0346002B14BF01230023DBB2CA
:100EEC00002B01D000F056FA00BF1837BD4680BD6C
:100EFC00040300200008004080B500AF134B144AD7
:100F0C001A60124B4FF416525A60104B00229A6022
:100F1C000E4B0022DA600D4B00221A610B4B0C2297
:100F2C005A610A4B00229A61084B0022DA61074889
:100F3C0002F072FD0346002B14BF01230023DBB229
:100F4C00002B01D000F026FA00BF80BD4C0300201E
:100F5C000038014080B588B000AF07F110030022C3
:100F6C001A605A609A60DA60484B9B69474A43F0B2
:100F7C0010039361454B9B6903F01003FB60FB6806
:100F8C00424B9B69414A43F0200393613F4B9B6961
:100F9C0003F02003BB60BB683C4B9B693B4A43F0AE
:100FAC0004039361394B9B6903F004037B607B68FA
:100FBC00364B9B69354A43F008039361334B9B696D
:100FCC0003F008033B603B6801221021304800F01D
:100FDC00ABFF002220212E4800F0A6FF01224FF487
:100FEC0040712C4800F0A0FF4FF400433B610023FC
:100FFC007B610123BB6107F110031946244800F003
:10100C000FFE10233B61244B7B610023BB6107F176
:10101C0010031946214800F003FE30233B610123E5
:10102C007B610023BB610223FB6107F110031946AE
:10103C00174800F0F5FD4FF480733B6111237B6181
:10104C000023BB610223FB6107F110031946114811
:10105C0000F0E6FD4FF400733B6101237B6100233C
:10106C00BB610223FB6107F110031946094800F02C
:10107C00D7FD002200210A2000F0EBFC0A2000F032
:10108C0004FD00BF2037BD4680BD00BF00100240EC
:10109C0000100140000C014000002110000801402C
:1010AC0080B582B000AF78607B68144A934221D13E
:1010BC0000224FF48071124800F036FF114802F004
:1010CC0001F9114B1B6800225A620F4802F0FAF822
:1010DC000E4B1B781A460E4B19780E4B99540B4B32
:1010EC001B780133DAB2094B1A7001220849034804
:1010FC0002F023FD00BF0837BD4680BD4C03002025
:10110C00000C014004030020BC02002094040020C9
:10111C00900300209403002080B582B000AF78606B
:10112C007B68064A934205D101224FF400710448B2
:10113C0000F0FAFE00BF0837BD4680BD4C0300200E
:10114C00000C014080B584B000AF78607B681B68F0
:10115C001B4A934221D11B4802F08DF80023FB60FF
:10116C00194B1B781A46FB6893420CDA174AFB683A
:10117C0013441978164AFB6813440A461A70FB6824
:10118C000133FB60ECE7104B1A78124B1A70124BC0
:10119C0001221A700C4B00221A707B681B680F4AD4
:1011AC00934208D10E4802F066F801224FF4807188
:1011BC000C4800F0B9FE00BF1037BD4680BD00BF23
:1011CC0000040040BC020020940400209403002082
:1011DC009804002098050020950400200008004089
:1011EC0004030020000C014080B584B000AF03461E
:1011FC00FB80FB88102B40F0AB8017215648FEF784
:10120C00F3FF0346FB730023BB73FB7B002B00F047
:10121C009F80FB7B03F00103002B1DD002220821D1
:10122C004D48FFF75EF80346BB73BB7B03F004032A
:10123C00002B11D0494B4A4A08214748FFF727FA9F
:10124C00484B01221A70484B01221A7002230422C7
:10125C0008214148FFF7B7F8FB7B03F00203002B92
:10126C0031D0022228213C48FFF73BF80346BB73E0
:10127C00BB7B03F00403002B11D03C4B3C4A2821D0
:10128C003548FFF704FA3B4B01221A703A4B012206
:10129C001A700223042228212F48FFF794F8BB7BF5
:1012AC0003F00203002B0ED00123082228212A4828
:1012BC00FFF789F8314B01221A70022302222821F0
:1012CC002548FFF780F8FB7B03F00403002B3FD08D
:1012DC00022248212048FFF704F80346BB73BB7B6E
:1012EC0003F00403002B0ED0254B264A48211A4844
:1012FC00FFF7CDF9244B01221A7002230422482156
:10130C001548FFF760F8BB7B03F00103002B0BD0F3
:10131C0035231E4A48211048FFF70AFA02230122FE
:10132C0048210D48FFF74FF8BB7B03F00203002B5D
:10133C000ED00123082248210748FFF744F8144B2C
:10134C0001221A700223022248210348FFF73BF8BE
:10135C0000BF1037BD4680BDE81E0020A60D002042
:10136C00A00500209D05002099050020B215002045
:10137C00AC0D0020A80D00209A0500209B05002034
:10138C00BE1D0020B8150020B4150020C0000020A0
:10139C009C05002080B400AF72B600BFFEE70000D1
:1013AC0080B584B002AF786039607B68012B0ED1B8
:1013BC003B684FF6FF72934209D1102301930B4BFC
:1013CC0000932023094A0A490A48FEF7B9FE7B68B4
:1013DC00002B07D13B684FF6FF72934202D10548B0
:1013EC00FEF7DAFE00BF0837BD4680BD0010014095
:1013FC001C020020E81E002080B500AF4FF6FF71E4
:10140C000120FFF7CDFF80BD80B500AF4FF6FF7117
:10141C000020FFF7C5FF80BD80B485B000AF154B31
:10142C009B69144A43F001039361124B9B6903F0CF
:10143C000103BB60BB680F4BDB690E4A43F0805362
:10144C00D3610C4BDB6903F080537B607B680A4BE8
:10145C005B68FB60FB6823F0E063FB60FB6843F0B8
:10146C000073FB60044AFB68536000BF1437BD4631
:10147C0080BC7047001002400000014080B588B06D
:10148C0000AF786007F1100300221A605A609A606E
:10149C00DA607B681B681F4A934237D11E4B9B69ED
:1014AC001D4A43F4805393611B4B9B6903F4805397
:1014BC00FB60FB68184B9B69174A43F0040393616C
:1014CC00154B9B6903F00403BB60BB68A0233B6115
:1014DC0002237B610323FB6107F1100319460F48BC
:1014EC0000F09EFB40233B6100237B610023BB612A
:1014FC0007F110031946094800F092FB0022002165
:10150C00232000F0A6FA232000F0BFFA00BF2037FA
:10151C00BD4680BD00300140001002400008014073
:10152C0080B586B000AF78607B681B68B3F1804FE4
:10153C0014D1264BDB69254A43F00103D361234BBD
:10154C00DB6903F001037B617B69002200211C2015
:10155C0000F07FFA1C2000F098FA32E07B681B68E0
:10156C001B4A934214D1194BDB69184A43F002030E
:10157C00D361164BDB6903F002033B613B6900222C
:10158C0000211D2000F065FA1D2000F07EFA18E005
:10159C007B681B680F4A934213D10C4BDB690B4AD7
:1015AC0043F00403D361094BDB6903F00403FB60D4
:1015BC00FB68002200211E2000F04BFA1E2000F0D8
:1015CC0064FA00BF1837BD4680BD00BF0010024052
:1015DC00000400400008004080B588B000AF78607F
:1015EC0007F1100300221A605A609A60DA607B6877
:1015FC001B68204A934239D11F4B9B691E4A43F406
:10160C00804393611C4B9B6903F48043FB60FB6834
:10161C00194B9B69184A43F004039361164B9B6961
:10162C0003F00403BB60BB684FF400733B610223FF
:10163C007B610323FB6107F1100319460F4800F08F
:10164C00EFFA4FF480633B6100237B610023BB61A5
:10165C0007F110031946094800F0E2FA00220021B4
:10166C00252000F0F6F9252000F00FFA00BF2037F6
:10167C00BD4680BD0038014000100240000801400A
:10168C0080B400AFFEE780B400AFFEE780B400AFDB
:10169C00FEE780B400AFFEE780B400AFFEE780B495
:1016AC0000AF00BFBD4680BC704780B400AF00BF28
:1016BC00BD4680BC704780B400AF00BFBD4680BC47
:1016CC00704780B500AF00F0ADF800BF80BD80B5AD
:1016DC0000AF102000F040FC00BF80BD80B500AF13
:1016EC00024801F041FE00BF80BD00BF7402002023
:1016FC0080B500AF024801F037FE00BF80BD00BFCF
:10170C00BC02002080B500AF024801F02DFE00BFE6
:10171C0080BD00BF0403002080B500AF024801F07B
:10172C00B1FB00BF80BD00BF1C02002080B500AF24
:10173C00024802F033FA00BF80BD00BF4C0300200A
:10174C0080B400AF00BFBD4680BC70470C480D494B
:10175C000D4A002302E0D458C4500433C4188C4200
:10176C00F9D30A4A0A4C002301E013600432A24266
:10177C00FBD3FFF7E5FF02F00DFEFFF717F87047FC
:10178C000000002000020020584600080002002043
:10179C00FC200020FEE7000080B500AF084B1B6862
:1017AC00074A43F010031360032000F047F90F20A1
:1017BC0000F008F8FFF730FE0023184680BD00BF8C
:1017CC000020024080B582B000AF7860124B1A68DE
:1017DC00124B1B7819464FF47A73B3FBF1F3B2FB3F
:1017EC00F3F3184600F05FF90346002B01D00123F8
:1017FC000EE07B680F2B0AD8002279684FF0FF307F
:10180C0000F027F9064A7B681360002300E00123EF
:10181C0018460837BD4680BD900100209801002075
:10182C009401002080B400AF054B1B781A46054B81
:10183C001B681344034A136000BFBD4680BC70474D
:10184C0098010020F820002080B400AF024B1B68E8
:10185C001846BD4680BC7047F820002080B584B087
:10186C0000AF7860FFF7F0FFB8607B68FB60FB6847
:10187C00B3F1FF3F05D00A4B1B781A46FB681344A3
:10188C00FB6000BFFFF7E0FF0246BB68D31AFA68A3
:10189C009A42F7D800BF00BF1037BD4680BD00BFCD
:1018AC009801002080B485B000AF78607B6803F0AD
:1018BC000703FB600C4BDB68BB60BA684FF6FF0399
:1018CC001340BB60FB681A02BB68134343F0BF6351
:1018DC0043F40033BB60044ABB68D36000BF1437C9
:1018EC00BD4680BC704700BF00ED00E080B400AF87
:1018FC00044BDB681B0A03F007031846BD4680BC8B
:10190C00704700BF00ED00E080B483B000AF034629
:10191C00FB7197F90730002B0BDBFB7903F01F02EF
:10192C00064997F907305B09012000FA02F241F8E9
:10193C00232000BF0C37BD4680BC704700E100E09F
:10194C0080B483B000AF03463960FB7197F9073060
:10195C00002B0ADB3B68DAB20C4997F9073012010D
:10196C00D2B20B4483F800230AE03B68DAB2084990
:10197C00FB7903F00F03043B1201D2B20B441A762D
:10198C0000BF0C37BD4680BC704700BF00E100E0D3
:10199C0000ED00E080B489B000AFF860B9607A6007
:1019AC00FB6803F00703FB61FB69C3F10703042B1E
:1019BC0028BF0423BB61FB690433062B02D9FB69E6
:1019CC00033B00E000237B614FF0FF32BB6902FA5E
:1019DC0003F3DA43BB681A407B699A404FF0FF313E
:1019EC007B6901FA03F3D9437B680B401343184618
:1019FC002437BD4680BC704780B582B000AF78609C
:101A0C007B68013BB3F1807F01D301230FE00A4ACD
:101A1C007B68013B53600F214FF0FF30FFF790FFC5
:101A2C00054B00229A60044B07221A6000231846CB
:101A3C000837BD4680BD00BF10E000E080B582B025
:101A4C0000AF78607868FFF72DFF00BF0837BD4600
:101A5C0080BD80B586B000AF0346B9607A60FB7379
:101A6C0000237B61FFF742FF78617A68B968786977
:101A7C00FFF790FF024697F90F3011461846FFF713
:101A8C005FFF00BF1837BD4680BD80B582B000AF88
:101A9C000346FB7197F907301846FFF735FF00BF77
:101AAC000837BD4680BD80B582B000AF78607868DD
:101ABC00FFF7A2FF034618460837BD4680BD80B429
:101ACC0085B000AF78600023FB737B6893F82130FE
:101ADC00022B08D07B6804229A637B68002283F86F
:101AEC002020012320E07B681B681A687B681B6838
:101AFC0022F00E021A607B681B681A687B681B68F0
:101B0C0022F001021A607B681A6C7B68DB6B012186
:101B1C0001FA02F25A607B68012283F821207B686B
:101B2C00002283F82020FB7B18461437BD4680BC6E
:101B3C007047000080B584B000AF78600023FB7361
:101B4C007B6893F82130022B05D07B6804229A63C2
:101B5C000123FB7351E07B681B681A687B681B6868
:101B6C0022F00E021A607B681B681A687B681B687F
:101B7C0022F001021A607B681B68224A934229D02A
:101B8C007B681B68204A934222D07B681B681F4AE3
:101B9C0093421AD07B681B681D4A934212D07B6813
:101BAC001B681C4A93420AD07B681B681A4A9342F2
:101BBC0002D14FF480130EE04FF080730BE04FF422
:101BCC00803308E04FF4805305E04FF4807302E05B
:101BDC00102300E00123114A53607B68012283F833
:101BEC0021207B68002283F820207B685B6B002B14
:101BFC0003D07B685B6B78689847FB7B1846103783
:101C0C00BD4680BD080002401C000240300002406E
:101C1C0044000240580002406C00024000000240A8
:101C2C0080B48BB000AF7860396000237B620023F6
:101C3C003B6269E101227B6A02FA03F3FB613B68B8
:101C4C001B68FA691340BB61BA69FB699A4240F0A0
:101C5C0058813B685B689A4A93425ED0984A93429B
:101C6C0075D8984A934258D0964A93426FD8964A60
:101C7C00934252D0944A934269D8944A93424CD09E
:101C8C00924A934263D8924A934246D0904A9342E6
:101C9C005DD8122B2AD8122B59D801A252F823F056
:101CAC00271D0008011D0008131D0008551D000804
:101CBC005B1D00085B1D00085B1D00085B1D000818
:101CCC005B1D00085B1D00085B1D00085B1D000808
:101CDC005B1D00085B1D00085B1D00085B1D0008F8
:101CEC005B1D0008091D00081D1D0008794A934260
:101CFC0013D02CE03B68DB683B6229E03B68DB6877
:101D0C0004333B6224E03B68DB6808333B621FE032
:101D1C003B68DB680C333B621AE03B689B68002B2A
:101D2C0002D104233B6213E03B689B68012B05D175
:101D3C0008233B627B68FA691A6109E008233B625D
:101D4C007B68FA695A6103E000233B6200E000BF44
:101D5C00BB69FF2B01D87B6801E07B6804337B6196
:101D6C00BB69FF2B02D87B6A9B0002E07B6A083BB5
:101D7C009B003B617B691A680F213B6901FA03F3F5
:101D8C00DB431A40396A3B6901FA03F31A437B6956
:101D9C001A603B685B6803F08053002B00F0B18045
:101DAC004D4B9B694C4A43F0010393614A4B9B6931
:101DBC0003F00103BB60BB68484A7B6A9B08023393
:101DCC0052F82330FB607B6A03F003039B000F2265
:101DDC0002FA03F3DB43FA681340FB607B68404A6A
:101DEC00934213D07B683F4A93420DD07B683E4AA6
:101DFC00934207D07B683D4A934201D1032306E00E
:101E0C00042304E0022302E0012300E000237A6AA9
:101E1C0002F0030292009340FA681343FB602F49CF
:101E2C007B6A9B080233FA6841F823203B685B68A5
:101E3C0003F48033002B06D02D4B1A682C49BB6958
:101E4C0013430B6006E02A4B1A68BB69DB43284935
:101E5C0013400B603B685B6803F40033002B06D027
:101E6C00234B5A682249BB6913434B6006E0204B55
:101E7C005A68BB69DB431E4913404B603B685B6887
:101E8C0003F48013002B06D0194B9A681849BB69D0
:101E9C0013438B6006E0164B9A68BB69DB4314490D
:101EAC0013408B603B685B6803F40013002B21D05C
:101EBC000F4BDA680E49BB691343CB6021E000BFBE
:101ECC000000321000003110000022100000211020
:101EDC000000121000001110001002400000014020
:101EEC0000080140000C01400010014000140140AA
:101EFC00000401400B4BDA68BB69DB430949134012
:101F0C00CB607B6A01337B623B681A687B6A22FA7E
:101F1C0003F3002B7FF48EAE00BF00BF2C37BD4601
:101F2C0080BC70470004014080B483B000AF78607F
:101F3C000B467B8013467B707B78002B03D07A8812
:101F4C007B681A6103E07B881A047B681A6100BF06
:101F5C000C37BD4680BC704780B582B000AF0346DD
:101F6C00FB80084B5A69FB881340002B06D0054AAE
:101F7C00FB885361FB881846FFF736F900BF08371A
:101F8C00BD4680BD0004014080B586B000AF7860CE
:101F9C007B68002B01D1012372E27B681B6803F084
:101FAC000103002B00F08780924B5B6803F00C035D
:101FBC00042B0CD08F4B5B6803F00C03082B12D155
:101FCC008C4B5B6803F48033B3F5803F0BD1894BAA
:101FDC001B6803F40033002B6CD07B685B68002B10
:101FEC0068D101234CE27B685B68B3F5803F06D176
:101FFC00804B1B687F4A43F4803313602EE07B6870
:10200C005B68002B0CD17B4B1B687A4A23F4803322
:10201C001360784B1B68774A23F4802313601DE010
:10202C007B685B68B3F5A02F0CD1724B1B68714AAF
:10203C0043F4802313606F4B1B686E4A43F4803368
:10204C0013600BE06B4B1B686A4A23F480331360FC
:10205C00684B1B68674A23F4802313607B685B68BA
:10206C00002B13D0FFF7F0FB386108E0FFF7ECFB17
:10207C0002463B69D31A642B01D9032300E25D4B62
:10208C001B6803F40033002BF0D014E0FFF7DCFBEB
:10209C00386108E0FFF7D8FB02463B69D31A642B82
:1020AC0001D90323ECE1534B1B6803F40033002BE1
:1020BC00F0D100E000BF7B681B6803F00203002B2B
:1020CC0063D04C4B5B6803F00C03002B0BD0494BDB
:1020DC005B6803F00C03082B1CD1464B5B6803F4C4
:1020EC008033002B16D1434B1B6803F00203002BEB
:1020FC0005D07B681B69012B01D00123C0E13D4B4E
:10210C001B6823F0F8027B685B69DB0039491343D9
:10211C000B603AE07B681B69002B20D0364B012208
:10212C001A60FFF791FB386108E0FFF78DFB024660
:10213C003B69D31A022B01D90323A1E12D4B1B6858
:10214C0003F00203002BF0D02A4B1B6823F0F8029B
:10215C007B685B69DB00274913430B6015E0264B5A
:10216C0000221A60FFF770FB386108E0FFF76CFB88
:10217C0002463B69D31A022B01D9032380E11D4B84
:10218C001B6803F00203002BF0D17B681B6803F083
:10219C000803002B3AD07B689B69002B19D0174B96
:1021AC0001221A60FFF750FB386108E0FFF74CFB87
:1021BC0002463B69D31A022B01D9032360E10D4B74
:1021CC005B6A03F00203002BF0D0012000F0DAFA76
:1021DC001CE00A4B00221A60FFF736FB38610FE057
:1021EC00FFF732FB02463B69D31A022B08D90323B3
:1021FC0046E100BF0010024000004242800442420F
:10220C00924B5B6A03F00203002BE9D17B681B68DD
:10221C0003F00403002B00F0A6800023FB758B4B0E
:10222C00DB6903F08053002B0DD1884BDB69874AA7
:10223C0043F08053D361854BDB6903F08053BB6063
:10224C00BB680123FB75824B1B6803F48073002B66
:10225C0018D17F4B1B687E4A43F480731360FFF7E1
:10226C00F3FA386108E0FFF7EFFA02463B69D31A3C
:10227C00642B01D9032303E1754B1B6803F48073B2
:10228C00002BF0D07B68DB68012B06D16F4B1B6AEF
:10229C006E4A43F0010313622DE07B68DB68002B70
:1022AC000CD16A4B1B6A694A23F001031362674B1A
:1022BC001B6A664A23F0040313621CE07B68DB682C
:1022CC00052B0CD1614B1B6A604A43F0040313626B
:1022DC005E4B1B6A5D4A43F0010313620BE05B4BE0
:1022EC001B6A5A4A23F001031362584B1B6A574A64
:1022FC0023F0040313627B68DB68002B15D0FFF717
:10230C00A3FA38610AE0FFF79FFA02463B69D31A39
:10231C0041F28832934201D90323B1E04B4B1B6A43
:10232C0003F00203002BEED014E0FFF78DFA3861B6
:10233C000AE0FFF789FA02463B69D31A41F2883268
:10234C00934201D903239BE0404B1B6A03F0020329
:10235C00002BEED1FB7D012B05D13C4BDB693B4ABD
:10236C0023F08053D3617B68DB69002B00F08780FE
:10237C00364B5B6803F00C03082B61D07B68DB6980
:10238C00022B46D1334B00221A60FFF75DFA3861FD
:10239C0008E0FFF759FA02463B69D31A022B01D920
:1023AC0003236DE0294B1B6803F00073002BF0D165
:1023BC007B681B6AB3F5803F08D1244B5B6823F420
:1023CC0000327B689B68214913434B601F4B5B6851
:1023DC0023F474127B68196A7B685B6A0B431B4994
:1023EC0013434B601B4B01221A60FFF72DFA386127
:1023FC0008E0FFF729FA02463B69D31A022B01D9F0
:10240C0003233DE0114B1B6803F00073002BF0D04D
:10241C0035E0104B00221A60FFF716FA386108E01D
:10242C00FFF712FA02463B69D31A022B01D9032398
:10243C0026E0064B1B6803F00073002BF0D11EE066
:10244C007B68DB69012B07D1012319E000100240E6
:10245C0000700040600042420B4B5B68FB60FB6805
:10246C0003F480327B681B6A9A4206D1FB6803F442
:10247C0070127B685B6A9A4201D0012300E0002352
:10248C0018461837BD4680BD0010024080B584B098
:10249C0000AF786039607B68002B01D10123D0E05C
:1024AC006A4B1B6803F007033A689A4210D9674BD2
:1024BC001B6823F0070265493B6813430B60634BB1
:1024CC001B6803F007033A689A4201D00123B8E075
:1024DC007B681B6803F00203002B20D07B681B6811
:1024EC0003F00403002B05D0594B5B68584A43F4A6
:1024FC00E06353607B681B6803F00803002B05D076
:10250C00534B5B68524A43F460535360504B5B68C7
:10251C0023F0F0027B689B684D4913434B607B684A
:10252C001B6803F00103002B40D07B685B68012B18
:10253C0007D1474B1B6803F40033002B15D1012343
:10254C007FE07B685B68022B07D1414B1B6803F073
:10255C000073002B09D1012373E03D4B1B6803F082
:10256C000203002B01D101236BE0394B5B6823F094
:10257C0003027B685B68364913434B60FFF764F9D1
:10258C00F8600AE0FFF760F90246FB68D31A41F2E3
:10259C008832934201D9032353E02D4B5B6803F03F
:1025AC000C027B685B689B009A42EBD1274B1B6843
:1025BC0003F007033A689A4210D2244B1B6823F0AD
:1025CC00070222493B6813430B60204B1B6803F046
:1025DC0007033A689A4201D0012332E07B681B68FA
:1025EC0003F00403002B08D0194B5B6823F4E06262
:1025FC007B68DB68164913434B607B681B6803F0F0
:10260C000803002B09D0124B5B6823F460527B68E3
:10261C001B69DB000E4913434B6000F021F80246A6
:10262C000B4B5B681B0903F00F030A49CB5C22FAC6
:10263C0003F3094A1360094B1B681846FFF7C2F8ED
:10264C00002318461037BD4680BD00BF0020024055
:10265C00001002402C45000890010020940100203D
:10266C0090B48AB000AF294B3C1D0FCB84E80F000F
:10267C0040F201233B800023FB610023BB6100235C
:10268C007B6200237B6100233B62214B5B68FB6117
:10269C00FB6903F00C03042B02D0082B03D02BE0B6
:1026AC001C4B3B622BE0FB699B0C03F00F032833A4
:1026BC003B4413F8243C7B61FB6903F48033002B0F
:1026CC0012D0134B5B685B0C03F0010328333B44C3
:1026DC0013F8283CBB617B690E4A03FB02F2BB6911
:1026EC00B2FBF3F37B6204E07B690B4A02FB03F35E
:1026FC007B627B6A3B6202E0084B3B6200BF3B6A39
:10270C0018462837BD4690BC704700BF1C450008D2
:10271C0000100240001BB70000093D0000127A00B7
:10272C0080B400AF024B1B681846BD4680BC704796
:10273C009001002080B500AFFFF7F2FF0246054B79
:10274C005B681B0A03F007030349CB5C22FA03F313
:10275C00184680BD001002403C45000880B500AF13
:10276C00FFF7DEFF0246054B5B68DB0A03F007034D
:10277C000349CB5C22FA03F3184680BD00100240DB
:10278C003C45000880B485B000AF78600A4B1B68EC
:10279C000A4AA2FB03235B0A7A6802FB03F3FB6081
:1027AC0000BFFB685A1EFA60002BF9D100BF00BFB6
:1027BC001437BD4680BC704790010020D34D621089
:1027CC0080B582B000AF78607B68002B01D101230B
:1027DC0076E07B685B6A002B08D17B685B68B3F59D
:1027EC00827F09D07B680022DA6105E07B680022D9
:1027FC001A617B6800225A617B6800229A627B68AE
:10280C0093F85130DBB2002B06D17B68002283F8A1
:10281C0050207868FEF732FE7B68022283F8512044
:10282C007B681B681A687B681B6822F040021A6080
:10283C007B685B6803F482727B689B6803F40443D7
:10284C001A437B68DB6803F400631A437B681B69DB
:10285C0003F002031A437B685B6903F001031A431C
:10286C007B689B6903F400731A437B68DB6903F094
:10287C0038031A437B681B6A03F0800342EA0301A6
:10288C007B689B6A03F400527B681B680A431A60DE
:10289C007B689B691A0C7B681B6802F004025A6007
:1028AC007B681B68DA697B681B6822F40062DA615A
:1028BC007B6800225A657B68012283F85120002333
:1028CC0018460837BD4680BD80B588B000AFF860AB
:1028DC00B9603B601346FB800023FB77FB6893F8E1
:1028EC005030012B01D1022326E1FB68012283F831
:1028FC005020FEF7A9FFB861FB88FB82FB6893F8B8
:10290C005130DBB2012B02D00223FB770BE1BB6809
:10291C00002B02D0FB88002B02D10123FB7702E1B4
:10292C00FB68032283F85120FB6800225A65FB6880
:10293C00BA681A63FB68FA889A86FB68FA88DA86A2
:10294C00FB6800229A63FB6800229A87FB680022CE
:10295C00DA87FB6800225A64FB6800221A64FB6861
:10296C009B68B3F5004F0FD1FB681B681A68FB68B6
:10297C001B6822F040021A60FB681B681A68FB682F
:10298C001B6842F480421A60FB681B681B6803F0EA
:10299C004003402B07D0FB681B681A68FB681B6858
:1029AC0042F040021A60FB68DB68B3F5006F4BD154
:1029BC00FB685B68002B02D0FB8A012B3ED1FB68C5
:1029CC001B6B1A88FB681B68DA60FB681B6B9A1C14
:1029DC00FB681A63FB68DB8E9BB2013B9AB2FB6807
:1029EC00DA862BE0FB681B689B6803F00203022B62
:1029FC0012D1FB681B6B1A88FB681B68DA60FB68DA
:102A0C001B6B9A1CFB681A63FB68DB8E9BB2013B49
:102A1C009AB2FB68DA8611E0FEF716FF0246BB6934
:102A2C00D31A3A689A4203D83B68B3F1FF3F02D1FC
:102A3C003B68002B02D10323FB7774E0FB68DB8E31
:102A4C009BB2002BCED14CE0FB685B68002B02D014
:102A5C00FB8A012B40D1FB681A6BFB681B680C339B
:102A6C0012781A70FB681B6B5A1CFB681A63FB68A4
:102A7C00DB8E9BB2013B9AB2FB68DA862CE0FB68DA
:102A8C001B689B6803F00203022B13D1FB681A6BC3
:102A9C00FB681B680C3312781A70FB681B6B5A1C92
:102AAC00FB681A63FB68DB8E9BB2013B9AB2FB6836
:102ABC00DA8611E0FEF7C8FE0246BB69D31A3A6803
:102ACC009A4203D83B68B3F1FF3F02D13B68002B1D
:102ADC0002D10323FB7726E0FB68DB8E9BB2002B35
:102AEC00CDD1BA693968F86800F058FB0346002B61
:102AFC0002D0FB6820225A65FB689B68002B0AD128
:102B0C0000233B61FB681B68DB683B61FB681B684F
:102B1C009B683B613B69FB685B6D002B02D001231A
:102B2C00FB7700E000BFFB68012283F85120FB68B3
:102B3C00002283F85020FB7F18462037BD4680BD0D
:102B4C0080B58CB000AFF860B9607A607B800123EF
:102B5C00FB62002387F82B30FB6893F85030012B75
:102B6C0001D102238AE1FB68012283F85020FEF791
:102B7C006BFE7862FB6893F8513087F82330FB6862
:102B8C005B68FB617B887B8397F82330012B0FD02C
:102B9C00FB69B3F5827F07D1FB689B68002B03D1DF
:102BAC0097F82330042B03D0022387F82B305BE1FA
:102BBC00BB68002B05D07B68002B02D07B88002BD8
:102BCC0003D1012387F82B304EE1FB6893F8513089
:102BDC00DBB2042B03D0FB68052283F85120FB6881
:102BEC0000225A65FB687A689A63FB687A88DA87F0
:102BFC00FB687A889A87FB68BA681A63FB687A88DC
:102C0C00DA86FB687A889A86FB6800221A64FB686D
:102C1C0000225A64FB681B681B6803F04003402BBE
:102C2C0007D0FB681B681A68FB681B6842F04002FF
:102C3C001A60FB68DB68B3F5006F78D1FB685B68E2
:102C4C00002B02D07B8B012B66D1FB681B6B1A8887
:102C5C00FB681B68DA60FB681B6B9A1CFB681A63C9
:102C6C00FB68DB8E9BB2013B9AB2FB68DA8653E0C1
:102C7C00FB681B689B6803F00203022B1BD1FB68EB
:102C8C00DB8E9BB2002B16D0FB6A012B13D1FB6899
:102C9C001B6B1A88FB681B68DA60FB681B6B9A1C41
:102CAC00FB681A63FB68DB8E9BB2013B9AB2FB6834
:102CBC00DA860023FB62FB681B689B6803F0010348
:102CCC00012B19D1FB68DB8F9BB2002B14D0FB6856
:102CDC001B68DA68FB689B6B92B21A80FB689B6B73
:102CEC009A1CFB689A63FB68DB8F9BB2013B9AB220
:102CFC00FB68DA870123FB62FEF7A6FD02467B6ABE
:102D0C00D31ABA6B9A4207D8BB6BB3F1FF3F03D00F
:102D1C00032387F82B30A7E0FB68DB8E9BB2002BDC
:102D2C00A6D1FB68DB8F9BB2002BA1D17CE0FB68AA
:102D3C005B68002B02D07B8B012B6BD1FB681A6B71
:102D4C00FB681B680C3312781A70FB681B6B5A1CDF
:102D5C00FB681A63FB68DB8E9BB2013B9AB2FB6883
:102D6C00DA8657E0FB681B689B6803F00203022BB2
:102D7C001CD1FB68DB8E9BB2002B17D0FB6A012B9E
:102D8C0014D1FB681A6BFB681B680C3312781A7031
:102D9C00FB681B6B5A1CFB681A63FB68DB8E9BB2CF
:102DAC00013B9AB2FB68DA860023FB62FB681B6866
:102DBC009B6803F00103012B19D1FB68DB8F9BB2DD
:102DCC00002B14D0FB681B68DA68FB689B6BD2B2D3
:102DDC001A70FB689B6B5A1CFB689A63FB68DB8F51
:102DEC009BB2013B9AB2FB68DA870123FB62FEF7C8
:102DFC002BFD02467B6AD31ABA6B9A4203D8BB6B83
:102E0C00B3F1FF3F02D1BB6B002B03D1032387F837
:102E1C002B3029E0FB68DB8E9BB2002BA2D1FB6828
:102E2C00DB8F9BB2002B9DD17A6AB96BF86800F0EE
:102E3C00B5F90346002B06D0012387F82B30FB682D
:102E4C0020225A6510E0FB689B68002B0BD10023F5
:102E5C007B61FB681B68DB687B61FB681B689B689C
:102E6C007B617B6900E000BFFB68012283F8512085
:102E7C00FB68002283F8502097F82B301846303727
:102E8C00BD4680BD80B588B000AF78607B681B689C
:102E9C005B68FB617B681B689B68BB61BB699B09BA
:102EAC0003F00103002B0FD1BB6903F00103002BCE
:102EBC000AD0FB699B0903F00103002B04D07B684B
:102ECC001B6C78689847BEE0BB695B0803F0010394
:102EDC00002B0AD0FB69DB0903F00103002B04D0A3
:102EEC007B685B6C78689847ADE0BB695B0903F065
:102EFC000103002B06D1BB699B0903F00103002BD6
:102F0C0000F0A180FB695B0903F00103002B00F0CA
:102F1C009A80BB699B0903F00103002B23D07B68CB
:102F2C0093F85130DBB2032B11D07B685B6D43F00F
:102F3C0004027B685A6500237B617B681B68DB6835
:102F4C007B617B681B689B687B617B690BE0002362
:102F5C003B617B681B68DB683B617B681B689B681B
:102F6C003B613B696FE0BB695B0903F00103002B1C
:102F7C0014D07B685B6D43F001027B685A650023BB
:102F8C00FB607B681B689B68FB607B681B681A682E
:102F9C007B681B6822F040021A60FB687B685B6DE3
:102FAC00002B4FD07B681B685A687B681B6822F02B
:102FBC00E0025A607B68012283F85120FB6903F020
:102FCC000203002B04D1FB6903F00103002B34D066
:102FDC007B681B685A687B681B6822F003025A6086
:102FEC007B68DB6C002B11D07B68DB6C174A5A6357
:102FFC007B68DB6C1846FEF79DFD0346002B05D065
:10300C007B685B6D43F040027B685A657B689B6C08
:10301C00002B16D07B689B6C0C4A5A637B689B6CAC
:10302C001846FEF787FD0346002B0AD07B685B6DC4
:10303C0043F040027B685A6503E0786800F008F8BA
:10304C0000E000BF00BF2037BD4680BD6F300008D8
:10305C0080B483B000AF786000BF0C37BD4680BC35
:10306C00704780B584B000AF78607B685B6AFB60AA
:10307C00FB680022DA87FB680022DA86F868FFF723
:10308C00E7FF00BF1037BD4680BD000080B588B09B
:10309C0000AFF860B9603B601346FB71FEF7D4FBE0
:1030AC000246BB6A9B1A3A681344FB61FEF7CCFBE1
:1030BC00B861394B1B685B011B0DFA6902FB03F30A
:1030CC007B6154E03B68B3F1FF3F50D0FEF7BCFB93
:1030DC000246BB69D31AFA699A4202D9FB69002BE2
:1030EC003DD1FB681B685A68FB681B6822F0E00244
:1030FC005A60FB685B68B3F5827F11D1FB689B68F3
:10310C00B3F5004F04D0FB689B68B3F5806F07D113
:10311C00FB681B681A68FB681B6822F040021A6087
:10312C00FB689B6AB3F5005F0FD1FB681B681A68DC
:10313C00FB681B6822F400521A60FB681B681A6853
:10314C00FB681B6842F400521A60FB68012283F88A
:10315C005120FB68002283F85020032317E07B6981
:10316C00002B01D10023FB617B69013B7B61FB6878
:10317C001B689A68BB681340BA689A420CBF01235B
:10318C000023DBB21A46FB799A429BD100231846E6
:10319C002037BD4680BD00BF9001002080B586B0B1
:1031AC0002AFF860B9607A607B680093BB6800225C
:1031BC008021F868FFF76AFF0346002B07D0FB68F5
:1031CC005B6D43F02002FB685A65032300E000238B
:1031DC0018461037BD4680BD80B582B000AF786010
:1031EC007B68002B01D1012341E07B6893F83D30D3
:1031FC00DBB2002B06D17B68002283F83C20786878
:10320C00FEF78EF97B68022283F83D207B681A68F2
:10321C007B6804331946104600F096FA7B6801224D
:10322C0083F846207B68012283F83E207B680122CC
:10323C0083F83F207B68012283F840207B680122C1
:10324C0083F841207B68012283F842207B680122AD
:10325C0083F843207B68012283F844207B68012299
:10326C0083F845207B68012283F83D200023184613
:10327C000837BD4680BD80B483B000AF78607B68F2
:10328C001B681A6A41F211131340002B0FD17B6893
:10329C001B681A6A40F244431340002B07D17B6829
:1032AC001B681A687B681B6822F001021A607B6835
:1032BC00012283F83D20002318460C37BD4680BC04
:1032CC007047000080B485B000AF78607B6893F8DD
:1032DC003D30DBB2012B01D001233AE07B680222A6
:1032EC0083F83D207B681B68DA687B681B6842F0BA
:1032FC000102DA607B681B68184A93420ED07B6827
:10330C001B68B3F1804F09D07B681B68144A934249
:10331C0004D07B681B68134A934211D17B681B68ED
:10332C009B6803F00703FB60FB68062B10D07B68DF
:10333C001B681A687B681B6842F001021A6007E080
:10334C007B681B681A687B681B6842F001021A6074
:10335C00002318461437BD4680BC7047002C014032
:10336C00000400400008004080B582B000AF7860D7
:10337C007B681B681B6903F00203022B22D17B685C
:10338C001B68DB6803F00203022B1BD17B681B68F4
:10339C006FF002021A617B6801221A777B681B6846
:1033AC009B6903F00303002B03D0786800F0B1F99C
:1033BC0005E0786800F0A4F9786800F0B3F97B6850
:1033CC0000221A777B681B681B6903F00403042B2B
:1033DC0022D17B681B68DB6803F00403042B1BD130
:1033EC007B681B686FF004021A617B6802221A77F3
:1033FC007B681B689B6903F44073002B03D07868CF
:10340C0000F087F905E0786800F07AF9786800F048
:10341C0089F97B6800221A777B681B681B6903F0AB
:10342C000803082B22D17B681B68DB6803F00803B8
:10343C00082B1BD17B681B686FF008021A617B6834
:10344C0004221A777B681B68DB6903F00303002BEB
:10345C0003D0786800F05DF905E0786800F050F969
:10346C00786800F05FF97B6800221A777B681B682C
:10347C001B6903F01003102B22D17B681B68DB68DF
:10348C0003F01003102B1BD17B681B686FF010022C
:10349C001A617B6808221A777B681B68DB6903F466
:1034AC004073002B03D0786800F033F905E078689E
:1034BC0000F026F9786800F035F97B6800221A775D
:1034CC007B681B681B6903F00103012B0ED17B6821
:1034DC001B68DB6803F00103012B07D17B681B68B9
:1034EC006FF001021A617868FDF72CFE7B681B688F
:1034FC001B6903F08003802B0ED17B681B68DB6893
:10350C0003F08003802B07D17B681B686FF080026F
:10351C001A61786800F077FA7B681B681B6903F006
:10352C004003402B0ED17B681B68DB6803F0400323
:10353C00402B07D17B681B686FF040021A617868DA
:10354C0000F0F9F87B681B681B6903F02003202B43
:10355C000ED17B681B68DB6803F02003202B07D19E
:10356C007B681B686FF020021A61786800F042FAE1
:10357C0000BF0837BD4680BD80B584B000AF786011
:10358C0039607B6893F83C30012B01D10223B3E006
:10359C007B68012283F83C207B68022283F83D2063
:1035AC007B681B689B68FB60FB6823F07703FB6000
:1035BC00FB6823F47F43FB607B681B68FA689A60A6
:1035CC003B681B68B3F5005F3ED0B3F5005F00F2BB
:1035DC008780B3F5805F00F08580B3F5805F7FD87E
:1035EC00702B1AD0702B7BD8602B50D0602B77D8D7
:1035FC00502B3CD0502B73D8402B58D0402B6FD82D
:10360C00302B64D0302B6BD8202B60D0202B67D87C
:10361C00002B5CD0102B5AD062E07B6818683B689A
:10362C0099683B685A683B68DB6800F066F97B6810
:10363C001B689B68FB60FB6843F07703FB607B684F
:10364C001B68FA689A604EE07B6818683B6899685A
:10365C003B685A683B68DB6800F04FF97B681B6875
:10366C009A687B681B6842F480429A603BE07B68F6
:10367C0018683B6859683B68DB681A4600F0C6F866
:10368C007B681B685021184600F01DF92BE07B6805
:10369C0018683B6859683B68DB681A4600F0E4F828
:1036AC007B681B686021184600F00DF91BE07B68F5
:1036BC0018683B6859683B68DB681A4600F0A6F846
:1036CC007B681B684021184600F0FDF80BE07B6816
:1036DC001A683B681B681946104600F0F4F802E0C3
:1036EC0000BF00E000BF7B68012283F83D207B68AF
:1036FC00002283F83C20002318461037BD4680BDBD
:10370C0080B483B000AF786000BF0C37BD4680BC7E
:10371C00704780B483B000AF786000BF0C37BD46F3
:10372C0080BC704780B483B000AF786000BF0C37AA
:10373C00BD4680BC704780B483B000AF786000BFDA
:10374C000C37BD4680BC704780B485B000AF786044
:10375C0039607B681B68FB607B68294A93420BD0FD
:10376C007B68B3F1804F07D07B68264A934203D025
:10377C007B68254A934208D1FB6823F07003FB60F9
:10378C003B685B68FA681343FB607B681C4A934296
:10379C000BD07B68B3F1804F07D07B68194A9342FA
:1037AC0003D07B68184A934208D1FB6823F440731A
:1037BC00FB603B68DB68FA681343FB60FB6823F033
:1037CC0080023B685B691343FB607B68FA681A6094
:1037DC003B689A687B68DA623B681A687B689A6215
:1037EC007B68074A934203D13B681A697B681A636A
:1037FC007B6801225A6100BF1437BD4680BC7047FC
:10380C00002C0140000400400008004080B487B048
:10381C0000AFF860B9607A60FB681B6A7B61FB687B
:10382C001B6A23F00102FB681A62FB689B693B610F
:10383C003B6923F0F0033B617B681B013A6913433E
:10384C003B617B6923F00A037B617A69BB68134394
:10385C007B61FB683A699A61FB687A691A6200BFFE
:10386C001C37BD4680BC704780B487B000AFF86091
:10387C00B9607A60FB681B6A23F01002FB681A625D
:10388C00FB689B697B61FB681B6A3B617B6923F46A
:10389C0070437B617B681B037A6913437B613B69D3
:1038AC0023F0A0033B61BB681B013A6913433B61E6
:1038BC00FB687A699A61FB683A691A6200BF1C3727
:1038CC00BD4680BC704780B485B000AF786039606D
:1038DC007B689B68FB60FB6823F07003FB603A68B5
:1038EC00FB68134343F00703FB607B68FA689A603C
:1038FC0000BF1437BD4680BC704780B487B000AFA2
:10390C00F860B9607A603B60FB689B687B617B699F
:10391C0023F47F437B613B681A027B681A43BB68C4
:10392C0013437A6913437B61FB687A699A6000BF21
:10393C001C37BD4680BC704780B485B000AF786042
:10394C0039607B6893F83C30012B01D1022346E0AF
:10395C007B68012283F83C207B68022283F83D209F
:10396C007B681B685B68FB607B681B689B68BB6043
:10397C00FB6823F07003FB603B681B68FA68134319
:10398C00FB607B681B68FA685A607B681B68164A88
:10399C0093420ED07B681B68B3F1804F09D07B68D3
:1039AC001B68124A934204D07B681B68104A9342EE
:1039BC000CD1BB6823F08003BB603B685B68BA68C2
:1039CC001343BB607B681B68BA689A607B680122F2
:1039DC0083F83D207B68002283F83C2000231846A6
:1039EC001437BD4680BC7047002C014000040040D9
:1039FC000008004080B483B000AF786000BF0C3783
:103A0C00BD4680BC704780B483B000AF786000BF07
:103A1C000C37BD4680BC704780B582B000AF786073
:103A2C007B68002B01D101233FE07B6893F83D308C
:103A3C00DBB2002B06D17B68002283F83C2078682F
:103A4C00FDF7CAFD7B68242283F83D207B681B6848
:103A5C00DA687B681B6822F40052DA60786800F040
:103A6C0001FC7B681B681A697B681B6822F4904216
:103A7C001A617B681B685A697B681B6822F02A02F2
:103A8C005A617B681B68DA687B681B6842F40052D9
:103A9C00DA607B6800221A647B68202283F83D2060
:103AAC007B68202283F83E20002318460837BD4649
:103ABC0080BD80B485B000AFF860B9601346FB8060
:103ACC00FB6893F83D30DBB2202B30D1BB68002B68
:103ADC0002D0FB88002B01D1012329E0FB6893F86D
:103AEC003C30012B01D1022322E0FB68012283F838
:103AFC003C20FB68BA681A62FB68FA889A84FB68F7
:103B0C00FA88DA84FB6800221A64FB68212283F8A5
:103B1C003D20FB68002283F83C20FB681B68DA68B8
:103B2C00FB681B6842F08002DA60002300E002238D
:103B3C0018461437BD4680BC704780B584B000AFC2
:103B4C00F860B9601346FB80FB6893F83E30DBB23B
:103B5C00202B1DD1BB68002B02D0FB88002B01D180
:103B6C00012316E0FB6893F83C30012B01D10223B2
:103B7C000FE0FB68012283F83C20FB6800221A63EB
:103B8C00FB881A46B968F86800F0E3F9034600E0D0
:103B9C00022318461037BD4680BD000080B58AB0A0
:103BAC0000AF78607B681B681B687B627B681B6856
:103BBC00DB683B627B681B685B69FB610023BB6154
:103BCC0000237B617B6A03F00F03BB61BB69002B95
:103BDC000DD17B6A03F02003002B08D03B6A03F065
:103BEC002003002B03D0786800F093FA7BE1BB69CB
:103BFC00002B00F0B180FB6903F00103002B05D111
:103C0C003B6A03F49073002B00F0A6807B6A03F0F0
:103C1C000103002B0AD03B6A03F48073002B05D000
:103C2C007B681B6C43F001027B681A647B6A03F0AF
:103C3C000403002B0AD0FB6903F00103002B05D011
:103C4C007B681B6C43F002027B681A647B6A03F08E
:103C5C000203002B0AD0FB6903F00103002B05D0F3
:103C6C007B681B6C43F004027B681A647B6A03F06C
:103C7C000803002B0FD03B6A03F02003002B04D168
:103C8C00FB6903F00103002B05D07B681B6C43F030
:103C9C0008027B681A647B681B6C002B00F01E8189
:103CAC007B6A03F02003002B07D03B6A03F0200350
:103CBC00002B02D0786800F02CFA7B681B685B69DB
:103CCC0003F04003002B14BF01230023DBB27B6104
:103CDC007B681B6C03F00803002B02D17B69002B63
:103CEC0031D0786800F06EF97B681B685B6903F073
:103CFC004003002B23D07B681B685A697B681B68C8
:103D0C0022F040025A617B689B6B002B13D07B68BE
:103D1C009B6B764A5A637B689B6B1846FDF70AFFD0
:103D2C000346002B16D07B689B6B5B6B7A68926B9F
:103D3C00104698470EE0786800F0DAF80AE07868E8
:103D4C0000F0D6F806E0786800F0D2F87B68002224
:103D5C001A64C3E000BFC1E07B681B6B012B40F011
:103D6C00A1807B6A03F01003002B00F09B803B6A60
:103D7C0003F01003002B00F095800023FB607B68A0
:103D8C001B681B68FB607B681B685B68FB60FB68DF
:103D9C007B681B685B6903F04003002B4ED07B688B
:103DAC009B6B1B685B683B823B8A002B00F0988006
:103DBC007B689B8D3A8A9A4280F092807B683A8A23
:103DCC00DA857B689B6B9B69202B2BD07B681B68EF
:103DDC00DA687B681B6822F48072DA607B681B6887
:103DEC005A697B681B6822F001025A617B681B6868
:103DFC005A697B681B6822F040025A617B6820225A
:103E0C0083F83E207B6800221A637B681B68DA68A3
:103E1C007B681B6822F01002DA607B689B6B18468B
:103E2C00FDF74DFE7B689A8D7B68DB8D9BB2D31AB8
:103E3C009BB21946786800F064F851E07B689A8D63
:103E4C007B68DB8D9BB2D31A7B827B68DB8D9BB24C
:103E5C00002B47D07B8A002B44D07B681B68DA6828
:103E6C007B681B6822F49072DA607B681B685A6965
:103E7C007B681B6822F001025A617B68202283F860
:103E8C003E207B6800221A637B681B68DA687B68BB
:103E9C001B6822F01002DA607B8A1946786800F001
:103EAC0030F81FE07B6A03F08003002B08D03B6ADC
:103EBC0003F08003002B03D0786800F0C3F812E005
:103ECC007B6A03F04003002B0DD03B6A03F04003E8
:103EDC00002B08D0786800F004F904E000BF02E081
:103EEC0000BF00E000BF2837BD4680BD2940000858
:103EFC0080B483B000AF786000BF0C37BD4680BC87
:103F0C00704780B483B000AF78600B467B8000BFF5
:103F1C000C37BD4680BC704780B485B000AF78606C
:103F2C000023FB600023BB607B6893F83D30DBB261
:103F3C00FB607B6893F83E30DBB2BB60FB68DAB2A7
:103F4C00BB68DBB21343DBB218461437BD4680BCEA
:103F5C00704780B485B000AFF860B9601346FB8041
:103F6C00FB68BA689A62FB68FA889A85FB68FA88DB
:103F7C00DA85FB6800221A64FB68222283F83E2053
:103F8C00FB68002283F83C20FB681B68DA68FB683E
:103F9C001B6842F48072DA60FB681B685A69FB6824
:103FAC001B6842F001025A61FB681B68DA68FB6807
:103FBC001B6842F02002DA60002318461437BD4615
:103FCC0080BC704780B483B000AF78607B681B689E
:103FDC00DA687B681B6822F49072DA607B681B6875
:103FEC005A697B681B6822F001025A617B681B6B63
:103FFC00012B07D17B681B68DA687B681B6822F091
:10400C001002DA607B68202283F83E207B68002255
:10401C001A6300BF0C37BD4680BC704780B584B0B6
:10402C0000AF78607B685B6AFB60FB680022DA8516
:10403C00FB680022DA84F868FFF75AFF00BF1037DC
:10404C00BD4680BD80B485B000AF78607B6893F8C6
:10405C003D30DBB2212B3ED17B689B68B3F5805F92
:10406C0014D17B681B69002B10D17B681B6AFB6029
:10407C00FB681B881A467B681B68C2F308025A60EF
:10408C007B681B6A9A1C7B681A6208E07B681B6A57
:10409C00591C7A6811621A787B681B685A607B68B5
:1040AC00DB8C9BB2013B9BB27A681946D184002B06
:1040BC000FD17B681B68DA687B681B6822F0800272
:1040CC00DA607B681B68DA687B681B6842F0400228
:1040DC00DA60002300E0022318461437BD4680BC8A
:1040EC00704780B582B000AF78607B681B68DA6877
:1040FC007B681B6822F04002DA607B68202283F820
:10410C003D207868FDF708F8002318460837BD46AF
:10411C0080BD80B586B000AF78607B6893F83E3088
:10412C00DBB2222B40F099807B689B68B3F5805FF3
:10413C0017D17B681B69002B13D100237B617B6833
:10414C009B6A3B617B681B685B689BB2C3F308038B
:10415C009AB23B691A807B689B6A9A1C7B689A624C
:10416C0026E07B689B6A7B6100233B617B689B68D4
:10417C00B3F5805F07D07B689B68002B0AD17B6806
:10418C001B69002B06D17B681B685B68DAB27B6904
:10419C001A7008E07B681B685B68DBB203F07F0376
:1041AC00DAB27B691A707B689B6A5A1C7B689A62CC
:1041BC007B68DB8D9BB2013B9BB27A681946D1853B
:1041CC00002B48D17B681B68DA687B681B6822F07F
:1041DC002002DA607B681B68DA687B681B6822F453
:1041EC008072DA607B681B685A697B681B6822F0F6
:1041FC0001025A617B68202283F83E207B681B6B8E
:10420C00012B23D17B6800221A637B681B68DA6858
:10421C007B681B6822F01002DA607B681B681B68E5
:10422C0003F01003102B0AD10023FB607B681B6882
:10423C001B68FB607B681B685B68FB60FB687B68CA
:10424C009B8D19467868FFF75CFE02E07868FCF7F6
:10425C0027FF002302E0002300E002231846183752
:10426C00BD4680BD80B584B000AF78607B681B68AC
:10427C001B6923F440517B68DA687B681B680A432E
:10428C001A617B689A687B681B691A437B685B6957
:10429C001343BB607B681B68DB6823F4B05323F0CB
:1042AC000C037A681268B9680B43D3607B681B688F
:1042BC005B6923F440717B689A697B681B680A43CD
:1042CC005A617B681B682C4A934203D1FEF746FA6D
:1042DC00F86002E0FEF72EFAF860FA6813469B00CD
:1042EC0013449A001A447B685B689B00B2FBF3F39F
:1042FC00224AA2FB03235B091901FA6813469B00AF
:10430C0013449A001A447B685B689B00B2FBF3F27F
:10431C001A4BA3FB02035B09642000FB03F3D31AC3
:10432C001B013233154AA2FB03235B0903F0F00394
:10433C001944FA6813469B0013449A001A447B688C
:10434C005B689B00B2FBF3F20C4BA3FB02035B0913
:10435C00642000FB03F3D31A1B013233074AA2FB80
:10436C0003235B0903F00F027B681B680A449A6005
:10437C0000BF1037BD4680BD003801401F85EB5192
:10438C000A22002100F0AEB8014B1868704700BF3C
:10439C009C01002070B500260C4D0D4C641BA41024
:1043AC00A64209D100F0A8F800260A4D0A4C641B5D
:1043BC00A410A64205D170BD55F8043B98470136B0
:1043CC00EEE755F8043B98470136F2E748460008FB
:1043DC004846000848460008504600080346024478
:1043EC00934200D1704703F8011BF9E7012B2DE92B
:1043FC00F047804601D0242B06D9FFF7C5FF1623C2
:10440C0003600020BDE8F0870D46354F284615F8AF
:10441C00014BE65D16F00806F8D12D2C2FD10126A4
:10442C002C78851C002B57D0102B09D1302C07D1A0
:10443C00287800F0DF00582849D110236C78023519
:10444C00002706F1004E0EF1FF3EBEFBF3F9384695
:10445C0003FB19EAA4F1300CBCF1090F14D8644623
:10446C00A34222DD002F1DDB81451BD301D1A245C8
:10447C0018DB012700FB034015F8014BEAE72B2C56
:10448C0004BF2C78851CCDE7A4F1410CBCF1190FAD
:10449C0001D8373CE4E7A4F1610CBCF1190F04D846
:1044AC00573CDDE74FF0FF37E6E7002F07DA222312
:1044BC007046C8F80030002AA4D0691E05E006B189
:1044CC004042002A9ED0002FF7D111609AE7302489
:1044DC00002BB5D10823B3E7302CA9D00A23AFE7C2
:1044EC004545000813460A46014602480068FFF796
:1044FC007DBF00BF9C010020F8B500BFF8BC08BC14
:10450C009E467047F8B500BFF8BC08BC9E46704785
:10451C0002030405060708090A0B0C0D0E0F1010F8
:10452C000000000000000000010203040607080957
:10453C000000000001020304002020202020202085
:10454C002020282828282820202020202020202037
:10455C002020202020202020208810101010101047
:10456C001010101010101010100404040404040493
:10457C00040404101010101010104141414141412D
:10458C00010101010101010101010101010101010F
:10459C00010101011010101010104242424242421F
:1045AC0002020202020202020202020202020202DF
:1045BC000202020210101010200000000000000087
:1045CC0000000000000000000000000000000000DF
:1045DC0000000000000000000000000000000000CF
:1045EC0000000000000000000000000000000000BF
:1045FC0000000000000000000000000000000000AF
:10460C00000000000000000000000000000000009E
:10461C00000000000000000000000000000000008E
:10462C00000000000000000000000000000000007E
:0C463C0000000000000000000000000072
:0846480031010008051400080F
:084650000D010008151400081B
:104658000000000000FFFFFF0000204AEB03380ABB
:104668000F2167000000C0000707D00828000000DD
:10467800000000000000FFFF000000000000B8007C
:10468800000000001964FFFFFFFFFFFF0A0F210170
:104698001D4C000000008000000000000000020225
:1046A800080000000000000000000000FF400000BB
:1046B80000000000196550EBF64DBA120A0F2101EF
:1046C8001D4C0000000080000000000000000202F5
:1046D800080000000000000000000000FF4000008B
:1046E800000000001E6150EBF64DBA120A0F2101BE
:1046F8000017000000008000000000000000020217
:10470800080000000000000000000000FF4000005A
:1047180053657474696E6720414354412E343638AA
:104728003335332E3032300A0D54797065204950B4
:104738002061646472657373202831737420626920
:1047480074293A2000000000536574204950206104
:104758006464726573732028326E642062697429F8
:104768003A200000547970652049502061646472D1
:10477800657373202833726420626974293A2000B3
:1047880053657420495020616464726573732028EE
:1047980034746820626974293A200000547970657D
:1047A800207375626E6574206D61736B206164643B
:1047B80072657373202834746820626974293A20FA
:1047C80000000000F8000020140100203001002043
:1047D8004C010020C01D0020C01D0020C01E00206C
:1047E8000024F4001000000001000000A0010020D7
:1047F80000000000000000000000000000000000B1
:1048080000000000000000000000000000000000A0
:104818000000000000000000000000000000000090
:104828000000000000000000000000000000000080
:104838000000000000000000000000000000000070
:104848000000000000000000000000000000000060
:04000005080017597F
:00000001FF
